:020000040002F8
:10300000205D0020153402001D3402001F34020030
:1030100021340200233402002534020000000000A5
:103020000000000000000000000000002734020043
:1030300029340200000000002B3402002D3402006D
:10304000253802002F340200313C02002F340200E8
:103050002F3402002F3402004D3602002F340200BC
:103060002F3402002F3402002F3402002F340200CC
:103070002F3402002F3402002F3402002F340200BC
:103080002F3402007D3802002F3402002F3402005A
:10309000013902002F340200053902002F340200EA
:1030A0002F3402002F3402002F3402002F3402008C
:1030B0002F3402002F340200000000000000000046
:1030C0002F3402002F3402002F3402002F3402006C
:1030D0002F3402002F3402002F34020000000000C1
:1030E00000000000000000000000000000000000E0
:1030F00000000000000000000000000000000000D0
:1031000000000000000000000000000000000000BF
:1031100000000000000000000000000000000000AF
:10312000000000000000000000000000000000009F
:10313000000000000000000000000000000000008F
:10314000000000000000000000000000000000007F
:10315000000000000000000000000000000000006F
:10316000000000000000000000000000000000005F
:10317000000000000000000000000000000000004F
:10318000000000000000000000000000000000003F
:10319000000000000000000000000000000000002F
:1031A000000000000000000000000000000000001F
:1031B000000000000000000000000000000000000F
:1031C00000000000000000000000000000000000FF
:1031D00000000000000000000000000000000000EF
:1031E00000000000000000000000000000000000DF
:1031F00000000000000000000000000000000000CF
:10320000DFF80CD000F0A2F900480047A9640200E2
:10321000205D002030B450E8012F93B2C4892344CC
:103220008489A34228BF1B1B0489A34202BFBFF3AA
:103230002F8F002007E0C3EA020340E80134002C8E
:10324000E9D14FF001000A6030BC704750E8012F0F
:10325000C2EA024240E801210029F7D1704730B4A8
:1032600050E8022F1FFAA2F3C488A34202BFBFF3A3
:103270002F8F00200DE0C48923448489A34228BFF6
:103280001B1BC2EA034340E80234002CE8D14FF094
:1032900001000A6030BC704750E8022FC2EA2242A7
:1032A00040E802210029F7D17047034653E8022F76
:1032B000D988B2EB324F4FF0000017BF92B241EA0B
:1032C000014142EA014104E05A68B2EB324F08BFC3
:1032D000012043E80212002AE8D1704730B40446C6
:1032E00054E8000F0D4644E80053002BF8D1156058
:1032F00030BC704730B4044654E8000F40EA010582
:1033000044E80053002BF7D1156030BC704730B44F
:10331000044654E8000F00EA010544E80053002B7E
:10332000F7D1156030BC704730B4044654E8000F44
:1033300080EA010544E80053002BF7D1156030BC4A
:10334000704730B4044654E8000F00EB010544E830
:103350000053002BF7D1156030BC704730B40446E1
:1033600054E8000FA0EB010544E80053002BF7D10F
:10337000156030BC7047000030B4044654E8000FBC
:103380000D4644E80053002BF8D1156030BC70475F
:1033900030B4044654E8000F40EA010544E8005305
:1033A000002BF7D1156030BC704730B4044654E8A8
:1033B000000F00EA010544E80053002BF7D1156027
:1033C00030BC704730B4044654E8000F80EA010571
:1033D00044E80053002BF7D1156030BC704730B47F
:1033E000044654E8000F00EB010544E80053002BAD
:1033F000F7D1156030BC704730B4044654E8000F74
:10340000A0EB010544E80053002BF7D1156030BC58
:10341000704700000648804706480047FEE7FEE781
:10342000FEE7FEE7FEE7FEE7FEE7FEE7FEE7FEE774
:1034300015390200013202002DE9F05F0546002037
:1034400092469B4688460646814640241BE0284615
:1034500041464746224600F068F853465A46C01A8D
:10346000914110D311461846224600F04FF82D1A0C
:1034700067EB01084F4622460120002100F046F884
:1034800017EB00094E41201EA4F10104DFDC484681
:1034900031462A464346BDE8F09F00000048704789
:1034A000F497020040EA01039B0703D009E008C932
:1034B000121F08C0042AFAD203E011F8013B00F8F9
:1034C000013B521EF9D27047D2B201E000F8012B45
:1034D000491EFBD270470022F6E710B513460A4694
:1034E00004461946FFF7F0FF204610BD421C10F8B5
:1034F000011B0029FBD1801A7047034611F8012BEC
:1035000000F8012B002AF9D118467047202A04DB65
:10351000203A00FA02F1002070479140C2F12003E6
:1035200020FA03F3194390407047202A04DB203A25
:1035300021FA02F00021704721FA02F3D040C2F1D3
:10354000200291400843194670470000064C074D81
:1035500006E0E06840F0010394E807009847103463
:10356000AC42F6D3FFF750FEC49E0200E49E020078
:1035700070B58C1810F8015B15F0070301D110F835
:10358000013B2A1106D110F8012B03E010F8016B62
:1035900001F8016B5B1EF9D12B0705D40023521EE5
:1035A0000DD401F8013BFAE710F8013BCB1A921C4D
:1035B00003E013F8015B01F8015B521EF9D5A1424B
:1035C000D8D3002070BD322814D008DC232813DAA9
:1035D00020280AD022280FD1012002F031BD352841
:1035E00006D0372808D102F03DBD002002F010BC03
:1035F00002F02CBB01F0EEBF7047000070B5124A1C
:10360000002414701AE000BF10F8013B537094704E
:103610001378557883EA0506F60705D083F018037A
:103620005B0843F0800300E05B0813706B08537085
:1036300093785B1CDBB29370082BE9D3491EC9B2A7
:10364000E2D2107870BD0000842A00202DE9F047F6
:1036500000268CB0DFF86091B0464FF480750124ED
:1036600037460696284603F0B7FF38B1D9F8040369
:10367000204203D0284603F0A5FF26432D1D6400F9
:103680007F1CADB2082FEDD34FF4BE74204603F07B
:10369000A3FF48B1204603F095FF46F0004606AA76
:1036A0000121002003F07AFF444D16F0FF0F15D0E2
:1036B0000127002437420DD009EB8401D1F8100511
:1036C000D1F81015C0F3042055F82420C1F30141AE
:1036D00002B190477F00641C082CEBD3002E67DA00
:1036E0004FF0FF30CDE9088000263446281910F845
:1036F000507F90F9000027F0C008401C44D009A971
:10370000404603F0E6F858B34FEA9719404602F0F6
:1037100095FA55F820701FB1B9F1030F03D00FE0EF
:10372000B9F1030F30D108A84FEAD80208F0070317
:10373000815C4FF0010C0CFA03FC41EA0C0181544E
:103740004FF0A04101EB8800D0F8000706A9C0F3B4
:10375000014A404603F0BDF818B1BAF1020F03D098
:1037600012E0BAF1030F0FD1B9F1030F08D1BAF18A
:10377000020F1BD00221404603F0F4FE761CF6B285
:1037800017B149464046B847641C042CAED3002EFE
:103790000ED06A460121002003F000FF0699009830
:1037A000884205D00690089809909DE70321E2E73A
:1037B0000CB0BDE8F087000000600040D43200206B
:1037C00000F01F02012191404009800000F1E0203B
:1037D000C0F88012704700F01F020121914040099B
:1037E000800000F1E020C0F80011704700F01F02D7
:1037F000012191404009800000F1E020C0F8001252
:1038000070474907090E002806DA00F00F0000F1A2
:10381000E02080F8141D704700F1E02080F80014CB
:10382000704700002DE9F0414FF48077384603F0EF
:1038300019F90124104EA50748B1384603F019F9CB
:103840000120C5F808037470002002F001FA4FF45B
:103850008277384603F006F900280BD0384603F08B
:1038600008F90220C5F80803B470BDE8F041012052
:1038700002F0EEB9BDE8F081C03200200748002117
:10388000C0F84011C0F84411C0F84811C0F84C11FC
:10389000C0F80011C0F8041105F0A4BA00100140EE
:1038A00000F0ECB970B50E46144900EB400001EB96
:1038B000C0051446E86A183520B101280FD0022847
:1038C00005D113E0284600F00DFAA04201D20024F1
:1038D00011E022463146284600F03CFA0BE028462B
:1038E00000F000FAA042F4D20446F2E7314628463E
:1038F00000F003FA0446204670BD0000943A002010
:1039000005F0BEB904F07ABB0149086070470000B9
:10391000802A0020F0B5B5480023021D0178101D53
:1039200001254FF0805406290BD11678360708D1AF
:103930000678C6F30316032E06D0042E04D0052EF7
:1039400002D0062907D00EE0B4F82463A84FC6F3CE
:1039500004263E6002E01678360704D10678C6F3E6
:103960000316032E02D0062904D00FE0A24FA14E69
:103970007E670EE01678360708D10678C6F3031680
:10398000032E06D0042E04D0052E02D0062907D01F
:103990000EE0D4F84462994FC6F342363E6002E02E
:1039A0001678360704D10678C6F30316032E02D024
:1039B000062906D011E0924E376827F080773760ED
:1039C0000EE01678360708D10678C6F30316032EE4
:1039D00006D0042E04D0052E02D006290AD011E00C
:1039E0004FF08046C6F80C31C6F81031834E361FB2
:1039F000336002E01678360704D10678C6F3031662
:103A0000032E02D0062905D00CE07C4F0326643734
:103A10003E600AE01678360704D10678C6F303162E
:103A2000032E02D006290DD014E0764F05263E6005
:103A3000744E78363560734E083633603F263F1D2E
:103A40003E6002E01678360704D10678C6F3031606
:103A5000052E02D0062957D062E06B4E36686B4FB8
:103A60003E60694E361D36683F1D3E60664E083624
:103A700036683F1D3E60644E0C3636683F1D3E6022
:103A8000614E103636683F1D3E605F4E1436366814
:103A90003F1D3E605C4E183636685C4F20373E60F6
:103AA000594E1C3636683F1D3E60574E20363668EC
:103AB0003F1D3E60544E243636683F1D3E60524ED8
:103AC000283636683F1D3E604F4E2C3636683F1D07
:103AD0003E604D4E303636684C4F40373E604A4E61
:103AE000343636683F1D3E60474E383636683F1DD7
:103AF0003E60454E3C3636683F1D3E60424E403685
:103B000036683F1D3E6002E01678360708D1067819
:103B1000C6F30316032E06D0042E04D0052E02D0C1
:103B2000062907D019E0D4F85812394A01F04F019C
:103B3000116002E0117809070FD10078C0F303107B
:103B4000032803D0042801D0052806D13148016894
:103B5000C90702D06FF001010160D4F830010628D6
:103B600008D1D4F83401062804D12B48016841F467
:103B70008061016022487438016841F4700101607D
:103B8000BFF34F8FBFF36F8F4FF01021D1F80002BA
:103B9000002803DBD1F80402002822DA1F4A15604E
:103BA0001F480468002CFCD01524C1F800420568A9
:103BB000002DFCD0C1F8044201680029FCD013603C
:103BC00001680029FCD0BFF34F8F0D48F038016821
:103BD000144A01F4E06111430160BFF34F8F00BF4D
:103BE000FDE7124910480860F0BD0000E00F00F04A
:103BF000403501400DF0ADBA00C007403C05004023
:103C0000FCED00E0105600400404001020C5004008
:103C1000E40E0040000400403C17004004E5014071
:103C200000E401400400FA050090D003502B00206E
:103C30000448017F04480029024901D005F0BFBAB9
:103C400005F02EBA2C3300200020004070B5074844
:103C500002F0F7F9054D002405A0295D00F09CF85D
:103C6000641CE4B2062CF7D370BD00008E2A00203D
:103C7000307825303278203A2000000010B5124C00
:103C800002202061606111A0A06104F17800E06170
:103C90004FF4007020620020A06260620BA1A1645A
:103CA000E06204F51E71E1641021A065C4E91410FE
:103CB000E06509A1E01DFFF720FC08A12046FFF701
:103CC0001CFC2020A07110BD943A00205465726D38
:103CD000696E616C00000000525454005345474720
:103CE000455200000269C1688A4203D88068401AC0
:103CF000104400E0501A401E70472DE9F047C46898
:103D00001746894606464FF000083069A04201D99F
:103D1000051B02E0B168201A0D1AB0686D1E001B69
:103D2000A84200D80546BD4200D33D4670682A46E9
:103D300020444946FFF7B6FBB0687F1B2C44A844DB
:103D4000A944A04200D10024F460002FDDD14046F8
:103D5000BDE8F0872DE9F04104468846D4E9020722
:103D6000C51BE168606816460844B54206D941465D
:103D7000FFF798FBB819E060BDE8F0812A4641469C
:103D8000FFF790FB761B08EB050132466068FFF7F2
:103D900089FBE660F0E700000FB4054B10B503A9FE
:103DA000044A029800F036F810BC5DF814FB0000DD
:103DB000295F0200F42A002002E008C8121F08C18F
:103DC000002AFAD170477047002001E001C1121F9C
:103DD000002AFBD1704700000121202803DA81402E
:103DE0000548014003E0402802DA2038814009B14B
:103DF0000120704700207047FC06FFBD082806D24E
:103E000028B1012803D0042801D0012070470020E8
:103E1000704700002DE9FF4F8DB00F460546002684
:103E200006E025280BD0DDE90F1290476D1C761CAB
:103E300028780028F5D111B03046BDE8F08F002475
:103E4000A246A1460122EC4900E0044315F8013FD7
:103E5000203B02FA03F00842F7D128782A2810D034
:103E60006FF02F022878A0F13001092914D80AEB4D
:103E70008A0102EB410144F0020400EB010A6D1CCF
:103E8000F0E701CF5FEA000A03D544F40054CAF119
:103E9000000A44F002046D1C28782E2817D115F86A
:103EA000010F44F004042A280ED06FF02F02287866
:103EB000A0F1300109290AD809EB890102EB41017F
:103EC00000EB01096D1CF2E757F8049B6D1C287884
:103ED0006C280FD006DC4C2817D068280DD06A2833
:103EE00014D104E0742810D07A280FD10DE044F4E6
:103EF00000140AE044F4801401E044F440146978AA
:103F0000814202D104F580146D1C6D1C2A786E2A42
:103F10001FD00CDC632A31D004DC002A8BD0582A55
:103F200011D1A3E0642A68D0692A0CD165E0732A14
:103F30002ED004DC6F2A73D0702A04D19BE0752A3E
:103F40006FD0782A6ED01046DDE90F129047761CAC
:103F500050E1C4F30250022806D0032809D00428F7
:103F600001CF09D0066045E101CFF117C0E900613A
:103F700040E101CF06803DE106703BE117F8040BFC
:103F80008DF8000000208DF80100EB46012003E0D1
:103F900057F804BB4FF0FF3061074FF0000102D427
:103FA0000DE008F10101884649450FDA8045F8DB4C
:103FB0001BF808100029F4D108E008F10101884637
:103FC0008142FADB1BF808100029F6D1DDE90F2346
:103FD000AAEB08008146214600F036F9304400EB98
:103FE000080604E0DDE90F121BF8010B9047B8F159
:103FF0000108F7D221464846F7E00A21C4F30253EC
:104000004FF0000B0891022B04D001CFC117032BF6
:1040100009D00AE0FF1D27F00707F7E8020108E0D2
:1040200032E01FE020E000B2C117042B01D140B202
:10403000C117031E71F1000307DA4FF0000CD0EB3B
:104040000C006CEB01012D2302E0230504D52B238A
:104050008DF82430012303E0E30701D02023F7E7A4
:10406000984658E00A2110E010210EE010204FF091
:10407000000B08900CE010214FF0000B44F00404FA
:104080004FF00809089103E008214FF0000B089158
:10409000C4F30253022B04D001CF0021032B06D01E
:1040A00006E0FF1D27F00707F7E8020103E080B2F2
:1040B000042B00D1C0B24FF0000823072BD5702A83
:1040C00007D0DDF820C08CF0100C5CEA0B0C05D09A
:1040D0000EE040238DF82430012308E050EA01036C
:1040E00006D030238DF824308DF825200223984601
:1040F000DDF820C08CF0080C5CEA0B0C0BD150EA08
:10410000010301D1630706D530238DF824304FF029
:104110000108A9F10109582A04D038A20B9208AA73
:104120000A920BE03AA2F9E75B46089AFFF784F996
:104130000B9B9B5C0A9A521E0A92137050EA010272
:10414000F2D10A98ADEB000000F1200B600702D518
:1041500024F4803401E04FF00109D94502DDA9EBD8
:104160000B0000E0002000EB0B0141440890AAEB9B
:10417000010AE00306D4DDE90F232146504600F092
:1041800063F806444FF0000908E009A911F8090096
:10419000DDE90F12904709F10109761CC145F4DBF6
:1041A000E0030CD5DDE90F232146504600F04CF822
:1041B000064404E0DDE90F1230209047761C089990
:1041C000481E08900029F5DC08E00A980A99007852
:1041D000491C0A91DDE90F129047761CBBF10001E2
:1041E000ABF1010BF1DC21465046DDE90F2300F075
:1041F00019F806446D1C1BE60928010030313233E2
:104200003435363738396162636465660000000012
:1042100030313233343536373839414243444546FC
:10422000000000002DE9F041044600251E46174617
:10423000880404D405E039462020B0476D1C641E74
:10424000F9D52846BDE8F0812DE9F0410446002566
:104250001E469046C80301D5302700E02027880479
:1042600004D505E041463846B0476D1C641EF9D5BB
:104270002846BDE8F08110B501220221002001F09E
:10428000FFFA08B1072810D107220221012001F00E
:10429000F7FA08B1072808D100210A22084601F0E0
:1042A000EFFA08B1072800D1002010BD00B5A9B071
:1042B000A0216846FFF70FF902208DF800000020CA
:1042C0008DF8020006218DF803100121ADF84C1085
:1042D0000C4A8DF87C1014924021CDE922100A4836
:1042E00026906946094800F03DFC20B1084A40F29A
:1042F000AF2100F0FDF80121044800F030FC29B0A6
:1043000000BD0000702A002081820200102F0020D2
:10431000708C0200022001F099B9000070B50024F1
:10432000064D06E06868012110F8340002F04AFCEE
:10433000641C28788442F5D3002070BDB42A002084
:10434000F8B515460C460646052A01D20720F8BDE9
:1043500002F01EFD18B902F0EDFC0028F7D110495B
:1043600000204E600C70C1E902500E4D08610DE056
:1043700006EBC4006968009181788DF8011000781F
:10438000094A694602F070FC0028E0D1641EE4B2DC
:10439000EED2BDE8F840054A0021024800F00EB90F
:1043A000B42A002060950200C9600200155E020078
:1043B0002DE9FC4114468846074603F08FFB00BFF9
:1043C00003F0DAF90028FBD10125234E012F27D075
:1043D0006FF48050381828D0B0F5405F2CD06FF4BF
:1043E0004051C84208D13088238805EB00401BA10A
:1043F000626803F0C4FA06E03088424605EB0040EC
:104400001DA103F0B5FA22480068C00700D000BE25
:10441000224602B041463846BDE8F04100F074B88B
:1044200030881CA105EB004003E0308821A105EB9A
:10443000004003F099FAE6E7A06803F089FE03461E
:1044400021886068CDE90001308823A105EB004098
:10445000A26803F09CFAD6E79C2B002041535345F9
:104460005254494F4E204641494C454420617420E6
:1044700025733A2575000000554E4B4E4F574E2080
:104480004641554C5420617420307825303858000E
:10449000F0ED00E0534F46544445564943453A2019
:1044A000415353455254494F4E204641494C45448F
:1044B00000000000534F46544445564943453A20B6
:1044C000494E56414C4944204D454D4F525920418B
:1044D00043434553530000004552524F5220257527
:1044E000205B25735D2061742025733A25750000DB
:1044F0000EB5ADF80010CDE901206A46002144F266
:104500000100FFF755FF0EBD08B501238DF80030FF
:104510009DF80030144B186059609A606FF4804128
:10452000401807D001280FD1DA60D8680088986158
:10453000D86807E01A6118698068586118690088AE
:10454000986118694068D861186858689868D86890
:10455000186958699869D86972B600BF9DF800005B
:104560000028FBD162B608BD6C33002010B582680C
:10457000C368934203D001F0C4FC002010BD0520A5
:1045800010BD29B112B1531E134203D00920704748
:104590000E2070470160838000218160C160084661
:1045A000704710B58268C3689A1A83889A4203D804
:1045B00001F0B1FC002010BD042010BD074B9B781A
:1045C00023B12AB120B10068037C1BB108207047D9
:1045D0000720704741744261002070478C330020EF
:1045E00070B503F0BDFF104800240B210470447027
:1045F0000E4D817014206C602C706C70FFF7E0F829
:1046000007211420FFF7FDF81420FFF7E4F808480D
:10461000046007211120FFF7F4F80548001F006827
:10462000A860002070BD00008C330020C82A002044
:10463000081501402DE9FC47DFF8789099F8023021
:1046400073B368B3052902D20720BDE8FC8743692C
:1046500033B3437C012B25D0002704460025884630
:1046600016468DF80050684600F0EAF801A804F0FC
:10467000B1FEC8B1012101700F4944600968C0E969
:104680000218C0E904769DF8040089F801009DF83D
:10469000000000F0F9F81420FFF7A8F82846D4E746
:1046A0000820D2E70F46D8E704259DF8000000F067
:1046B000EBF8F3E78C3300200415014006498978B4
:1046C00039B130B1416921B100210174022104F0F6
:1046D00065BB0820704700008C33002070B50B4E7E
:1046E00001460B48B578FFF741FF04465DB1002055
:1046F000B070711C0122C81D02F090FB18B105A218
:10470000D521FFF7F5FE204670BD0000DC2A002011
:10471000983400202E2E5C2E2E5C2E2E5C2E2E5CCD
:104720002E2E5C2E2E5C636F6D706F6E656E7473D3
:104730005C6C69627261726965735C756172745CEC
:104740006170705F756172745F6669666F2E630079
:10475000F0B5284E89B01F460D00044672603BD06C
:10476000A888296882B22448FFF70BFF002834D1BB
:10477000A889A96882B220481030FFF702FF0028FC
:104780002BD120221D496846FEF78CFE60690690F9
:10479000207C00B101208DF814008DF81C70607C25
:1047A00000B10E208DF81500E0680290A06803901B
:1047B00020680190606800900E48114A69460830F0
:1047C00002F0F8FA002808D1B0702068401C04D02C
:1047D0009DF81D0018B106E0072009B0F0BD05489E
:1047E000083002F073FB03490122491CC81D02F086
:1047F00015FBF2E7DC2A00209834002068950200BF
:104800000190020010B501460B48FFF7CAFE0400F4
:1048100010D10A4802F0A4FC60B9084906480839DA
:10482000FFF7A4FE30B9054901220839034802F018
:1048300011FC0446204610BDA8340020E42A0020C4
:1048400030B5EFF3108172B60D4A9468012324B19C
:104850000370002900D162B630BD93604FF0E023B1
:10486000D3F88051074C25401560C3F88041D3F838
:10487000844154605A17C3F8842100220270E8E78B
:10488000B8340020FC06FFBD0B498A68002A11D00D
:1048900000280FD1EFF3108072B60B684FF0E022C2
:1048A000C2F800314B68C2F8043100228A60002847
:1048B00000D162B670470000B83400202DE9F04105
:1048C000064608680C46411C4FF0A0474FF0010512
:1048D00006D005FA00F1C7F80815206802F027FE97
:1048E0006068411C02D0002102F018FE3079204996
:1048F00001EB4010A169007F00283068C0F8241542
:1049000025D0607D227D31681043C1F86C05D4E963
:1049100000123068C0F80C15C0F8142524E0A06817
:10492000411C02D0002102F0F9FDE068411C05D0D5
:104930008540C7F80855E06802F0F9FDD4E9021295
:104940003068C0F80825C0F81015BDE8F081607D1A
:10495000217D32680843C2F86C05D4E90012306842
:10496000C0F81425C0F80C15207D0128D7D0ECE73D
:104970002C3300202DE9FC470025178806461580BA
:1049800090F82D001446894630B13A4621464846F3
:1049900000F008FB050009D1B0784FF00C0A18B3FD
:1049A0002088C846001DB84202D95046BDE8FC87A1
:1049B000684679DF0028F9D12088032108F8001023
:1049C00020881921401C80B2208008F8001020881F
:1049D000401C80B2208000EB0801BDF8000004F00C
:1049E00066FC218808442080F0780222C8B1218822
:1049F00096F9033001F1030C4846BC45D5D8425422
:104A000021884FF0010C491C89B2218000F801C0B7
:104A10002188491C89B2218009F801302088401C76
:104A200020807068B8B1218890F9003001F1030C42
:104A30004846BC45B9D8425421880A22491C89B24B
:104A4000218042542188491C89B2218009F8013013
:104A50002088401C2080308950B1CDE900474B466A
:104A60000622022106F1080004F0CCFC05009DD1CD
:104A7000308A50B1CDE900474B460722032106F1A9
:104A8000100004F0BFFC050090D1308B50B1CDE98F
:104A900000474B461522142106F1180004F0B2FC21
:104AA000050083D1306A30B13B462246494601F0C9
:104AB00039F90500DBD1706A30B13B4622464946E0
:104AC00001F0C2FD0500D2D196F82C0038B13B466A
:104AD00022464946304603F0F7FE0500C7D130783C
:104AE00038B13B4622464946304601F035FE0500C6
:104AF000BDD128465AE7F0B50C4693B01F210726D2
:104B0000ADF80010ADF80410002750B1C178490786
:104B10000DD56A4602A9FFF72DFF002808D102AD86
:104B200002E00025ADF800706CB1E07810B13046BD
:104B300013B0F0BD01AA0AA92046FFF71BFF002809
:104B4000F6D10AAA02E00022ADF80470BDF8040014
:104B5000C3B2BDF80000C1B2284672DFE8E780F8B2
:104B60002410704770B50D00044653D0F4B30120F3
:104B700020700026E670202205F17801201DFEF746
:104B800091FC84F82460D5F89800C4F8CC00D5F8DE
:104B90009C00C4F8D0004FF6FF70A4F8C800C4F819
:104BA0002560A4F8296084F82B6004F130003C21D2
:104BB0000646FEF790FC287884F83000A87884F840
:104BC0003200E87884F83300687884F83100D5E959
:104BD0000401C4E91001D5E90201C4E90E01D5E9D7
:104BE0000601C4E9120195F82D0000E012E084F8F6
:104BF0005D00686AD8B104F1780104F16C00616766
:104C00006065696A09880180686A616D808888804A
:104C1000002008E00E2070BD696A22188968095CCE
:104C200082F87810401C616D89888142F4D8A86AA6
:104C3000E8B104F1A400C4F8A0000C38A065A96A8A
:104C400089888180A86AA16D00880880002006E01C
:104C5000A96A22188968095C82F8A410401CA16D19
:104C600089888142F4D895F82C0084F85C00286A81
:104C700048B104F1C4002065296A49884180286A46
:104C8000216D00880880686800B1606305F13C010F
:104C90003046BDE87040FFF72EBF10B50288102ADD
:104CA0001AD0112A1FD01B2A1CD1007A0C460028CA
:104CB00018D1E0780521401CB0FBF1F201FB120194
:104CC000204600F055F800280CD0D4F8D010002968
:104CD00008D0BDE810400847C27B012A02D1808875
:104CE000A1F8C80010BD0C46002184F8D4108088BB
:104CF000B4F8C8108842F5D120790028F2D10121FA
:104D0000DEE710B50C46022801D0032811D16078E7
:104D100000280ED000206070E178204600F028F8CE
:104D2000002806D0D4F8D010002902D0BDE81040E9
:104D3000084710BD10B5044674DF012084F8D40084
:104D4000002084F8D600062084F83300002104F106
:104D50003000FFF7D0FE002809D1E178204600F0AE
:104D600007F818B1D4F8D01001B18847002010BD61
:104D70002DE9FF47044600780F4638B1E770002060
:104D800002F000FB012628B16670D2E0082004B0D2
:104D9000BDE8F0870025C4F82550A4F8295084F810
:104DA0002B50A07910B1E078012806D0E07970B1DD
:104DB000E078012801D0022809D1D4F8CC1021B123
:104DC00084F82C600820884701E084F82C5004F116
:104DD000260100200A5C0AB1304603E0401C062888
:104DE000F8D300204FF002084FF0030A4FF00409F7
:104DF000012F06D0022F09D0032F0CD0042F12D17F
:104E00000DE0A17911B108B130460DE0E17911B1A1
:104E100008B1404608E0207A08B1504604E0607AC4
:104E200008B1484600E02846E070D4F8CC1041B103
:104E3000032801D0042804D1607910B194F8D4007B
:104E4000A8B184F8D55000950295019503958DF889
:104E500000508DF80850E17804F1250004F130028B
:104E6000052958D2DFE801F0670A131F3B0084F8D8
:104E7000D65084F8D56007208847E4E7A6700190F3
:104E80008DF80060ADF80C50ADF80A5043E084F89E
:104E9000028001908DF80060208AADF80C00A08996
:104EA000ADF80A0037E0A08AADF80A00208BADF813
:104EB0000C00607980B194F8D40068B994F8D600F9
:104EC00050B18DF8088084F8339000211046FFF728
:104ED00012FE00BB05211AE084F802A01BE0A08BA3
:104EE000ADF80A00208CADF80C00607988B194F818
:104EF000D40070B994F8D60058B18DF8088084F8C1
:104F0000339000211046FFF7F6FD20B90621A1706D
:104F100001E084F80290E07830B194F824106846FB
:104F200073DF00287FF433AFD4F8CC1009B1A07838
:104F3000884700202BE7A570F6E7000070B5040055
:104F400012D001461C221448FEF7ACFA1248134D49
:104F50000560206850B17ADF002806D1206801681A
:104F600029604068686005E00E2070BD0B487BDF5B
:104F70000028FAD108484FF6FF711438084A20F883
:104F8000041B0549343901600021FFF717FB002895
:104F9000EBD0032070BD0000EC310020AC2A0020D3
:104FA0006D9302007CB5054608880C460930904296
:104FB00001D90C207CBD68466DDF0028FAD121881C
:104FC0000820685420881B21401C80B2208029546E
:104FD0002088401C80B220802844DDF80110016048
:104FE000BDF8051081802088801D80B220809DF84A
:104FF0000010490800D0012129542088401C20803D
:1050000000207CBDF0B5574D018800220126AF88F5
:1050100089B0044623294FD02BDC53484FF00303BB
:105020001129008803EB004034D014DC012965D03D
:1050300010290ED14DA102F097FC2E70072000F030
:1050400041FC20B14CA24FF4C271FFF751FAA08885
:10505000A88009B0F0BD132923D02129F9D10092ED
:10506000A08869468FDF0028F3D043A240F29B114D
:105070002DE03B2939D051294DD052292AD056292B
:10508000E7D18088132176DF0028E2D03AA24FF4DE
:10509000E0713BE02A703CA102F066FC4FF6FF7025
:1050A000D6E700231A46852138467FDF0028D0D076
:1050B00031A24FF4D17129E0009201928088002240
:1050C000694690DF0028C4D02BA24FF4D671FFF7B9
:1050D0000FFABEE700231A4619463846A9DF002812
:1050E000B7D025A24FF4D97110E08088132176DF64
:1050F0000028AED020A240F2B91107E0A08800211C
:1051000066DF0028A5D01CA240F2C51109B0BDE899
:10511000F040FFF7EDB91022A11D04A8FEF7C2F977
:105120009DF81010002994D09DF81800042803D091
:10513000062801D005288CD102290ED08DF80060F8
:105140004FF4C170ADF80400A0886946A8DF0028BC
:10515000BFD009A24FF4F071B9E702208DF800002A
:10516000EEE70000682A00209C2B0020436F6E6E43
:1051700065637465640000002E2E5C2E2E5C2E2E5E
:105180005C6D61696E2E6300446973636F6E6E655A
:10519000637465640000000010B51A4C01886068F3
:1051A00010290ED011292BD1401E606028D1FFF7A5
:1051B00062F8002824D02168002921D0BDE81040E1
:1051C0000847D0B900210122084600F059FB08B178
:1051D00007280FD107220221012000F051FB08B15E
:1051E000072807D104220221002000F049FB20B14A
:1051F000072802D0216801B188476068401C6060C0
:1052000010BD0000A42A00202DE9F04701883B4E84
:1052100040F2F3194FF6FF7510291BD011293ED02B
:10522000122954D0502946D1C188F289841D914257
:1052300041D1618902293ED18688304600F070FF55
:10524000050038D004F10C0000F09EF9A8B32946FF
:1052500030464EE0C17B8788044601292BD1A84601
:10526000284600F05DFF050017D02F80002028722F
:10527000234843464A460168C5F80A104068C5F805
:105280000E0004F1100105F10A0000F0E3FF68725E
:10529000F08900280FD129462AE0042013E08088F5
:1052A00000F03EFF040006D06068FFF707FA08B17F
:1052B00003F0ECFA2580BDE8F087FFE76868FFF7A8
:1052C000FDF90028F7D0BDE8F04703F0DFBA878882
:1052D0000646384600F024FF0400ECD02B464A4630
:1052E00006F1080104F10A0000F0B4FF60722146E3
:1052F0003846BDE8F04700F067BD0000EC31002003
:10530000AC2A00202DE9F0470446038840480122DA
:10531000A4B000F1480A102B09D0112B56D01A2B3B
:1053200072D1217AB2EB111F55D2012354E0D0E99A
:1053300011218A430546011D12A803F06AFA44228E
:1053400012A901A8FEF7AEF8DFF8C4900026374690
:1053500009F144090DF104080AE000BF08EB46001A
:105360001D2283884946281D009703F017FA761CF2
:105370000198B042F2D8686CA688C04303F030FAB6
:10538000A0F57F41FF3917D005EB4000012386804F
:1053900032465146281D03F061FA01233246494640
:1053A000281D03F05BFAE07B02280DD0002318498A
:1053B000A2884C31281D22E024B0E521BDE8F04749
:1053C00014A20420FFF794B80123F0E70023A28879
:1053D0005146001D13E000230D490546A2885031B7
:1053E000001D03F03BFA207A0221B1EB101F01D21D
:1053F000012300E000230649A2885431281D24B06F
:10540000BDE8F04703F02ABA24B0BDE8F0870000F9
:10541000083200202E2E5C2E2E5C2E2E5C2E2E5C52
:105420002E2E5C2E2E5C636F6D706F6E656E7473C6
:105430005C626C655C636F6D6D6F6E5C626C655F0A
:10544000636F6E6E5F73746174652E63000000009D
:1054500030B5174B0D4604000FCB85B08DE80F001B
:1054600023D015B34FF6FF70A0822868A0610020FA
:10547000A0752146684662DF002814D120788DF897
:1054800012000120ADF81000A21C04A9A0DF002822
:1054900009D12946204603F09AF8002803D129466D
:1054A000204603F0E9FC05B030BD0E20FBE700000C
:1054B0004C9502007FB5002917D0002815D002882E
:1054C000102A0DD0112A0DD0502A0FD0572A0CD1F6
:1054D0001A4B1868D3E902238DE80F0089692AE086
:1054E000808801E04FF6FF7088827FBD01910C46F5
:1054F000821DC3880989002512308B4202D151894F
:1055000002290CD0A1898B42EFD1A1690029ECD0EE
:1055100002905089ADF80C008DF800500AE000F0C0
:1055200033F818B10120A075022001E0A575032011
:105530008DF80000A169684688477FBD3C95020050
:105540001FB560B1838AA3F57F44FF3C09D0837DFA
:105550003BB11388F42B06D9072004B010BD0E20F0
:10556000FBE70820F9E700230093019302930393DC
:105570008388CDE90221ADF8003001218DF80210B9
:10558000808A6946A6DFE8E7007800F001007047EE
:1055900008B502F009FD20B10D4A40F2F511FEF701
:1055A000A7FF002000906946012002F07FFB20B198
:1055B000074A40F2FB11FEF79BFF684602F020FC11
:1055C000002804D0024A40F2FF11FEF791FF08BD07
:1055D000708C020010B5104C3A20207000206070D2
:1055E0000B20A0700120E07020710C480168C4F805
:1055F00005108088A4F80900A020E07232202073F2
:105600000C21601CFDF7FAFF60732046BDE81040D6
:105610000E2103F02BB900001A3100208E2A002041
:105620000149085C70470000F49402000649095CD7
:105630004FF0A040D0F81005C84010F0010000D095
:10564000012080F001007047F494020007490B5CD0
:105650004FF0A041D1F804250120984020EA020330
:10566000C1F808351040C1F80C057047F0940200ED
:105670000249085C012101F086BF0000F09402009D
:105680000249085C002101F07EBF0000F094020096
:105690000649095C4FF0A040D0F80405C84010F05E
:1056A000010000D0012080F001007047F09402005A
:1056B0007CB50024084E25460122305D009500236C
:1056C0001146019501F0F4FE641C042CF4D3BDE8EE
:1056D0007C4000F003B80000F094020010B50024F4
:1056E0002046FFF7C5FF641C042CF9D310BD10B58C
:1056F00000242046FFF7C4FF641C042CF9D310BD1E
:1057000010B50246064B4FF0FF3000215C5C94421E
:1057100001D1084610BD491C0429F7D310BD000073
:10572000F494020070B50C4E0C004FF00005306090
:105730000BD0012000F06AF808B1022004E000203C
:1057400000F064F800B10B202070706810B9FEF70B
:1057500092FD0546284670BDA42A002010B5002001
:1057600000F0E2F908B1062806D1012000F0DCF9CA
:1057700008B1062800D1002010BD00002DE9F04737
:105780000D468146FFF7BCFF0446042836D2DFF8F9
:1057900074801B481C4EA8F10C0725B3012D0ED0B8
:1057A000022D2BD104EB440030444578002D25D048
:1057B000B968002922D02846BDE8F047084704EB25
:1057C0004401755C0E44717849B10E4A4FF40041B2
:1057D000093A8068FEF72EFF08B987F80390B17880
:1057E00008F80410E2E78068FEF768FF04EB440164
:1057F000314418F804008D78A842D7D0BDE8F0876E
:10580000F8940200A02A00208C310020FFF70EBF80
:105810000146154810B58088042907D007290FD004
:105820000A291FD1BDE8104003F092B8132176DF9A
:10583000082817D0002815D00CA240F232210DE024
:10584000A0F57F41FF390DD10C48FFF773FA082806
:1058500008D0002806D005A24FF40F71BDE8104013
:10586000FEF746BE10BD0000682A00202E2E5C2EDA
:105870002E5C2E2E5C6D61696E2E6300102F002051
:1058800070B50023042810D20D4D00EB4004012A0E
:1058900002D101290CD00022094E00EB4000304417
:1058A00061B1012906D0022906D00723184670BD30
:1058B0000E30C2B22A55F9E74270F7E78270F5E779
:1058C0008C310020044A014600201279D20702D010
:1058D000084600F04DB87047942A002070B506467F
:1058E0001E480024C0E90161B00720D5002501222F
:1058F00011462846FFF7C4FF6D1C0446042D02D252
:10590000002CF4D013E094B940F2666204211448EC
:10591000FEF716FD04000AD1FEF700FD040006D1D3
:105920000F48104A0021001FFEF748FE0446F0070A
:1059300001D0FFF7BDFE74B909480B4A00210C38AD
:10594000FEF73CFE040006D10548084A012108384C
:10595000FEF734FE0446204670BD0000942A002065
:1059600004950200D15B0200C962020015430200E7
:105970002DE9F05F6A4C054600266078B34618B101
:1059800084F801B000F088FC664F4FF47A694FF458
:10599000C87A4FF00108182D62D2DFE805F0AC0C90
:1059A0000C31404D62676B746B74BE7D7D7D7D7D77
:1059B000ACAFB2B5BEBE0020FFF76AFE00284FF0C4
:1059C000000008D0FFF754FE022D02D14FF4E16031
:1059D00008E0484606E0FFF753FE022D01D1C8203B
:1059E00000E05046410CC0034FF4FA72801841F1B8
:1059F0000001257052000023FDF71EFD01462AE03C
:105A00000020FFF745FE00284FF0000004D0FFF70C
:105A10002FFE4FF44870E5E7FFF732FEDFE7002086
:105A2000FFF736FE00284FF0000002D0FFF720FEFF
:105A3000CFE7FFF725FED4E70020FFF729FE002877
:105A40004FF0000002D0FFF713FE01E0FFF718FE51
:105A5000257041F69A1100223868FEF7EBFD0646E4
:105A600046E00020FFF7F2FD257008E0002051E03D
:105A700025703DE084F801800120FFF7E7FD00225A
:105A800040F6CD41E8E784F801800120FFF7DEFD14
:105A900000224FF48041DFE77868FEF70FFE0646EC
:105AA000D5F1110000D02EB10220FFF7E1FD84F8FE
:105AB00002B01DE0012816D980B2C8214843C117A1
:105AC000C90341EA5041C0034FF4FA72801841F112
:105AD000000152000023FDF7AFFC01460022786868
:105AE000FEF7A8FD06460220FFF7CAFD84F80280F3
:105AF0003046BDE8F09F00F0CFFBB9E700F0CCFBEB
:105B0000B4E700F0C9FB04E000F0C6FB0020FFF79B
:105B1000B7FD0120FFF7B4FDAAE7FFF7E8FDA7E70F
:105B2000942A0020F894020010B5FFF779FD0321B4
:105B300001F007FD002010BDF8B5871C00208DF88E
:105B400000000E4601256846FEF77AFE124C2068DA
:105B50003060D4E90001401AA168091ABE1C06E0B1
:105B600000F058FCD4E90001401AA168091A491C48
:105B70008E42F5D8A1682068084004EB8000C16817
:105B800041F00301C1602068384420609DF80000A6
:105B9000FEF77AFE2846F8BD7436002030B48268DD
:105BA0000468531C8360A154D0E901128A4202D3D5
:105BB00030BC01F0EEBA30BC70470000034803C8A7
:105BC000814201D1012070470020704774360020C7
:105BD00000780221FFF7D2BD05494FF0FF320828B7
:105BE00041F8202002D3084480F848207047000084
:105BF000D4320020F0B54FF0FF3512B10023082653
:105C000001E008230C260C4C05E000BF54F823707B
:105C10007F1C04D05B1CB342F8D32846F0BD261885
:105C20005DB286F8305044F82310002AF5D1E1180F
:105C300081F84800F1E70000D4320020024908440E
:105C400090F9300070470000D43200207047000007
:105C500070B5084C050009D010342168002907D020
:105C600008682060496828468847F6E70834F4E762
:105C700070BD0000C03200202DE9F05F2648416869
:105C8000F1B3DFF898B00E688146DBF80040876812
:105C90008078E11B21F07F45ED1CB0B9DFF88080F2
:105CA0004FF48030C8F84403C8F804031120FDF70E
:105CB00087FD1120FDF78FFD4FF0010AC8F800A005
:105CC0002F2000F0DFFE89F802A0B54200D2354651
:105CD000124BE8193C3320F07F401860DBF80010CD
:105CE0005A46091B21F07F41001B20F07F40C91C50
:105CF00081420FD9106818602F2000F0C3FE00E029
:105D000004E0BDE8F05F1120FDF770BDBDE8F05F75
:105D100002F026BCBDE8F09FC82A0020041501400F
:105D2000001001402DE9F04117880646B81D1446C1
:105D30000D46984202D90C20BDE8F0813188072237
:105D400006290AD34FF4486C4FF6FF73614501D919
:105D5000994202D17088062801D21046ECE76045CE
:105D600001D99842F9D1994203D0984201D0814299
:105D7000F3D80520E85520881221401C80B22080ED
:105D800029542088401C80B220804119308803F0BB
:105D90008EFA2188084480B220804119708803F06F
:105DA00086FA2188084420800020C5E702A24FF42B
:105DB0009571FEF79DBB00002E2E5C2E2E5C2E2EC4
:105DC0005C6D61696E2E630038B54A7A0F4B62B123
:105DD00000220A725969002906D001228DF800209C
:105DE000ADF802006846884738BD0A7A62B19B6800
:105DF0004C68024619462046FEF71CFC0028F3D0EA
:105E0000BDE8384002F042BD5B68F1E7EC310020AC
:105E1000704700002DE9F04100260125144C22E0D6
:105E20006068226900EBC607387805FA00F1114274
:105E300017D08A43226100F073FF02463878E36886
:105E400005FA00F1194002FA00F3994209D1797874
:105E5000012901D0012100E0002151407A6802B1FE
:105E60009047761CF6B220788642D9D3BDE8F081FF
:105E7000B42A00200E4910B50A784C780023A242BB
:105E800012D0521CD2B20A70022A00D10B70084AFA
:105E90000B780C3252F8232002608868104420F0FE
:105EA0007F408860012010BD0360002010BD00000D
:105EB000C82A002030B50446006885B00D468068C9
:105EC00000281CD014216846FDF705FB0195A06849
:105ED0000490207910B101280DD104E001208DF843
:105EE0000000206904E002208DF80000E068000353
:105EF000029060690390206881686846884705B011
:105F000030BD826883881A4003689A5C0A70816891
:105F1000491C81607047C26883881A40036899549D
:105F2000C168491CC160704710B50446C0B2FEF795
:105F300069FC204610BD00000EB515A19DF80800B3
:105F400020F00F00401C20F0F00010308DF8080009
:105F5000082202A87CDF18B1104AAF21FEF7C8FA68
:105F60000020009001901021ADF80400ADF8001061
:105F70004FF4C8703C21ADF80600ADF80210684639
:105F80007ADF002803D0054AB921FEF7B1FA0EBD29
:105F90007A6D795F5541525400000000708C020008
:105FA0000B484A8883889A4211D10A88A2F5206357
:105FB000773B0CD18988C91E8AB2C280054803216B
:105FC0001346008801EB004003A101F0D8BC7047E4
:105FD000682A00209C2B002044617461206C656E4F
:105FE0002069732073657420746F203078255828D9
:105FF0002564290010B50C490C4800F07EFC20B146
:106000000BA240F21A21FEF773FA4021074800F074
:1060100068FC002806D0BDE8104005A240F21D2112
:10602000FEF766BA10BD0000A15F0200FC2E002042
:106030002E2E5C2E2E5C2E2E5C6D61696E2E630002
:1060400070471CB5044668466DDF06210DF101025C
:10605000491E11F0FF01C1F10503505CE054F7D176
:106060001CBD000000B58DB03A208DF80000002066
:106070008DF801000D208DF80200012011498DF8E6
:1060800003008DF804000A68CDF805208988ADF872
:106090000910A0218DF80B1037218DF80C1012215A
:1060A0008DF80D108DF80E000E210DF10100FDF799
:1060B000A5FA8DF80F001021684602F0D7FB0DB04D
:1060C00000BD00008E2A00202DE9F041124E074647
:1060D0000125BD403068FEF7F1FA00280DD10F4CC4
:1060E0002069284207D1384600F01AFE0028E068EF
:1060F00005D0284304E0A8432061BDE8F081A8430F
:10610000E060206928432061A1683068BDE8F04163
:106110000022FEF78FBA000060950200B42A00202A
:106120000146034802888A4200D0002070470000E0
:10613000D83100202DE9FC5F0E008346DDE90C47D5
:10614000C6F1000098469246814600D408460125D3
:1061500003E000BF90FBFAF06D1C5045FADAA84549
:1061600000D9454624B1002E01DB780700D5641E16
:10617000B80702D5B8F1000F0AD0F80708D13CB132
:10618000A54205D220215846641EFFF707FDF6E719
:10619000002E02DA4E462D2102E0780703D52B218E
:1061A0005846FFF7FBFC07F0030002280BD1B8F1BB
:1061B000000F08D13CB1A54205D230215846641EDB
:1061C000FFF7ECFCF6E7CDE900474346524631467F
:1061D000584603F071F8BDE8FC9F000070B50E460C
:1061E0000446007918494FF4A27501EB4010017F75
:1061F0002068A1B14FF4887101F0CAFF4FF490718B
:10620000206801F0C5FF4FF49271206801F0C0FFD3
:106210002946206801F0BCFF0C49206809E04FF4D2
:106220008E7101F0A4FF2946206801F0A0FF084903
:106230002068C0F80413206800F0C0FC3146BDE8B7
:10624000704000F09FBC00002C33002010030200BF
:1062500080000200F0B58488A518944200D8224638
:10626000A41AC288D6189A4200D81346D21A4B886C
:106270000788BB420CD34088834209D88888A04253
:1062800006D3A84204D8C888904201D3B04201D9AD
:106290000020F0BD0120F0BD0A4810B5807860B143
:1062A000002401E0022C06D02046FFF7E1F9641C2F
:1062B000042CF7D310BD0324F6E7BDE81040FFF728
:1062C0000DBA0000942A002003480179C90702D0C2
:1062D0000078FFF74DBB7047942A00200649012043
:1062E000086006480168C1F300410029FAD1044959
:1062F00000208870704700000C0000401804004027
:10630000C0320020F7210180172141800021017156
:106310004171FB2181711B21C17170472DE9F0474B
:10632000394E002780463D46DFF8E090D6F804A0BD
:1063300057E003D00446D0F81C8035E099F80020DF
:1063400002EB4201521CD2B289F8002009EBC101D4
:1063500099F80230091D9A4201D189F80050486825
:106360000A780446012A12D0022A02D0032A3BD11D
:1063700008E002F0E3FC00B10127257434E0057465
:10638000C06900E070680028F9D170602CE0207CC2
:1063900050BB88686060C868A0600869E0604869B0
:1063A000A061F07800B165606268B168184B501A5E
:1063B00020F07F40984202D2A168084406E0881A83
:1063C000A16820F07F40814202D9081A206000E0D5
:1063D000256065600120A56020742046E56102F01B
:1063E0008FFCB8F10000A4D199F8001099F80100D1
:1063F0008142A3D117B97168514502D00120BDE88F
:10640000F0870020FBE70000C82A00208C33002022
:10641000FFFF7F0070B588B0214800F001FA2048E6
:10642000001F064600F0FCF91E4DD5E9014105E0CC
:10643000C0F3891202EB9050641C044404EA01008A
:1064400005EB8000C0688207F2D000200DF1080241
:1064500004EA010305EB8303641CDB6842F8203087
:10646000401C0228F4D3029800F00300012808D051
:1064700002280AD10298032101EB905004EB90040A
:1064800003E00298C0F3831004443046002101AABF
:10649000FCF78BFF002800D06C6008B070BD0000D6
:1064A0008C3A0020743600208AB0FEF799F820B1AB
:1064B0004DA240F26131FEF71BF802F0C5FB182235
:1064C0004D496846FCF7EEFF4C4806904C494FF4A6
:1064D0008070CDE90701099007234A4A06A968465A
:1064E000FEF736F920B1484A40F29321FEF700F852
:1064F000002001F0ADFA20B1434A4FF43371FDF7AB
:10650000F7FF01F02BF941490320FFF7E7F920B12C
:106510003D4A40F2BE21FDF7EBFF01A90020FFF745
:1065200001F920B1384A40F2C121FDF7E1FFFFF740
:106530002FF8FDF78BFBFFF7FFFCFFF75BFD3448FF
:106540000090002469463348FEF782FF20B12E4AAE
:1065500040F20911FDF7CCFFFDF7A8FE1C216846AB
:10656000FCF7B9FF4FF42030CDE900404FF4702024
:10657000029029480590032528488DF80C50069074
:10658000ADF80E408DF810406846FEF7D7FC20B1FC
:106590001D4A40F24111FDF7ABFF21A0FDF7FCFBC6
:1065A000244825A1008805EB004001F0DDF91948D9
:1065B00003213030FEF7DCFB20B10BA240F2773133
:1065C000FDF796FF1F48FDF79FF9FFF703F840F22C
:1065D000D72400BF01F0D0F83EDF0028FAD00A4AE5
:1065E0002146FDF785FFF5E72E2E5C2E2E5C2E2E24
:1065F0005C6D61696E2E6300D8940200E02C00206F
:10660000E02D0020718F0200708C020011580200F2
:1066100031820200E02E0020BD820200AD5D02004A
:106620000D0A554152542053746172743132332132
:106630000D0A00009C2B00205541525420537461D8
:1066400072742100C735020070B5144682880E4668
:1066500005462088111D0144921C994201D8FE2A4A
:1066600001D90C2070BD521C32542088FF21401CDF
:1066700080B2208031542088401C80B22080811953
:10668000288802F014FE2188084480B22080AA885D
:1066900042B1A96841B13044FCF704FF2088A988C1
:1066A00008442080002070BD072070BD2DE9F04710
:1066B000C7880446181D16468946B0FBF7F1B0FBA3
:1066C000F7F207FB12009A193A44D21CB2FBF7F218
:1066D000DDF820A001E02468491E0029FBD13D1A05
:1066E0008846B54216D818E0BAF1000F05D0211837
:1066F00009EB08002A46091D04E0204409EB0801C3
:106700002A46001DFCF7CEFE00202468761BA84414
:10671000B74201D9354600E03D46002EE4D1BDE840
:10672000F087000030B5024669B101F0BFF90021E1
:10673000084C0BE001EB410304EB830315685B8815
:10674000AB4202D11160002030BD491C8142F1D31F
:10675000052030BD542B0020F8B50E4601781446B4
:106760000546012901D1687830B12088821C9A42FF
:106770002DD8012902D006E00720F8BD6978014430
:10678000891C994223D8181A801E87B2ADF8007070
:106790002188B01C084469467DDF0028EDD12878A7
:1067A000022805D1BDF80010B94201D809210AE03C
:1067B0000821012805D16878B84202D8ADF8000058
:1067C00001E0ADF80070BDF80000FE2801D90C20F2
:1067D000F8BD2288401CB0542088401C80B2208024
:1067E00031542088401C2080BDF8001008442080CF
:1067F0000020F8BD10B50A8849888A4203D1FCF709
:106800004BFD012010BD002010BD70B50C460546A3
:10681000FCF725FD002802D061882868084470BD77
:1068200008B501216A46FCF7B3FD009808BD38B5EC
:10683000044600258DF800506846FEF701F82168EF
:106840006268086890420ED9401E08600178238A69
:10685000E26801FB0325227A2168101AC0B20A7986
:10686000824200D208719DF80000FEF70DF828461C
:1068700038BD38B5054600208DF800000C46684646
:10688000FDF7DEFFE868298A201AB0FBF1F12A68DB
:106890001068431C136001709DF80000FDF7F4FFC1
:1068A00038BD10B530B1017A42680368891AC9B29F
:1068B0001A6006E00E2010BD03681A68541C1C60A4
:1068C0001170491EC9B2F7D2006800210171084653
:1068D00010BDC20800F007030120895C9840084001
:1068E000704728B1A1F11702E12A03D307207047AE
:1068F0000E20704701800020704710B560B1016123
:10690000F72120F8021B20F8021BFB2100F8021BD4
:10691000FFF7F8FC002010BD0E2010BD2DE9F0435C
:10692000858895B00C46002D3DD10188DFF8248183
:106930000026DFF82491012724293CD006DC102909
:1069400009D011290CD023296DD150E03A290BD060
:10695000552968D12AE00146204601F0C9FC62E0D1
:10696000A01DFFF7CFFC5EE02246408934F8061FE9
:10697000814200D808466080172800D21720608026
:10698000106970B1607960B1D8E90010CDE90310E9
:10699000ADF80E506088ADF81000136903A91046D9
:1069A00098476671267115B0BDE8F0830146204610
:1069B00001F0ECFC37E0011D342206A8FCF772FD63
:1069C000BDF81800BDF81C2004EBC0014A73226911
:1069D0004AB3D8E90432CDE90432ADF81200487B5D
:1069E0008DF814002269204604A990471BE0049604
:1069F000059630F8041F04EBC1020179127B8A422C
:106A000000D21146ADF81010ADF812100088002227
:106A100004A990DF020006D0B9F800000F4907EB87
:106A2000004000F0A5FFA07A0028BCD0E1882846ED
:106A30009EDF02000BD0112AB5D0B9F8000015B0C6
:106A400007EB0040BDE8F043054900F091BFA67296
:106A5000E772A8E724950200542B002080980200DA
:106A6000F897020000F180400068002800D0012063
:106A7000704708B500F18040002101600068009077
:106A800008BD000000283ED01F49204A096800BF09
:106A900000BF00BF00BF00BF00BF00BF00BF9142EA
:106AA0002FD000BF00BF00BF00BF00BF00BF00BFAE
:106AB00000BF00BF00BF00BF00BF00BF00BF00BFDE
:106AC00000BF00BF00BF00BF00BF00BF00BF00BFCE
:106AD00000BF00BF00BF00BF00BF00BF00BF00BFBE
:106AE00000BF00BF00BF00BF00BF00BF00BF00BFAE
:106AF00000BF00BF00BF00BF00BF00BF00BF00BF9E
:106B000000BF0138C3D17047502B00200024F4008F
:106B100070B50F4C0025207808B1852516E00021BE
:106B2000A16061602161E1604FF0E020D0F80001D8
:106B3000012610F0010F03D10721002000F022F8F8
:106B400001F06EFA08B9034806602670284670BD49
:106B5000C03200201805004008B500208DF8000064
:106B60006846FDF76DFE0648C168491EC160C068F1
:106B700008B9FFF7B3FB9DF80000FDF785FE08BDDF
:106B8000C03200204907090E002806DA00F00F0283
:106B900002F1E02282F8141D03E000F1E02282F805
:106BA000001400F01F02012191404009800000F113
:106BB000E020C0F88012C0F800117047000B40B20E
:106BC000704700002DE9F0418846054601F018FCA9
:106BD000234E002828461AD0FFF730F8304490F8AA
:106BE00048008009032802D001280ED007E04FF0AA
:106BF000A040D0F81005E84010F0010F05D00321A7
:106C00002846BDE8F04100F0ADBC0221F8E701F0F4
:106C100003FC002822D02846FFF710F804464FF462
:106C2000807000EB84000F4F81B207EB8400D0F836
:106C3000102542F00102C0F81025084600F0C2FC01
:106C4000B8F1000F0AD02846FEF7F8FF56F82000EA
:106C5000002803D00120A040C7F80403BDE8F0815C
:106C6000D4320020006000402DE9FC41DFF8A48010
:106C7000044608EB0400002790F930001346C017C3
:106C80000E46401C01D0082741E0F2781946204604
:106C9000FEF7B0FF0546401C38D0B07850B14FF039
:106CA000A04000EB8400D0F8001721F00201C0F8EA
:106CB000001707E000217378204600910A460191F1
:106CC00000F008FCF078C0B11348317800EB850083
:106CD000D0F81025114B1A40C0F810254FF4F85287
:106CE0004FF4403302EA042203EA01410A43D0F898
:106CF00010150A43C0F8102509E008EB05003278AA
:106D000010F8481F41EA8211017000E0042738465C
:106D1000BDE8FC81D432002000600040FFE0FCFFB1
:106D20004FF0A041D1F81015C14011F0010000D082
:106D30000120704770B5144D95F8540008B1082033
:106D400070BD0020411E2A18401CC0B282F83010CD
:106D50002028F8D300242046FEF73EFF641CE4B24E
:106D60000C2CF8D307210620FFF70CFF4FF4BE7060
:106D700000F028FC05494FF00040C1F80403012051
:106D800085F85400002070BDD4320020006000401F
:106D9000034890F85400002800D0012070470000FC
:106DA000D43200200121B1EB507F01D10120704786
:106DB000002070472DE9F04105460079164F9046B6
:106DC00007EB40140E46E07E10B10820BDE8F081CC
:106DD000707F20772846FDF771FD5FEA080060604C
:106DE0003169216003D0317F2846FFF7F7F9287910
:106DF00007EB4010007F0028286801D0082100E040
:106E00000421C0F800150020E0752076A07501214E
:106E1000E176A076DAE700002C3300202DE9F0417E
:106E200005460079284E904606EB40140F46207F19
:106E300018B10846FFF7B6FF80B1626800234FF42F
:106E400004704FF4017172B12A7906EB4212127F7D
:106E5000002A2A6805D0C2F8080304E01020BDE823
:106E6000F081C2F80813E27DB2B1227E7AB1626885
:106E70005AB12A7906EB4212127F1AB12968C1F879
:106E8000040302E02868C0F804131120E7E7276133
:106E9000012384F8188005E084F817800020E7605B
:106EA000607620762879424606EB40103946007F0E
:106EB0000028284603D0BDE8F04100F073B8BDE8D3
:106EC000F04100F01BB800002C33002070B50446E0
:106ED0000079094D05EB4010017F00290AD1807E21
:106EE000002807D1204601F0CFFB2179012005EBD6
:106EF0004111887670BD00002C3300202DE9F05F31
:106F000004460079264901EB4015A87E184302D1BA
:106F1000204601F0B9FB68680028206806D04FF4CD
:106F20000171C0F804130020BDE8F09F4FF4A27671
:106F3000314601F01CF9B1464FF4927A4FF4847B4C
:106F40005146206801F00EF906465946206801F0C6
:106F500009F980464946206801F004F9074648EAE5
:106F600007003043ECD056EA070007D129462068D5
:106F700001F014FBE87D697E8842E1D80020E875C5
:106F80000EB10320D0E70FB10F20CDE7A97E01207D
:106F90000029216801D00860C5E74860C3E7000008
:106FA0002C3300202DE9F05F894604464FF48875A4
:106FB0009A46904600260068294601F0E9F84FF409
:106FC000A2773946206801F0E3F82068C0F83495CC
:106FD000C0F838852068BAF1000F14D0D0F800123C
:106FE00041F02001C0F800122179DFF8648008EB3D
:106FF0004110406850B120684FF40471C0F8041388
:107000003046BDE8F09F01210160EDE7AA46B94690
:107010004FF4927B5146206801F0B5F80746494687
:10702000206801F0B0F805465946206801F0ABF839
:10703000014647EA05000843ECD02379002208EB1B
:107040004310C27501B10326002DD9D00F26D7E712
:107050002C3300202DE9F047054600793F4E90463D
:1070600006EB40140F46207F18B10846FFF79AFE42
:1070700030B1284600F074F820B11120BDE8F08747
:107080001020FBE784F81680A7600027A7822879E4
:107090004FF0010806EB40143E46207F0028286888
:1070A00025D04FF49079494601F072F84FF4AC7A4C
:1070B0005146286801F06CF82868A17DA268C0F8E4
:1070C0004425C0F848152868C0F808806068F0B901
:1070D0004946286801F057F880465146286801F073
:1070E00052F858EA0001F3D058BBA7750FE04FF4EF
:1070F0008E7A514601F03BF82868C0F80880214696
:10710000286801F0A9FE61684FF4807089B13046AB
:10711000B4E75146286801F025F810B9A08A48451F
:10712000F7D1A08A484505D02146286801F094FE91
:1071300000E08146A08AA17D8842EAD3A08A484522
:1071400001D10F26D1E75146286801F00BF800283D
:10715000F9D02868C0F80C80C7E700002C33002065
:107160000079044901EB4010807D002800D0012007
:10717000704700002C3300200FB408B50399002994
:1071800004D004AA00926A4600F00FF801B05DF83E
:1071900014FB10B582680446002A05D0D4E9040324
:1071A000216898470020A06010BD2DE9FC4791465A
:1071B0000C00804676D014F8011B39B125290ED079
:1071C0004046FEF7EBFC20780028F4D198F80C003C
:1071D000002867D04046BDE8FC47FFF7DABF002033
:1071E000012221782B291BD02D2902D0302908D14A
:1071F00002E040F0010001E040F00200641C002ABF
:10720000EFD100252A290ED02178A1F130020A2AD7
:1072100011D205EB850201EB4205641C303DF1E71C
:1072200040F00400EAE7D9F800100B1DC9F800305F
:107230000968641C0D44217800232E290BD114F811
:10724000011FA1F130020A2A05D203EB830201EBF0
:107250004203303BF3E76C290DD068290BD0692934
:1072600021D00BDC252918D0582931D063290ED024
:10727000642915D117E014F8011FECE7702969D0D3
:10728000732932D075291BD0782909D120E0D9F88B
:107290000000011DC9F8001001784046FEF77EFC91
:1072A000641C90E76CE0D9F800100A1DC9F80020B2
:1072B0000968CDE900500A224046FEF73BFFEFE7A0
:1072C000D9F800100A1DC9F8002009680A2206E052
:1072D000D9F800100A1DC9F8002009681022CDE96C
:1072E0000050404601F0E8FFDAE7D9F80010002727
:1072F0000A1DC9F800200E68C00705D112E04046FB
:10730000761C7F1CFEF74AFC31780029F7D104E097
:10731000202140466D1EFEF741FCBD42C0D9002D24
:10732000F6D1BDE74EB13046FCF7E0F8074604E081
:10733000202140466D1EFEF731FCBD4206D9002DCE
:10734000F6D103E04046761CFEF728FC3178002990
:10735000F8D1A5E7D9F80000011DC9F800100568AB
:1073600030214046FEF71AFC78214046FEF716FC15
:1073700008200021CDE90001034610222946B0E78C
:10738000BDE8FC872DE9F04128B1016819B1C96950
:10739000BDE8F04108470D4D0D480024461B142759
:1073A0000DE000BF04EB840005EB8000016829B10B
:1073B000C969884710B10120BDE8F081641CB6FBA3
:1073C000F7F0A042EED80020F6E700000000000031
:1073D00000000000044801214174007A08B1002037
:1073E000704701207047000050350020012801D06F
:1073F000032808D10449002201284A7400D0002043
:10740000087401F061B870475035002070B5254C04
:107410000246207A012837D0022841D12248002391
:10742000022A006802D0032A2ED11BE0E360017912
:1074300011B1012928D10DE0D0E90565711B4FF488
:107440008056B14200D33146294481614569A94241
:107450000ED019E00169491C01614269914213D1C2
:10746000237217E0E168491CE16008290CD9E36048
:107470002372022A0ED00D21FEF71CFD0B480A498B
:10748000091D0068FFF7B6F9607C28B1BDE87040BF
:1074900000F0CCBD0021EFE7BDE8704001F014B86A
:1074A00070BD000050350020EC2A002098950200A5
:1074B00070B541EA4201DDE904564FF0A04441EACB
:1074C000830141EA052104EB800041EA0641C0F84E
:1074D000001770BD70B541EA4201DDE904564FF076
:1074E000A04441EA830141EA052104EB800041EA1E
:1074F0000641C0F8001770BD70B541EA4201DDE9F0
:1075000004564FF0A04441EA830141EA052104EB0F
:10751000800041EA0641C0F8001770BD1CB500228A
:107520000B46009211460192FFF7E6FF1CBD1CB509
:10753000002100910B46012201911146FFF7DCFF6B
:107540001CBD4FF0A04202EB8000D0F8002722F4CF
:107550004032C0F80027D0F8002742EA0141C0F8C5
:10756000001770474FF0A04202EB8000D0F80027D0
:1075700022F44032C0F80027D0F8002742EA014147
:10758000C0F80017704701224FF0A043824011B1AC
:10759000C3F808257047C3F80C25704718B5084B89
:1075A0006C4601441B68009306E000BF54F820308D
:1075B000D3F81035401C08C28142F7D818BD00002E
:1075C0005C950200034908B5084400210160006889
:1075D000009008BD0060004002494058012800D0DA
:1075E000002070470060004030B5124B014600207B
:1075F000D3F81044224609E0157A854205D1401C93
:107600000A28F7DB4FF0FF3030BD5268002AF3D173
:10761000421CF9D00872D3F810242AB152684A608B
:10762000D3F81024516030BD0022C3F810144A6012
:1076300030BD0000743600207047FCF731B9704748
:1076400008B5034A00924023024A00F005F808BD3D
:107650009D88020074350020F0B595B01C46154693
:107660000F4608461A9E00F0F1FA182109A8FBF708
:1076700032FF0E96CDE909540023082203A93846AB
:1076800000F0FEFA059806900498ADF81C00002062
:107690008DF820000398082600F00300012802D08E
:1076A00002281DD03CE003983346850AC0F3C2008F
:1076B0008DF81E0003980FA9C0F380008DF81F00FD
:1076C0000398C0F38314A200384600F0D9FA09A841
:1076D000009006AB22460FA9284600F013FA1FE0DF
:1076E0000398840DC0F3C2008DF81E000398C0F308
:1076F00080008DF81F00082C01D2254600E00825E7
:1077000033462A460FA9384600F0BAFA2E44641BC5
:1077100009AB06AA29460FA800F044F9002CEAD1CB
:10772000384600F09CFA15B0F0BD00000A4A012965
:1077300002EBC00007D0022907D0032907D0042993
:1077400007D000207047022070470420704700795E
:107750007047407970470000E49E020010B5FFF7C3
:107760006CFF04210348FFF73FFF024901204872E4
:1077700010BD0000F82A00202DE9F04F8DB0FEF773
:107780001DFA18B100200DB0BDE8F08F744800213B
:10779000C0F81814BFF34F8FD0E9014604EA060180
:1077A00000EB81014FF000090AE000BFC1F389122C
:1077B00002EB9151641C0C4404EA060100EB8101C8
:1077C000C9688A07F2D0002103AA804604EA0600AD
:1077D00008EB8000641CC06842F82100491C434645
:1077E0000229F3D3039800F00300022806D00128F1
:1077F00003984FD0C04380077ED0ACE0039850225E
:10780000810D8A46B2EB905F00D850210D4665F39A
:107810009F5003900831534800F0CFF907006CD017
:1078200000F014FA4B46082203A9384600F02EFA5D
:1078300004EA0601701A8000001D09F1080B854258
:1078400021D9474E0C3630B1C2B208EB8101281A5B
:1078500091460C3104E03146EAB2002691463046AA
:10786000C5B25B46384600F011FA0BEB09032EB1A6
:107870002A4631464FEA070000F008FA0AF10300F1
:1078800004EB90043BE008EB81015B462A46384656
:107890000C31F1E7C0F38310062800D306200399CA
:1078A00060F38911C1F38310801C039181002D487E
:1078B00000F083F907004ED000F0C8F94B460822CB
:1078C00003A9384600F0E2F909F1080900250DE0A6
:1078D00004EA060008EB80014B46042238460C31CE
:1078E000641C00F0D3F909F104096D1C0398C0F37E
:1078F0008310A842ECD801E00BE02CE05FB3D8F88D
:107900001054D8F81804464690B1384600F0A7F94C
:1079100021E0D3F8180400283FF435AF1BE0687A63
:10792000012804D1296828460A68394690476D68BD
:10793000002DF4D1384600F092F900208DF80000B7
:107940006846FCF77DFFD6F8180400B974609DF80E
:107950000000FCF799FFFEF731F980F0010012E713
:1079600074360020B896020000231A4601F0A0B831
:1079700008B5012300926A4601F09AF808BD1CB5CB
:10798000CDE9002302236A4601F092F81CBD7FB5C1
:10799000DDE908458DE83C0004236A4601F088F8DB
:1079A0007FBD00002DE9F0470E4680461C469246FA
:1079B00008293ED894F80C900020207319461046F0
:1079C00000F054FD0025B54206D218F805201AA192
:1079D0002046FFF7D1FB03E019A12046FFF7CCFBBF
:1079E0006D1C082DEFD317A12046FFF7C5FB00251E
:1079F000B54210D218F80570FBF750FD0068C05D65
:107A000010F03E0F01D03A4600E02E220EA1204693
:107A1000FFF7B2FB03E00DA12046FFF7ADFB6D1CA5
:107A2000082DE5D301222146504600F001FD84F8DF
:107A30000C90BDE8F087000020253032780000006F
:107A4000202020007C0000002563000020000000B2
:107A5000114810B5FF218160002101604160C0F82C
:107A60001814C0F8141480F81C140C4800F0F5F831
:107A700000280FD10A480B490B4B401AC1080020BF
:107A800005E000BF00EB400223F82200401C8842C2
:107A9000F8D3002010BD000074360020B896020014
:107AA000349F0200E49E0200542B00200248034948
:107AB000401AC00870470000349F0200E49E020094
:107AC00013B56846FEF72EFE08B100201CBD024823
:107AD000009950F831001CBDE49E020070B50848C2
:107AE0000125D0F8104480F81C5405E06572216827
:107AF0002046496888476468002CF7D170BD0000B3
:107B0000743600202DE9FF4781460C9D00200C466D
:107B10002F7B2873984616462946184600F0A6FC87
:107B2000072E42D2DFE806F004090F161F2A36009E
:107B300049462846FFF720FB37E049462846226899
:107B4000FFF71AFB31E0D4E9002349462846FFF746
:107B500013FB2AE0A0680090D4E900234946284698
:107B6000FFF70AFB21E0D4E90201CDE90001D4E9E5
:107B7000002349462846FFF7FFFA16E004F1080003
:107B800007C88DE80700D4E9002349462846FFF7D7
:107B9000F3FA0AE004F108000FC88DE80F00D4E9F9
:107BA000002349462846FFF7E7FA002229464046C7
:107BB00000F03EFC2F73BDE8FF872DE9F041058AF8
:107BC00080462D1F4819C01CB0FBF5F0C6B24046D8
:107BD000FEF72DFE040019D00020207101206071F5
:107BE000E58000272546761EC4F800800BE040465D
:107BF000FEF71DFE60B16179491C61712860054680
:107C00007F1CC0F80080B742F1D32046BDE8F08168
:107C1000204600F002F80020F8E72DE9F041457910
:107C200001466B1E002201E00968521C9A42FBD3F8
:107C30000F680146002605E038460C68FEF719FE7D
:107C40002146761CAE42F7D3BDE8F08108B501218C
:107C50006A46001DFBF775FB08BDFEF722BE38B56E
:107C60000446001D01216A46FBF778FB009810F0DE
:107C7000FF0F04D12046BDE83840FFF7CEBF38BD26
:107C800038B501240094FEF711FD38BD38B5002445
:107C90000094FEF70BFD38BD20B10349096801606F
:107CA000002070470E207047449702002DE9FE43E4
:107CB00006460D460846FFF7EFFF00287ED18046B6
:107CC000CDF80080CDF80480012403208DF80060F9
:107CD000ADF80400CDF808808DF8024069462020F8
:107CE0002A6869DF3F4F40B100F032FA0246388817
:107CF0003D4904EB0040FFF73BFECDF800808DF8D6
:107D000000408DF80180CDF80480CDF808808DF812
:107D10000280694640202A6869DF40B100F018FA05
:107D200002463888314904EB0040FFF721FECDF8C8
:107D300000808DF80060F720ADF80200CDF80480D7
:107D4000CDF80880694623202A6869DF40B100F039
:107D5000FFF902463888264904EB0040FFF708FE89
:107D6000CDF80080CDF80480CDF808808DF8004073
:107D70004646694601202A6869DF40B100F0E8F90B
:107D8000024638881B4904EB0040FFF7F1FD4FF431
:107D9000B0600090019602966946A1202A6869DFCA
:107DA00040B100F0D5F902463888134904EB004091
:107DB000FFF7DEFD00960196029600E010E08DF8D8
:107DC00000606946A0202A6869DF40B100F0C0F970
:107DD00002463888094904EB0040FFF7C9FD00203E
:107DE000BDE8FE83B42B00208C9D0200D49D0200D0
:107DF000209E0200EC9C0200389D0200989C02002C
:107E00002DE9F0410446D0F800E060DF2368144D0E
:107E10000646734515D02888022707EB00407246B6
:107E200010A1FFF7ACFDF806D0F80C012168800224
:107E300000F10050421A288816A107EB0040FFF716
:107E400097FD56B1304600F083F90246288801219B
:107E500001EB004018A1FFF78BFD3046BDE8F08133
:107E6000B42B002052414D207374617274732061F1
:107E70007420307825782C2063616E206265206143
:107E8000646A757374656420746F20307825782E69
:107E90000000000052414D2073697A652063616ED5
:107EA0002062652061646A757374656420746F2054
:107EB000307825782E00000073645F626C655F6522
:107EC0006E61626C6528292072657475726E6564D6
:107ED0002025732E0000000030B5EBB04FF4CE74B7
:107EE000ADF8A8416AA9684661DF48B1052818D0F5
:107EF0006BB00DA2BDE8304040F22111FCF7F8BA9A
:107F00006D46194967A800F0DFF806E0D0E90021C6
:107F10002846904767A800F0EEF869980028DFD05F
:107F2000F4E76BB030BD00002E2E5C2E2E5C2E2EA2
:107F30005C2E2E5C2E2E5C2E2E5C636F6D706F6E31
:107F4000656E74735C736F66746465766963655C93
:107F5000636F6D6D6F6E5C6E72665F7364685F6297
:107F60006C652E63000000004897020010B50D4CB0
:107F70002078A0B10120A07000F0E2FB11280CD005
:107F8000022000F0F5FB11DF002807D12070A0705F
:107F900000F00AFD032000F0EBFB002010BD0820DC
:107FA00010BD00004C2B002038B5114C207808B1D2
:107FB000082038BD0125A570002000F0C1FB112864
:107FC00014D0002000F0D4FB0A480B490068009050
:107FD000684610DF0028ECD12570A070607000F0BA
:107FE000AFFD00F01DFD012000F0C2FB002038BDF8
:107FF0004C2B0020DC960200B14302000EB507496D
:10800000684600F061F805E0D0E90010884768464E
:1080100000F071F802980028F6D10EBDF896020023
:1080200001480078704700004C2B002005488178FB
:1080300019B1007818B1FFF799BF08207047FFF712
:10804000B3BF00004C2B00201FB5684648DF40B18D
:10805000052816D004B00BA2BDE810406B21FCF738
:1080600047BA184901A800F02FF806E0D0E900212E
:108070000098904701A800F03EF803980028E4D04B
:10808000F4E71FBD2E2E5C2E2E5C2E2E5C2E2E5C59
:108090002E2E5C2E2E5C636F6D706F6E656E74732A
:1080A0005C736F66746465766963655C636F6D6D40
:1080B0006F6E5C6E72665F7364685F736F632E636E
:1080C0000000000064970200016009684160AFF39E
:1080D000008010B5D0E900215368994201D10021F8
:1080E00004E0D1E90034A34202D01946816010BDFA
:1080F00008314160F0E7816800290BD0026892687E
:108100000A44826041684B689A4203D10831416059
:10811000FFF7DFBF704700000C4A10B502F1F00313
:108120000EE0991AC91001EBD171491002EBC1019F
:108130000C68844201D90B4602E005D201F1080225
:108140009A42EED3002010BD486810BDBC950200D5
:1081500000B5FFF7E1FF002800D1014800BD000095
:10816000A89502004058002800D00120704708B5AB
:10817000002242504058009008BDD0F80403084047
:1081800000D0012070474058002800D001207047DF
:1081900008B5002242504058009008BD30B50A464C
:1081A00099B001466846FBF77DF99DF800003A2832
:1081B0001FD1154C9DF802006D4620709DF80B10E4
:1081C0009DF80C20401C42EA112161809DF80410AA
:1081D0002171C1B2681CFBF711FA2278A91C515C0D
:1081E000884208D0A95C09A0FBF7D6FD0CA0FBF7DC
:1081F000D3FD19B030BD0D480368002BF9D060885D
:108200000DF10D019847F4E7882A0020206461747D
:10821000615F627566666572206372632025640023
:10822000435243204552524F52000000802A002002
:1082300070B505460078002814D100240A4E08E0E5
:10824000A8682146025D325508A0FBF7A5FD641C15
:10825000E4B2A889A042F3D8297BBDE87040024867
:10826000FFF79CBF70BD0000E82F002064617461BF
:108270005B25645D203078253032780D0A000000DF
:1082800010B568B103280FD10220FDF71BFB0028B1
:108290000AD0BDE8104005A24FF4B371FCF728B92D
:1082A000BDE8104000F054BB10BD00002E2E5C2E27
:1082B0002E5C2E2E5C6D61696E2E630000780028A6
:1082C0000AD106483B21808876DF002804D004A22A
:1082D00040F21F11FCF70CB970470000682A00201B
:1082E0002E2E5C2E2E5C2E2E5C6D61696E2E630030
:1082F0002DE9FC418E88027900EBC605AC1D2A737E
:10830000C97B012902D0022904D101E0008800E0E4
:1083100040882080218860880127DFF864808142BE
:108320000CD930469EDF020025D0112A25D0B8F89E
:108330000000144907EB0040FFF71AFBA079E17930
:10834000884216D9002000900190287BADF80000EB
:10835000287BADF8020000226946304690DF03001A
:1083600007D0B8F80000324607EB00400649FFF797
:1083700006FBBDE8FC816771E0E72771DEE70000DE
:10838000542B0020F8970200C89802007CB50646DE
:108390008D88C88806EBC504A41D172800D21720B5
:1083A0002188814200D80846608000202071218801
:1083B0002846ADDF020007D00E480121008801EBFE
:1083C00000400D49FFF7D4FA6079002810D13069D8
:1083D00000280DD00948D0E90210CDE90010ADF811
:1083E00002506088ADF80400326969463046904713
:1083F0007CBD0000542B00203C9802002495020014
:108400000449084490F93000082801DB0120704736
:1084100000207047D43200200449084490F930000D
:10842000082801D20120704700207047D432002074
:1084300010B50C46C17949B11AB109A12046FEF721
:108440009BFE2046BDE81040FEF7A3BE007A002840
:10845000F3D0044804A102682046FEF78DFEECE745
:108460000D0A0000282B00202573000070B504467B
:10847000C0790D4600281CD1207A50B1A179A0887E
:10848000FFF754F90B4951F820200BA12846FEF7BD
:1084900073FEA0880021FFF713FB03460549A0796E
:1084A000143951F820202846BDE8704003A1FEF79A
:1084B00063BE70BD282B0020257300003C25733E51
:1084C0002025733A200000002DE9F041214C0025C1
:1084D000214E207A012730B92048311D0068FEF76F
:1084E00094F9306038B1022020723168087928B1DF
:1084F00001281ED116E06560BDE8F081D1E90503D1
:10850000C01A4FF48052904200D31046B7EB900F40
:1085100001D2820800E001220869C96818441944A0
:1085200029DF03E0D1E90301084428DF38B111282D
:108530000ED003213068FDF7BDFC2572DBE7207CFF
:108540000028D9D1BDE8F04100210220FEF75EBF2E
:108550002772D1E750350020EC2A002098950200C0
:1085600070B5012670044FF0E0210025C1F88001AC
:10857000084C4010C4F84803C4F8080366602F2074
:10858000FEF780FAA660044C2F20A560FEF77AFA69
:10859000A57070BD00100140C82A002070B50546C6
:1085A000C87D0C4600284FF4847128460AD0FFF796
:1085B000DEFDD5F81805627EE1688854607E401CB7
:1085C000607670BDFFF7D3FDD5F8180570BD30B5E6
:1085D0008FB005461C216846FAF77DFF00249DF800
:1085E0000000019440F00C008DF800000394049406
:1085F0000594069428788DF836000220ADF83400F2
:108600000C949DF83000142120F00F00401C20F045
:10861000F00010308DF830009DF8310020F00F0090
:10862000401C20F0F00010308DF831009DF8320031
:1086300020F00600801C20F0180040F001008DF8AA
:10864000320007A8FAF747FF0DA807900CA808907A
:108650000120ADF82400F420ADF82640ADF8280044
:10866000688805F10C0307AA6946A2DF0FB030BD88
:108670001FB501238DF800308DF808100192D0E964
:108680000012684690471FBD10B5044600684FF4BD
:108690009271FFF76CFD4FF484712068FFF767FD5E
:1086A00020680121016010BD70B50D460446FBF73E
:1086B00093FB70B12846FBF7A1FB68B16807000E79
:1086C000002C0CDA04F00F0101F1E02181F8140D07
:1086D00009E042F2010070BD42F2020070BD04F1F7
:1086E000E02484F80004002070BD000038B50021AB
:1086F000012558B101280ED003280BD107210020F5
:10870000FEF740FABDE83840FEF726BA4FF0E02009
:10871000C0F8805138BD8DF800106846FCF790F81D
:10872000064C207808B9FEF7F3F9E068401CE060D9
:10873000A5709DF80000FCF7A7F838BDC0320020F6
:108740003EB5044609496846FFF7BEFC08E000BF95
:10875000D0E900212046904730B16846FFF7CBFCB6
:1087600002980028F4D13EBD11203EBDE0960200E3
:108770003EB5044608496846FFF7A6FC07E000BF7F
:10878000D0E90021204690476846FFF7B4FC0298E4
:108790000028F5D13EBD0000EC96020070B500281F
:1087A000049D18D0002916D0002A14D05FF00004D0
:1087B00030F814609E420FD100200123A34008E04E
:1087C00001EB800426680DB11E4300E09E43401C6F
:1087D00026609042F4D370BD641C202CE8D370BD99
:1087E00070B5054600242146284600F00AF808B175
:1087F000204670BD641CA4B2202CF4D34FF6FF7049
:1088000070BD01228A40024201D001207047002041
:1088100070472DE9F04192B080464FF000001746B6
:108820000D00009012D000246E46A1B23846FFF72A
:10883000E8FF40B1009935F8140006EB410188804B
:108840000098401C0090641C202CEED34422694602
:108850004046FAF727FE12B0BDE8F08108B5009354
:1088600013460122FFF79AFF08BD00000EB5002253
:108870000092ADF800100192029201466A46024849
:10888000FCF75EFE0EBD0000E02E00200249896963
:10889000002900D008477047EC3100202DE9F04155
:1088A00014000F460DD000250A2679192246002013
:1088B000FAF7F8FF0544241A08B9761E01D0002CF7
:1088C000F3D1BDE8F08100002DE9F0410746806A50
:1088D00014468846C8B3002531E000BFB96A05EBED
:1088E000450001EB8006B088801CFE2802D90C20D0
:1088F000BDE8F0812288401C08F80200208816227A
:10890000401C80B2208008F800202088401C80B2E3
:10891000208000EB0801308800F0C9FC2188084461
:1089200080B22080B28842B1B16871B14044FAF798
:10893000B9FD2088B188084420806D1CEDB297F8FD
:108940002C00A842CAD80020D2E7FFE70720CFE7D3
:1089500010B50020FCF7B6FF20B10CA24FF4A671B1
:10896000FBF7C6FDFCF7FAFE20B108A24FF4A87190
:10897000FBF7BEFD32DF002806D0BDE8104003A2A1
:108980004FF4AA71FBF7B4BD10BD00002E2E5C2E73
:108990002E5C2E2E5C6D61696E2E6300002801D165
:1089A000FDF756B97047000010B51620FBF714FA12
:1089B00048B10B4882684FF4800162B1016821F42C
:1089C0008001016010BDBDE8104042F2010005A227
:1089D000A521FBF78DBD4FF0E020C0F8801110BD40
:1089E000B83400202E2E5C2E2E5C2E2E5C2E2E5C9B
:1089F0002E2E5C2E2E5C636F6D706F6E656E7473C1
:108A00005C736F66746465766963655C636F6D6DD6
:108A10006F6E5C6E72665F7364682E6300000000A8
:108A200010B51620FBF7D8F980B1104890F8000473
:108A30004009FBF7E3F960B10D4882684FF480010B
:108A40007AB1016841F48001016010BD42F2010079
:108A500001E042F20200BDE8104006A29921FBF7B6
:108A600047BD4FF0E020C0F8001110BD16E000E057
:108A7000B83400202E2E5C2E2E5C2E2E5C2E2E5C0A
:108A80002E2E5C2E2E5C636F6D706F6E656E747330
:108A90005C736F66746465766963655C636F6D6D46
:108AA0006F6E5C6E72665F7364682E630000000018
:108AB0002DE9F843214C8846054691461F466946F4
:108AC0001846A668FDF738F870B30098811C00229C
:108AD0000AE000BF01EA060C59F8223004EB8C0CC6
