:020000040002F8
:10300000085D0020B1340200B9340200BB34020074
:10301000BD340200BF340200C134020000000000D1
:10302000000000000000000000000000C3340200A7
:10303000C534020000000000C7340200C934020099
:1030400015390200CB340200213D0200CB340200CE
:10305000CB340200CB3402003D370200CB340200F7
:10306000CB340200CB340200CB340200CB3402005C
:10307000CB340200CB340200CB340200CB3402004C
:10308000CB3402006D390200CB340200CB34020095
:10309000F1390200CB340200F5390200CB340200D2
:1030A000CB340200CB340200CB340200CB3402001C
:1030B000CB340200CB34020000000000000000000E
:1030C000CB340200CB340200CB340200CB340200FC
:1030D000CB340200CB340200CB34020000000000ED
:1030E00000000000000000000000000000000000E0
:1030F00000000000000000000000000000000000D0
:1031000000000000000000000000000000000000BF
:1031100000000000000000000000000000000000AF
:10312000000000000000000000000000000000009F
:10313000000000000000000000000000000000008F
:10314000000000000000000000000000000000007F
:10315000000000000000000000000000000000006F
:10316000000000000000000000000000000000005F
:10317000000000000000000000000000000000004F
:10318000000000000000000000000000000000003F
:10319000000000000000000000000000000000002F
:1031A000000000000000000000000000000000001F
:1031B000000000000000000000000000000000000F
:1031C00000000000000000000000000000000000FF
:1031D00000000000000000000000000000000000EF
:1031E00000000000000000000000000000000000DF
:1031F00000000000000000000000000000000000CF
:10320000DFF80CD000F0F0F900480047C16502007B
:10321000085D002030B450E8012F93B2C4892344E4
:103220008489A34228BF1B1B0489A34202BFBFF3AA
:103230002F8F002007E0C3EA020340E80134002C8E
:10324000E9D14FF001000A6030BC704750E8012F0F
:10325000C2EA024240E801210029F7D1704730B4A8
:1032600050E8022F1FFAA2F3C488A34202BFBFF3A3
:103270002F8F00200DE0C48923448489A34228BFF6
:103280001B1BC2EA034340E80234002CE8D14FF094
:1032900001000A6030BC704750E8022FC2EA2242A7
:1032A00040E802210029F7D17047034653E8022F76
:1032B000D988B2EB324F4FF0000017BF92B241EA0B
:1032C000014142EA014104E05A68B2EB324F08BFC3
:1032D000012043E80212002AE8D1704730B40446C6
:1032E00054E8000F0D4644E80053002BF8D1156058
:1032F00030BC704730B4044654E8000F40EA010582
:1033000044E80053002BF7D1156030BC704730B44F
:10331000044654E8000F00EA010544E80053002B7E
:10332000F7D1156030BC704730B4044654E8000F44
:1033300080EA010544E80053002BF7D1156030BC4A
:10334000704730B4044654E8000F00EB010544E830
:103350000053002BF7D1156030BC704730B40446E1
:1033600054E8000FA0EB010544E80053002BF7D10F
:10337000156030BC7047000030B4044654E8000FBC
:103380000D4644E80053002BF8D1156030BC70475F
:1033900030B4044654E8000F40EA010544E8005305
:1033A000002BF7D1156030BC704730B4044654E8A8
:1033B000000F00EA010544E80053002BF7D1156027
:1033C00030BC704730B4044654E8000F80EA010571
:1033D00044E80053002BF7D1156030BC704730B47F
:1033E000044654E8000F00EB010544E80053002BAD
:1033F000F7D1156030BC704730B4044654E8000F74
:10340000A0EB010544E80053002BF7D1156030BC58
:103410007047000030B4044654E8000F0D4644E8FD
:103420000053002BF8D1156030BC704730B404460F
:1034300054E8000F40EA010544E80053002BF7D19F
:10344000156030BC704730B4044654E8000F00EA01
:10345000010544E80053002BF7D1156030BC7047DC
:1034600030B4044654E8000F80EA010544E80053F4
:10347000002BF7D1156030BC704730B4044654E8D7
:10348000000F00EB010544E80053002BF7D1156055
:1034900030BC704730B4044654E8000FA0EB01057F
:1034A00044E80053002BF7D1156030BC7047000092
:1034B0000648804706480047FEE7FEE7FEE7FEE7CE
:1034C000FEE7FEE7FEE7FEE7FEE7FEE7053A02005D
:1034D000013202002DE9F05F0546002092469B462E
:1034E00088460646814640241BE02846414647461A
:1034F000224600F068F853465A46C01A914110D34C
:1035000011461846224600F04FF82D1A67EB0108C5
:103510004F4622460120002100F046F817EB000933
:103520004E41201EA4F10104DFDC484631462A4604
:103530004346BDE8F09F000000487047C89802006D
:1035400040EA01039B0703D009E008C9121F08C025
:10355000042AFAD203E011F8013B00F8013B521EA5
:10356000F9D27047D2B201E000F8012B491EFBD21C
:1035700070470022F6E710B513460A46044619467E
:10358000FFF7F0FF204610BD421C10F8011B002978
:10359000FBD1801A7047034611F8012B00F8012B6C
:1035A000002AF9D118467047202A04DB203A00FA95
:1035B00002F1002070479140C2F1200320FA03F38A
:1035C000194390407047202A04DB203A21FA02F088
:1035D0000021704721FA02F3D040C2F1200291404D
:1035E0000843194670470000064C074D06E0E068A6
:1035F00040F0010394E8070098471034AC42F6D33A
:10360000FFF702FE989F0200B89F020070B58C1869
:1036100010F8015B15F0070301D110F8013B2A11E6
:1036200006D110F8012B03E010F8016B01F8016BD3
:103630005B1EF9D12B0705D40023521E0DD401F8CF
:10364000013BFAE710F8013BCB1A921C03E013F898
:10365000015B01F8015B521EF9D5A142D8D30020CD
:1036600070BD000070B515460E46322824D00ADC25
:1036700023282EDA20282CD022282AD1BDE8704019
:10368000012002F083BD35280ED0372810D039280C
:103690001FD040281DD1E9B2304602F0E9FB0DA051
:1036A00000F0F2FB002412E0BDE8704002F0FEBA28
:1036B000BDE8704002F07CBDBDE8704002F0B6B8D5
:1036C000325D214604A000F0DFFB641CE4B2AC4292
:1036D000F6D370BD6F6B00000D0A646174615B25E9
:1036E000645D3A30782530327800000070B5124AB7
:1036F000002414701AE000BF10F8013B537094705E
:103700001378557883EA0506F60705D083F0180389
:103710005B0843F0800300E05B0813706B08537094
:1037200093785B1CDBB29370082BE9D3491EC9B2B6
:10373000E2D2107870BD00008C2700202DE9F04700
:1037400000268CB0DFF86091B0464FF480750124FC
:1037500037460696284603F00FFF38B1D9F8040320
:10376000204203D0284603F0FDFE26432D1D6400B1
:103770007F1CADB2082FEDD34FF4BE74204603F08A
:10378000FBFE48B1204603F0EDFE46F0004606AAD7
:103790000121002003F0D2FE444D16F0FF0F15D09A
:1037A0000127002437420DD009EB8401D1F8100520
:1037B000D1F81015C0F3042055F82420C1F30141BD
:1037C00002B190477F00641C082CEBD3002E67DA0F
:1037D0004FF0FF30CDE9088000263446281910F854
:1037E000507F90F9000027F0C008401C44D009A980
:1037F000404603F018F958B34FEA9719404602F0D3
:103800004DFA55F820701FB1B9F1030F03D00FE046
:10381000B9F1030F30D108A84FEAD80208F0070326
:10382000815C4FF0010C0CFA03FC41EA0C0181545D
:103830004FF0A04101EB8800D0F8000706A9C0F3C3
:10384000014A404603F0EFF818B1BAF1020F03D075
:1038500012E0BAF1030F0FD1B9F1030F08D1BAF199
:10386000020F1BD00221404603F036FE761CF6B252
:1038700017B149464046B847641C042CAED3002E0D
:103880000ED06A460121002003F058FE06990098E8
:10389000884205D00690089809909DE70321E2E749
:1038A0000CB0BDE8F08700000060004090320020BE
:1038B00000F01F02012191404009800000F1E0204A
:1038C000C0F88012704700F01F02012191404009AA
:1038D000800000F1E020C0F80011704700F01F02E6
:1038E000012191404009800000F1E020C0F8001261
:1038F00070474907090E002806DA00F00F0000F1B2
:10390000E02080F8141D704700F1E02080F80014DA
:10391000704700002DE9F0414FF48077384603F0FE
:103920004BF90124104EA50748B1384603F04BF976
:103930000120C5F808037470002002F0B9F94FF4B3
:103940008277384603F038F900280BD0384603F068
:103950003AF90220C5F80803B470BDE8F04101202F
:1039600002F0A6B9BDE8F0817C32002007480021B2
:10397000C0F84011C0F84411C0F84811C0F84C110B
:10398000C0F80011C0F8041105F0A4BA00100140FD
:1039900000F0ECB970B50E46144900EB400001EBA5
:1039A000C0051446E86A183520B101280FD0022856
:1039B00005D113E0284600F00DFAA04201D2002400
:1039C00011E022463146284600F03CFA0BE028463A
:1039D00000F000FAA042F4D20446F2E7314628464D
:1039E00000F003FA0446204670BD00003C3A002077
:1039F00005F0BEB904F0F8BA01490860704700004C
:103A000088270020F0B5B5480023021D0178101D5D
:103A100001254FF0805406290BD11678360708D1BE
:103A20000678C6F30316032E06D0042E04D0052E06
:103A300002D0062907D00EE0B4F82463A84FC6F3DD
:103A400004263E6002E01678360704D10678C6F3F5
:103A50000316032E02D0062904D00FE0A24FA14E78
:103A60007E670EE01678360708D10678C6F303168F
:103A7000032E06D0042E04D0052E02D0062907D02E
:103A80000EE0D4F84462994FC6F342363E6002E03D
:103A90001678360704D10678C6F30316032E02D033
:103AA000062906D011E0924E376827F080773760FC
:103AB0000EE01678360708D10678C6F30316032EF3
:103AC00006D0042E04D0052E02D006290AD011E01B
:103AD0004FF08046C6F80C31C6F81031834E361FC1
:103AE000336002E01678360704D10678C6F3031671
:103AF000032E02D0062905D00CE07C4F0326643744
:103B00003E600AE01678360704D10678C6F303163D
:103B1000032E02D006290DD014E0764F05263E6014
:103B2000744E78363560734E083633603F263F1D3D
:103B30003E6002E01678360704D10678C6F3031615
:103B4000052E02D0062957D062E06B4E36686B4FC7
:103B50003E60694E361D36683F1D3E60664E083633
:103B600036683F1D3E60644E0C3636683F1D3E6031
:103B7000614E103636683F1D3E605F4E1436366823
:103B80003F1D3E605C4E183636685C4F20373E6005
:103B9000594E1C3636683F1D3E60574E20363668FB
:103BA0003F1D3E60544E243636683F1D3E60524EE7
:103BB000283636683F1D3E604F4E2C3636683F1D16
:103BC0003E604D4E303636684C4F40373E604A4E70
:103BD000343636683F1D3E60474E383636683F1DE6
:103BE0003E60454E3C3636683F1D3E60424E403694
:103BF00036683F1D3E6002E01678360708D1067829
:103C0000C6F30316032E06D0042E04D0052E02D0D0
:103C1000062907D019E0D4F85812394A01F04F01AB
:103C2000116002E0117809070FD10078C0F303108A
:103C3000032803D0042801D0052806D131480168A3
:103C4000C90702D06FF001010160D4F830010628E5
:103C500008D1D4F83401062804D12B48016841F476
:103C60008061016022487438016841F4700101608C
:103C7000BFF34F8FBFF36F8F4FF01021D1F80002C9
:103C8000002803DBD1F80402002822DA1F4A15605D
:103C90001F480468002CFCD01524C1F800420568B8
:103CA000002DFCD0C1F8044201680029FCD013604B
:103CB00001680029FCD0BFF34F8F0D48F038016830
:103CC000144A01F4E06111430160BFF34F8F00BF5C
:103CD000FDE7124910480860F0BD0000E00F00F059
:103CE000403501400DF0ADBA00C007403C05004032
:103CF000FCED00E0105600400404001020C5004018
:103D0000E40E0040000400403C17004004E5014080
:103D100000E401400400FA050090D003542800207C
:103D20000448017F04480029024901D005F0B5BAD2
:103D300005F024BAE83200200020004070B50748A2
:103D400002F025FA054D002405A0295D00F09CF83D
:103D5000641CE4B2062CF7D370BD00009627002047
:103D6000307825303278203A2000000010B5124C0F
:103D700002202061606111A0A06104F17800E0617F
:103D80004FF4007020620020A06260620BA1A16469
:103D9000E06204F51E71E1641021A065C4E914100D
:103DA000E06509A1E01DFFF7F6FB08A12046FFF73B
:103DB000F2FB2020A07110BD3C3A00205465726DCA
:103DC000696E616C0000000052545400534547472F
:103DD000455200000269C1688A4203D88068401ACF
:103DE000104400E0501A401E70472DE9F047C468A7
:103DF0001746894606464FF000083069A04201D9AF
:103E0000051B02E0B168201A0D1AB0686D1E001B78
:103E1000A84200D80546BD4200D33D4670682A46F8
:103E200020444946FFF78CFBB0687F1B2C44A84414
:103E3000A944A04200D10024F460002FDDD1404607
:103E4000BDE8F0872DE9F04104468846D4E9020731
:103E5000C51BE168606816460844B54206D941466C
:103E6000FFF76EFBB819E060BDE8F0812A464146D5
:103E7000FFF766FB761B08EB050132466068FFF72B
:103E80005FFBE660F0E700000FB4054B10B503A937
:103E9000044A029800F036F810BC5DF814FB0000EC
:103EA00075600200F027002002E008C8121F08C158
:103EB000002AFAD170477047002001E001C1121FAB
:103EC000002AFBD1704700000121202803DA81403D
:103ED0000548014003E0402802DA2038814009B15A
:103EE0000120704700207047FC06FFBD082806D25D
:103EF00028B1012803D0042801D0012070470020F8
:103F0000704700002DE9FF4F8DB00F460546002693
:103F100006E025280BD0DDE90F1290476D1C761CBA
:103F200028780028F5D111B03046BDE8F08F002484
:103F3000A246A1460122EC4900E0044315F8013FE6
:103F4000203B02FA03F00842F7D128782A2810D043
:103F50006FF02F022878A0F13001092914D80AEB5C
:103F60008A0102EB410144F0020400EB010A6D1CDE
:103F7000F0E701CF5FEA000A03D544F40054CAF128
:103F8000000A44F002046D1C28782E2817D115F879
:103F9000010F44F004042A280ED06FF02F02287875
:103FA000A0F1300109290AD809EB890102EB41018E
:103FB00000EB01096D1CF2E757F8049B6D1C287893
:103FC0006C280FD006DC4C2817D068280DD06A2842
:103FD00014D104E0742810D07A280FD10DE044F4F5
:103FE00000140AE044F4801401E044F440146978B9
:103FF000814202D104F580146D1C6D1C2A786E2A52
:104000001FD00CDC632A31D004DC002A8BD0582A64
:1040100011D1A3E0642A68D0692A0CD165E0732A23
:104020002ED004DC6F2A73D0702A04D19BE0752A4D
:104030006FD0782A6ED01046DDE90F129047761CBB
:1040400050E1C4F30250022806D0032809D0042806
:1040500001CF09D0066045E101CFF117C0E9006149
:1040600040E101CF06803DE106703BE117F8040B0B
:104070008DF8000000208DF80100EB46012003E0E0
:1040800057F804BB4FF0FF3061074FF0000102D436
:104090000DE008F10101884649450FDA8045F8DB5B
:1040A0001BF808100029F4D108E008F10101884646
:1040B0008142FADB1BF808100029F6D1DDE90F2355
:1040C000AAEB08008146214600F036F9304400EBA7
:1040D000080604E0DDE90F121BF8010B9047B8F168
:1040E0000108F7D221464846F7E00A21C4F30253FB
:1040F0004FF0000B0891022B04D001CFC117032B06
:1041000009D00AE0FF1D27F00707F7E8020108E0E1
:1041100032E01FE020E000B2C117042B01D140B211
:10412000C117031E71F1000307DA4FF0000CD0EB4A
:104130000C006CEB01012D2302E0230504D52B2399
:104140008DF82430012303E0E30701D02023F7E7B3
:10415000984658E00A2110E010210EE010204FF0A0
:10416000000B08900CE010214FF0000B44F0040409
:104170004FF00809089103E008214FF0000B089167
:10418000C4F30253022B04D001CF0021032B06D02D
:1041900006E0FF1D27F00707F7E8020103E080B201
:1041A000042B00D1C0B24FF0000823072BD5702A92
:1041B00007D0DDF820C08CF0100C5CEA0B0C05D0A9
:1041C0000EE040238DF82430012308E050EA01037B
:1041D00006D030238DF824308DF825200223984610
:1041E000DDF820C08CF0080C5CEA0B0C0BD150EA17
:1041F000010301D1630706D530238DF824304FF039
:104200000108A9F10109582A04D038A20B9208AA82
:104210000A920BE03AA2F9E75B46089AFFF75AF9CF
:104220000B9B9B5C0A9A521E0A92137050EA010281
:10423000F2D10A98ADEB000000F1200B600702D527
:1042400024F4803401E04FF00109D94502DDA9EBE7
:104250000B0000E0002000EB0B0141440890AAEBAA
:10426000010AE00306D4DDE90F232146504600F0A1
:1042700063F806444FF0000908E009A911F80900A5
:10428000DDE90F12904709F10109761CC145F4DB05
:10429000E0030CD5DDE90F232146504600F04CF831
:1042A000064404E0DDE90F1230209047761C08999F
:1042B000481E08900029F5DC08E00A980A99007861
:1042C000491C0A91DDE90F129047761CBBF10001F1
:1042D000ABF1010BF1DC21465046DDE90F2300F084
:1042E00019F806446D1C1BE60928010030313233F1
:1042F0003435363738396162636465660000000022
:10430000303132333435363738394142434445460B
:10431000000000002DE9F041044600251E46174626
:10432000880404D405E039462020B0476D1C641E83
:10433000F9D52846BDE8F0812DE9F0410446002575
:104340001E469046C80301D5302700E02027880488
:1043500004D505E041463846B0476D1C641EF9D5CA
:104360002846BDE8F08110B501220221002001F0AD
:1043700037FB08B1072810D107220221012001F0E4
:104380002FFB08B1072808D100210A22084601F0B6
:1043900027FB08B1072800D1002010BD00B5A9B047
:1043A000A0216846FFF7E5F802208DF80000002004
:1043B0008DF8020006218DF803100121ADF84C1094
:1043C0000C4A8DF87C1014924021CDE922100A4845
:1043D00026906946094800F0EFFB20B1084A40F2F8
:1043E000F32100F0AFF80121044800F0E2FB29B00E
:1043F00000BD000082270020B5820200142F00209B
:10440000608D02002DE9FC4114468846074603F002
:1044100035FB00BF03F080F90028FBD10125234EB6
:10442000012F27D06FF48050381828D0B0F5405FA6
:104430002CD06FF44051C84208D13088238805EB56
:1044400000401BA1626803F06AFA06E03088424629
:1044500005EB00401DA103F05BFA22480068C0078D
:1044600000D000BE224602B041463846BDE8F041C9
:1044700000F074B830881CA105EB004003E03088E0
:1044800021A105EB004003F03FFAE6E7A06803F046
:1044900055FE034621886068CDE90001308823A1DC
:1044A00005EB0040A26803F042FAD6E7A0280020FE
:1044B000415353455254494F4E204641494C45447F
:1044C0002061742025733A2575000000554E4B4E2F
:1044D0004F574E204641554C54206174203078256A
:1044E00030385800F0ED00E0534F465444455649EB
:1044F00043453A20415353455254494F4E2046417B
:10450000494C454400000000534F46544445564929
:1045100043453A20494E56414C4944204D454D4F64
:104520005259204143434553530000004552524FD6
:1045300052202575205B25735D2061742025733A18
:10454000257500000EB5ADF80010CDE901206A46D2
:10455000002144F20100FFF755FF0EBD08B501230D
:104560008DF800309DF80030144B186059609A6047
:104570006FF48041401807D001280FD1DA60D86865
:1045800000889861D86807E01A61186980685861E6
:1045900018690088986118694068D8611868586877
:1045A0009868D868186958699869D86972B600BF60
:1045B0009DF800000028FBD162B608BD083300203A
:1045C00010B58268C368934203D001F040FD00201B
:1045D00010BD052010BD29B112B1531E134203D0E6
:1045E000092070470E2070470160838000218160A0
:1045F000C1600846704710B58268C3689A1A8388FC
:104600009A4203D801F02DFD002010BD042010BDFA
:10461000074B9B7823B12AB120B10068037C1BB102
:10462000082070470720704741744261002070479E
:104630002833002070B503F0D5FF104800240B216B
:10464000047044700E4D817014206C602C706C707E
:10465000FFF72EF907211420FFF74BF91420FFF77D
:1046600032F90848046007211120FFF742F9054894
:10467000001F0068A860002070BD000028330020E3
:10468000BC270020081501402DE9FC47DFF8789091
:1046900099F8023073B368B3052902D20720BDE848
:1046A000FC87436933B3437C012B25D000270446A4
:1046B0000025884616468DF80050684600F0EAF856
:1046C00001A804F0F5FEC8B1012101700F49446052
:1046D0000968C0E90218C0E904769DF8040089F869
:1046E00001009DF8000000F0F9F81420FFF7F6F83B
:1046F0002846D4E70820D2E70F46D8E704259DF8DE
:10470000000000F0EBF8F3E7283300200415014027
:104710000649897839B130B1416921B1002101746C
:10472000022104F0B3BB08207047000028330020AA
:1047300070B50B4E01460B48B578FFF741FF0446B4
:104740005DB10020B070711C0122C81D02F020FB79
:1047500018B105A2D521FFF7F5FE204670BD000077
:10476000D0270020343400202E2E5C2E2E5C2E2EDE
:104770005C2E2E5C2E2E5C2E2E5C636F6D706F6E29
:10478000656E74735C6C69627261726965735C7585
:104790006172745C6170705F756172745F66696686
:1047A0006F2E6300F0B5284E89B01F460D000446F9
:1047B00072603BD0A888296882B22448FFF70BFFBB
:1047C000002834D1A889A96882B220481030FFF7A8
:1047D00002FF00282BD120221D496846FEF7B0FEBB
:1047E00060690690207C00B101208DF814008DF8DE
:1047F0001C70607C00B10E208DF81500E0680290FE
:10480000A068039020680190606800900E48114AEB
:104810006946083002F088FA002808D1B070206894
:10482000401C04D09DF81D0018B106E0072009B017
:10483000F0BD0548083002F003FB03490122491C82
:10484000C81D02F0A5FAF2E7D0270020343400207A
:104850003C960200DD90020010B501460B48FFF7C0
:10486000CAFE040010D10A4802F034FC60B90849BD
:1048700006480839FFF7A4FE30B905490122083976
:10488000034802F0A1FB0446204610BD443400203A
:10489000D827002030B5EFF3108172B60D4A946826
:1048A000012324B10370002900D162B630BD9360AA
:1048B0004FF0E023D3F88051074C25401560C3F832
:1048C0008041D3F8844154605A17C3F884210022F0
:1048D0000270E8E754340020FC06FFBD0B498A68EB
:1048E000002A11D000280FD1EFF3108072B60B68A8
:1048F0004FF0E022C2F800314B68C2F804310022C8
:104900008A60002800D162B670470000543400204D
:104910002DE9F041064608680C46411C4FF0A047BF
:104920004FF0010506D005FA00F1C7F80815206818
:1049300002F0B7FD6068411C02D0002102F096FD34
:104940003079204901EB4010A169007F00283068D0
:10495000C0F8241525D0607D227D31681043C1F850
:104960006C05D4E900123068C0F80C15C0F81425A5
:1049700024E0A068411C02D0002102F077FDE0682D
:10498000411C05D08540C7F80855E06802F089FD54
:10499000D4E902123068C0F80825C0F81015BDE847
:1049A000F081607D217D32680843C2F86C05D4E94E
:1049B00000123068C0F81425C0F80C15207D0128BD
:1049C000D7D0ECE7E83200202DE9FC470025178816
:1049D0000646158090F82D001446894630B13A46B7
:1049E0002146484600F0EAFA050009D1B0784FF0B8
:1049F0000C0A18B32088C846001DB84202D9504698
:104A0000BDE8FC87684679DF0028F9D120880321BA
:104A100008F8001020881921401C80B2208008F876
:104A200000102088401C80B2208000EB0801BDF8F7
:104A3000000004F0AAFC218808442080F0780222BB
:104A4000C8B1218896F9033001F1030C4846BC45F2
:104A5000D5D8425421884FF0010C491C89B22180DD
:104A600000F801C02188491C89B2218009F8013071
:104A70002088401C20807068B8B1218890F90030EF
:104A800001F1030C4846BC45B9D8425421880A229A
:104A9000491C89B2218042542188491C89B2218055
:104AA00009F801302088401C2080308950B1CDE9C0
:104AB00000474B460622022106F1080004F010FDD3
:104AC00005009DD1308A50B1CDE900474B46072201
:104AD000032106F1100004F003FD050090D1308B96
:104AE00050B1CDE900474B461522142106F11800BC
:104AF00004F0F6FC050083D1306A30B13B46224613
:104B0000494601F03FF90500DBD1706A30B13B4600
:104B10002246494601F042FE0500D2D196F82C000B
:104B200038B13B4622464946304603F00FFF0500A8
:104B3000C7D1307838B13B4622464946304601F06D
:104B4000B5FE0500BDD128465AE7F0B50C4693B036
:104B50001F210726ADF80010ADF80410002750B152
:104B6000C17849070DD56A4602A9FFF72DFF002835
:104B700008D102AD02E00025ADF800706CB1E0781C
:104B800010B1304613B0F0BD01AA0AA92046FFF7C4
:104B90001BFF0028F6D10AAA02E00022ADF804703B
:104BA000BDF80400C3B2BDF80000C1B2284672DFF0
:104BB000E8E780F82410704770B50D00044653D024
:104BC000F4B3012020700026E670202205F1780160
:104BD000201DFEF7B5FC84F82460D5F89800C4F8D1
:104BE000CC00D5F89C00C4F8D0004FF6FF70A4F8B4
:104BF000C800C4F82560A4F8296084F82B6004F18B
:104C000030003C210646FEF7B4FC287884F83000DA
:104C1000A87884F83200E87884F83300687884F85B
:104C20003100D5E90401C4E91001D5E90201C4E964
:104C30000E01D5E90601C4E9120195F82D0000E046
:104C400012E084F85D00686AD8B104F1780104F1DB
:104C50006C0061676065696A09880180686A616DD6
:104C600080888880002008E00E2070BD696A2218C4
:104C70008968095C82F87810401C616D89888142DE
:104C8000F4D8A86AE8B104F1A400C4F8A0000C3874
:104C9000A065A96A89888180A86AA16D00880880BA
:104CA000002006E0A96A22188968095C82F8A4102D
:104CB000401CA16D89888142F4D895F82C0084F8B5
:104CC0005C00286A48B104F1C4002065296A49885B
:104CD0004180286A216D00880880686800B160639F
:104CE00005F13C013046BDE87040FFF72EBF10B51E
:104CF0000288102A1AD0112A1FD01B2A1CD1007A30
:104D00000C46002818D1E0780521401CB0FBF1F2D8
:104D100001FB1201204600F037F800280CD0D4F82F
:104D2000D010002908D0BDE810400847C27B012AF6
:104D300002D18088A1F8C80010BD0C46002184F87B
:104D4000D4108088B4F8C8108842F5D120790028A2
:104D5000F2D10121DEE710B50C46022801D003286C
:104D600011D1607800280ED000206070E1782046D4
:104D700000F00AF8002806D0D4F8D010002902D09C
:104D8000BDE81040084710BD2DE9FF4704460078F4
:104D90000F4638B1E770002002F0AEFA012628B1C4
:104DA0006670D2E0082004B0BDE8F0870025C4F8A2
:104DB0002550A4F8295084F82B50A07910B1E07840
:104DC000012806D0E07970B1E078012801D00228EE
:104DD00009D1D4F8CC1021B184F82C600820884780
:104DE00001E084F82C5004F1260100200A5C0AB18D
:104DF000304603E0401C0628F8D300204FF002089C
:104E00004FF0030A4FF00409012F06D0022F09D0FA
:104E1000032F0CD0042F12D10DE0A17911B108B1EC
:104E200030460DE0E17911B108B1404608E0207A42
:104E300008B1504604E0607A08B1484600E02846D0
:104E4000E070D4F8CC1041B1032801D0042804D17B
:104E5000607910B194F8D400A8B184F8D5500095C9
:104E60000295019503958DF800508DF80850E17872
:104E700004F1250004F13002052958D2DFE801F0E1
:104E8000670A131F3B0084F8D65084F8D5600720CA
:104E90008847E4E7A67001908DF80060ADF80C50EB
:104EA000ADF80A5043E084F8028001908DF800606C
:104EB000208AADF80C00A089ADF80A0037E0A08A7E
:104EC000ADF80A00208BADF80C00607980B194F841
:104ED000D40068B994F8D60050B18DF8088084F8F1
:104EE000339000211046FFF730FE00BB05211AE089
:104EF00084F802A01BE0A08BADF80A00208CADF86E
:104F00000C00607988B194F8D40070B994F8D60098
:104F100058B18DF8088084F8339000211046FFF7CF
:104F200014FE20B90621A17001E084F80290E07817
:104F300030B194F82410684673DF00287FF433AF53
:104F4000D4F8CC1009B1A078884700202BE7A570D1
:104F5000F6E7000070B5040012D001461C22144888
:104F6000FEF7EEFA1248134D0560206850B17ADF63
:104F7000002806D12068016829604068686005E063
:104F80000E2070BD0B487BDF0028FAD108484FF691
:104F9000FF711438084A20F8041B054934390160B0
:104FA0000021FFF735FB0028EBD0032070BD000087
:104FB000A8310020B4270020499402007CB50546A2
:104FC00008880C460930904201D90C207CBD684607
:104FD0006DDF0028FAD121880820685420881B2121
:104FE000401C80B2208029542088401C80B2208040
:104FF0002844DDF801100160BDF80510818020888B
:10500000801D80B220809DF80010490800D0012149
:1050100029542088401C208000207CBD10B54FF012
:10502000FF3100203BDF00280BD1B1213ADF0028FF
:1050300007D10448416901208847022002F0FCFDA5
:10504000002010BDC43C0020044810B50068416930
:1050500000208847BDE81040FFF7E0BF502800203F
:1050600010B500280FD00188204C502926D00BDC29
:1050700010291DD0112906D1A1888088814202D132
:105080004FF6FF70A08010BD512913D05329FAD1DB
:10509000C088E1888842F6D1607E0028F3D0FFF70F
:1050A000D3FF0028EFD06169BDE810400220084717
:1050B0008088E7E7BDE8104003F0BCB930F8061F70
:1050C00062899142DFD141890229DCD10C3000F0A4
:1050D00083FB0749207603220988BDE8104002EBD4
:1050E0000143024603A1184602F012BCC43C002052
:1050F000A0280020526563656976656420696E6446
:1051000069636174696F6E207374617465202564CE
:10511000000000002DE9F0410546007B0426234CE9
:105120004FF0010801280FD002281FD00226287B4B
:105130004FEA060100F064F8002832D02068416987
:10514000BDE8F0410320084720680027817E11B1A7
:1051500006210120EEE780F819800121084600F0C1
:105160004FF800281DD020684776E0E76A7B142AB4
:1051700019D8C2B10E4F05F10E01381DFEF7E0F946
:10518000687BB86121683846897E0029CFD1A0F1BB
:105190000C010A68011F90470028C8D1216881F8D6
:1051A0001A80BDE8F0810526C1E7000050280020E4
:1051B000EC3C002070B5104900250A68002A19D07F
:1051C0004A68002A16D008319047112812D00B4C9B
:1051D0000028206885760BD00421022000F010F80A
:1051E000002807D020684169BDE8704003200847C7
:1051F0000121F2E770BD0000E03C002050280020B3
:1052000086B00323ADF8003020238DF814308DF8DC
:10521000150000220E48019202928DF81610C188E6
:10522000ADF8041002218DF8061005A90491ADF81F
:105230000820CDF80CD0808801A9A6DF002804D171
:10524000BDF80010032900D00C2006B07047000004
:10525000C43C0020F0B5574D0188002201266F891B
:1052600089B0044623294FD02BDC53484FF0030369
:105270001129008803EB004034D014DC012965D0EB
:1052800010290ED14DA102F03FFB2E70072000F037
:10529000C9FB20B14CA24FF4E471FFF753F9A08889
:1052A000688109B0F0BD132923D02129F9D10092DA
:1052B000A08869468FDF0028F3D043A240F2DF11B7
:1052C0002DE03B2939D051294DD052292AD05629D9
:1052D000E7D18088132176DF0028E2D03AA24FF48C
:1052E00001713BE02A703CA102F00EFB4FF6FF700B
:1052F000D6E700231A46852138467FDF0028D0D024
:1053000031A24FF4F37129E00092019280880022CB
:10531000694690DF0028C4D02BA24FF4F871FFF744
:1053200011F9BEE700231A4619463846A9DF0028BE
:10533000B7D025A24FF4FB7110E08088132176DFEF
:105340000028AED020A240F2FD1107E0A088002185
:1053500066DF0028A5D01CA240F2092109B0BDE8F3
:10536000F040FFF7EFB81022A11D04A8FEF7E8F8FF
:105370009DF81010002994D09DF81800042803D03F
:10538000062801D005288CD102290ED08DF80060A6
:105390004FF4C170ADF80400A0886946A8DF00286A
:1053A000BFD009A24FF40971B9E702208DF80000BF
:1053B000EEE7000070270020A0280020436F6E6EEB
:1053C00065637465640000002E2E5C2E2E5C2E2E0C
:1053D0005C6D61696E2E6300446973636F6E6E6508
:1053E000637465640000000010B51A4C01886068A1
:1053F00010290ED011292BD1401E606028D1FEF754
:10540000B2FF002824D02168002921D0BDE8104037
:105410000847D0B900210122084600F0E1FA08B19E
:1054200007280FD107220221012000F0D9FA08B184
:10543000072807D104220221002000F0D1FA20B170
:10544000072802D0216801B188476068401C60606D
:1054500010BD0000AC2700202DE9F04701883B4E2D
:1054600040F2F3194FF6FF7510291BD011293ED0D9
:10547000122954D0502946D1C188F289841D914205
:1054800041D1618902293ED18688304600F0C2FEB2
:10549000050038D004F10C0000F0A2F9A8B32946A9
:1054A00030464EE0C17B8788044601292BD1A846AF
:1054B000284600F0AFFE050017D02F80002028728C
:1054C000234843464A460168C5F80A104068C5F8B3
:1054D0000E0004F1100105F10A0000F035FF6872BA
:1054E000F08900280FD129462AE0042013E08088A3
:1054F00000F090FE040006D06068FFF709F908B1DB
:1055000003F006FA2580BDE8F087FFE76868FFF73B
:10551000FFF80028F7D0BDE8F04703F0F9B9878815
:105520000646384600F076FE0400ECD02B464A468C
:1055300006F1080104F10A0000F006FF607221463E
:105540003846BDE8F04700F06FBC0000A8310020ED
:10555000B42700202DE9F047044603884048012283
:10556000A4B000F1480A102B09D0112B56D01A2BE9
:1055700072D1217AB2EB111F55D2012354E0D0E948
:1055800011218A430546011D12A803F084F9442223
:1055900012A901A8FDF7D4FFDFF8C4900026374612
:1055A00009F144090DF104080AE000BF08EB4600C8
:1055B0001D2283884946281D009703F031F9761C87
:1055C0000198B042F2D8686CA688C04303F04AF94B
:1055D000A0F57F41FF3917D005EB400001238680FD
:1055E00032465146281D03F07BF9012332464946D5
:1055F000281D03F075F9E07B02280DD0002318491F
:10560000A2884C31281D22E024B0E521BDE8F047F6
:1056100014A20420FEF796BF0123F0E70023A2881E
:105620005146001D13E000230D490546A288503164
:10563000001D03F055F9207A0221B1EB101F01D2B1
:10564000012300E000230649A2885431281D24B01C
:10565000BDE8F04703F044B924B0BDE8F08700008E
:10566000C43100202E2E5C2E2E5C2E2E5C2E2E5C45
:105670002E2E5C2E2E5C636F6D706F6E656E747374
:105680005C626C655C636F6D6D6F6E5C626C655FB8
:10569000636F6E6E5F73746174652E63000000004B
:1056A00030B5174B0D4604000FCB85B08DE80F00C9
:1056B00023D015B34FF6FF70A0822868A0610020A8
:1056C000A0752146684662DF002814D120788DF845
:1056D00012000120ADF81000A21C04A9A0DF0028D0
:1056E00009D12946204602F0B4FF002803D12946FB
:1056F000204603F03FFC05B030BD0E20FBE7000064
:10570000289602007FB5002917D0002815D00288FE
:10571000102A0DD0112A0DD0502A0FD0572A0CD1A3
:105720001A4B1868D3E902238DE80F0089692AE033
:10573000808801E04FF6FF7088827FBD01910C46A2
:10574000821DC3880989002512308B4202D15189FC
:1057500002290CD0A1898B42EFD1A1690029ECD09C
:1057600002905089ADF80C008DF800500AE000F06E
:1057700037F818B10120A075022001E0A5750320BB
:105780008DF80000A169684688477FBD1896020021
:105790001FB560B1838AA3F57F44FF3C09D0837DA8
:1057A0003BB11388F42B06D9072004B010BD0E209E
:1057B000FBE70820F9E7002300930193029303938A
:1057C0008388CDE90221ADF8003001218DF8021067
:1057D000808A6946A6DFE8E70078C0F3400070479A
:1057E000007800F00100704708B502F0D3FB20B14B
:1057F0000D4A40F23921FEF7A5FE002000906946CF
:10580000012002F043FA20B1074A40F23F21FEF79F
:1058100099FE684602F0E6FA002804D0024A40F2F7
:105820004321FEF78FFE08BD608D020010B5104CBD
:105830003A200B21207000206070A1700121E170DE
:1058400020710C480168C4F805108088A4F809008C
:10585000A020E072322020730C21601CFDF746FF6F
:1058600060732046BDE810400E2103F041B80000EF
:105870001E300020962700200149085C7047000078
:10588000D095020007490B5C4FF0A041D1F80425E8
:105890000120984020EA0203C1F808351040C1F801
:1058A0000C057047CC9502000249085C012101F00B
:1058B00039BE0000CC9502000249085C002101F0CD
:1058C00031BE0000CC9502000649095C4FF0A040B3
:1058D000D0F80405C84010F0010000D0012080F08D
:1058E00001007047CC95020010B500242046FFF758
:1058F000DBFF641C042CF9D310BD10B50024204636
:10590000FFF7DAFF641C042CF9D310BD10B5024672
:10591000064B4FF0FF3000215C5C944201D10846F9
:1059200010BD491C0429F7D310BD0000D09502001A
:1059300010B5002000F05EF908B1062806D101205C
:1059400000F058F908B1062800D1002010BD000071
:105950002DE9F0470D468146FFF7D8FF044604289D
:1059600036D2DFF874801B481C4EA8F10C0725B313
:10597000012D0ED0022D2BD104EB4400304445788C
:10598000002D25D0B968002922D02846BDE8F0476F
:10599000084704EB4401755C0E44717849B10E4A26
:1059A0004FF40041093A8068FEF76EFE08B987F8A7
:1059B0000390B17808F80410E2E78068FEF7A8FECB
:1059C00004EB4401314418F804008D78A842D7D084
:1059D000BDE8F087D4950200A827002048310020B8
:1059E00070B50023042810D20D4D00EB4004012AAD
:1059F00002D101290CD00022094E00EB40003044B6
:105A000061B1012906D0022906D00723184670BDCE
:105A10000E30C2B22A55F9E74270F7E78270F5E717
:105A200048310020044A014600201279D20702D0F2
:105A3000084600F003B870479C2700202DE9F05F6E
:105A40006A4C054600266078B34618B184F801B068
:105A500000F0B8FC664F4FF47A694FF4C87A4FF003
:105A60000108182D62D2DFE805F0AC0C0C31404D76
:105A700062676B746B74BE7D7D7D7D7DACAFB2B5AE
:105A8000BEBE0020FFF720FF00284FF0000008D026
:105A9000FFF70AFF022D02D14FF4E16008E048460B
:105AA00006E0FFF709FF022D01D1C82000E05046B3
:105AB000410CC0034FF4FA72801841F100012570C7
:105AC00052000023FDF706FD01462AE00020FFF703
:105AD000FBFE00284FF0000004D0FFF7E5FE4FF476
:105AE0004870E5E7FFF7E8FEDFE70020FFF7ECFE90
:105AF00000284FF0000002D0FFF7D6FECFE7FFF7F7
:105B0000DBFED4E70020FFF7DFFE00284FF00000A7
:105B100002D0FFF7C9FE01E0FFF7CEFE257041F687
:105B20009A1100223868FEF7AFFD064646E00020D5
:105B3000FFF7A8FE257008E0002051E025703DE049
:105B400084F801800120FFF79DFE002240F6CD4140
:105B5000E8E784F801800120FFF794FE00224FF46B
:105B60008041DFE77868FEF7D3FD0646D5F11100E6
:105B700000D02EB10220FFF797FE84F802B01DE09E
:105B8000012816D980B2C8214843C117C90341EA88
:105B90005041C0034FF4FA72801841F100015200E5
:105BA0000023FDF797FC014600227868FEF76CFDA4
:105BB00006460220FFF780FE84F802803046BDE8EA
:105BC000F09F00F0FFFBB9E700F0FCFBB4E700F04A
:105BD000F9FB04E000F0F6FB0020FFF76DFE01206A
:105BE000FFF76AFEAAE7FFF788FEA7E79C270020D9
:105BF000D495020010B5FFF73FFE032101F05BFCD6
:105C0000002010BDF8B5871C00208DF800000E465E
:105C100001256846FEF73EFE124C20683060D4E94C
:105C20000001401AA168091ABE1C06E000F07EFCC3
:105C3000D4E90001401AA168091A491C8E42F5D81E
:105C4000A1682068084004EB8000C16841F00301AE
:105C5000C1602068384420609DF80000FEF73EFED9
:105C60002846F8BD1C36002030B482680468531CF6
:105C70008360A154D0E901128A4202D330BC01F002
:105C800042BA30BC70470000034803C8814201D1CA
:105C900001207047002070471C360020024908444C
:105CA00090F93000704700009032002070470000EB
:105CB00070B5084C050009D010342168002907D0C0
:105CC00008682060496828468847F6E70834F4E702
:105CD00070BD00007C3200202DE9F05F264841684D
:105CE000F1B3DFF898B00E688146DBF800408768B2
:105CF0008078E11B21F07F45ED1CB0B9DFF8808092
:105D00004FF48030C8F84403C8F804031120FDF7AD
:105D1000CFFD1120FDF7D7FD4FF0010AC8F800A014
:105D20002F2000F059FF89F802A0B54200D2354675
:105D3000124BE8193C3320F07F401860DBF800106C
:105D40005A46091B21F07F41001B20F07F40C91CEF
:105D500081420FD9106818602F2000F03DFF00E04D
:105D600004E0BDE8F05F1120FDF7B8BDBDE8F05FCD
:105D700002F038BCBDE8F09FBC27002004150140AC
:105D8000001001402DE9F04117880646B81D144661
:105D90000D46984202D90C20BDE8F08131880722D7
:105DA00006290AD34FF4486C4FF6FF73614501D9B9
:105DB000994202D17088062801D21046ECE760456E
:105DC00001D99842F9D1994203D0984201D0814239
:105DD000F3D80520E85520881221401C80B220808D
:105DE00029542088401C80B220804119308803F05B
:105DF000CCFA2188084480B220804119708803F0D1
:105E0000C4FA2188084420800020C5E702A24FF48C
:105E1000B771FEF797BB00002E2E5C2E2E5C2E2E47
:105E20005C6D61696E2E630038B54A7A0F4B62B1C2
:105E300000220A725969002906D001228DF800203B
:105E4000ADF802006846884738BD0A7A62B19B689F
:105E50004C68024619462046FEF716FC0028F3D08F
:105E6000BDE8384002F054BD5B68F1E7A83100207E
:105E700010B50446807A20280BD16079012801D022
:105E800020B158E0192001F046FB02E0192001F092
:105E90003BFBA07A01280BD12078012801D020B14A
:105EA00049E0162001F037FB02E0162001F02CFB40
:105EB000A07A02280BD16078012801D020B13AE005
:105EC000142001F028FB02E0142001F01DFBA07A51
:105ED00004280BD1A078012801D020B12BE012209A
:105EE00001F019FB02E0122001F00EFBA07A082855
:105EF0001AD1E078022805D11A2001F005FB1B20F9
:105F000001F002FBE078012801D038B10CE01A2042
:105F100001F0FAFA1B2001F0FEFA05E01A2001F068
:105F2000FAFA1B2001F0F0FAA07A102812D04028CB
:105F30001FD0802826D0E07A01282CD002283ED11C
:105F4000607A012836D0002839D11320BDE81040EE
:105F500001F0DABA2079012806D000282FD10E20CE
:105F600001F0D2FA0F2026E00E2001F0D4FA0F2023
:105F7000ECE7A079012803D0002820D10220E5E732
:105F8000022018E0E079012803D0002817D118205A
:105F9000DCE718200FE0207A012806D000280ED177
:105FA000102001F0B8FA1120D0E7102001F0ACFA6F
:105FB000112000E01320BDE8104001F0ACBA10BD84
:105FC0000E4910B50A784C780023A24212D0521C18
:105FD000D2B20A70022A00D10B70084A0B780C3238
:105FE00052F8232002608868104420F07F408860C7
:105FF000012010BD0360002010BD0000BC27002060
:1060000030B50446006885B00D46806800281CD075
:1060100014216846FDF7ADFA0195A0680490207937
:1060200010B101280DD104E001208DF80000206995
:1060300004E002208DF80000E0680003029060692F
:106040000390206881686846884705B030BD826843
:1060500083881A4003689A5C0A708168491C8160D1
:106060007047C26883881A4003689954C168491C04
:10607000C160704710B50446C0B2FEF7EDFB204684
:1060800010BD00000EB515A19DF8080020F00F000E
:10609000401C20F0F00010308DF80800082202A803
:1060A0007CDF18B1104ABB21FEF74CFA00200090AB
:1060B00001901021ADF80400ADF800104FF4C87045
:1060C0003C21ADF80600ADF8021068467ADF0028E2
:1060D00003D0054AC521FEF735FA0EBD7A6D795F0A
:1060E0005541525400000000608D02000B484A8860
:1060F00043899A4211D10A88A2F52063773B0CD1DB
:106100008988C91E8AB28281054803211346008806
:1061100001EB004003A101F002BC70477027002092
:10612000A028002044617461206C656E2069732092
:1061300073657420746F20307825582825642900F1
:1061400010B50C490C4800F082FC20B10BA240F2C3
:106150005E21FEF7F7F94021074800F06CFC0028AB
:1061600006D0BDE8104005A240F26121FEF7EAB971
:1061700010BD0000ED600200002F00202E2E5C2ECE
:106180002E5C2E2E5C6D61696E2E630070471CB50F
:10619000044668466DDF06210DF10102491E11F02B
:1061A000FF01C1F10503505CE054F7D11CBD0000B4
:1061B00000B58DB03A208DF8000000208DF8010068
:1061C0000D218DF804008DF80210114801218DF881
:1061D00003100268CDF805208088ADF80900A020E2
:1061E0008DF80B0037208DF80C0012208DF80D0073
:1061F0008DF80E100E210DF10100FDF777FA8DF8E4
:106200000F001021684602F073FB0DB000BD0000C6
:10621000962700200146034802888A4200D00020C9
:1062200070470000943100202DE9FC5F0E0083468A
:10623000DDE90C47C6F1000098469246814600D43D
:106240000846012503E000BF90FBFAF06D1C5045A5
:10625000FADAA84500D9454624B1002E01DB7807BB
:1062600000D5641EB80702D5B8F1000F0AD0F807B0
:1062700008D13CB1A54205D220215846641EFFF743
:10628000F3FCF6E7002E02DA4E462D2102E07807F5
:1062900003D52B215846FFF7E7FC07F0030002283F
:1062A0000BD1B8F1000F08D13CB1A54205D2302185
:1062B0005846641EFFF7D8FCF6E7CDE90047434691
:1062C00052463146584603F065F8BDE8FC9F000091
:1062D00070B50E460446007918494FF4A27501EBDB
:1062E0004010017F2068A1B14FF4887101F046FF92
:1062F0004FF49071206801F041FF4FF492712068D3
:1063000001F03CFF2946206801F038FF0C49206865
:1063100009E04FF48E7101F020FF2946206801F05A
:106320001CFF08492068C0F80413206800F0F0FC46
:106330003146BDE8704000F0CFBC0000E8320020DC
:106340001003020080000200F0B58488A518944272
:1063500000D82246A41AC288D6189A4200D81346FA
:10636000D21A4B880788BB420CD34088834209D895
:106370008888A04206D3A84204D8C888904201D396
:10638000B04201D90020F0BD0120F0BD10B51220AF
:1063900001F07FF8162001F07CF81A2001F079F85E
:1063A000022001F076F8192001F073F8182001F0AE
:1063B00070F8142001F06DF8BDE81040132001F0D2
:1063C00068B800000A4810B5807860B1002401E088
:1063D000022C06D02046FFF767FA641C042CF7D382
:1063E00010BD0324F6E7BDE81040FFF77DBA0000BA
:1063F0009C27002006490120086006480168C1F377
:1064000000410029FAD1044900208870704700003B
:106410000C000040180400407C320020F72101806D
:1064200017214180002101714171FB2181711B21E4
:10643000C17170472DE9F047394E002780463D462F
:10644000DFF8E090D6F804A057E003D00446D0F877
:106450001C8035E099F8002002EB4201521CD2B2B8
:1064600089F8002009EBC10199F80230091D9A4210
:1064700001D189F8005048680A780446012A12D0F0
:10648000022A02D0032A3BD108E002F0CFFC00B17F
:106490000127257434E00574C06900E070680028A5
:1064A000F9D170602CE0207C50BB88686060C868BF
:1064B000A0600869E0604869A061F07800B165609B
:1064C0006268B168184B501A20F07F40984202D29F
:1064D000A168084406E0881AA16820F07F40814244
:1064E00002D9081A206000E0256065600120A560DF
:1064F00020742046E56102F07BFCB8F10000A4D1D5
:1065000099F8001099F801008142A3D117B9716878
:10651000514502D00120BDE8F0870020FBE70000D4
:10652000BC27002028330020FFFF7F0070B588B013
:10653000214800F01FFA2048001F064600F01AFA12
:106540001E4DD5E9014105E0C0F3891202EB9050E0
:10655000641C044404EA010005EB8000C068820763
:10656000F2D000200DF1080204EA010305EB8303D9
:10657000641CDB6842F82030401C0228F4D30298E7
:1065800000F00300012808D002280AD10298032154
:1065900001EB905004EB900403E00298C0F38310E9
:1065A00004443046002101AAFCF74DFF002800D02A
:1065B0006C6008B070BD0000343A00201C3600202A
:1065C0008AB0FEF737F820B15DA240F2F231FDF754
:1065D000B9FF02F0B1FB18225D496846FCF7B0FF35
:1065E0005C4806904FF4806007905B4808904FF439
:1065F000807009900723594A06A96846FEF7D2F829
:1066000020B1574A40F2D721FDF79CFF002001F04E
:10661000EFF920B1524A4FF44471FDF793FF01F0B6
:106620006DF8172000F02BFFFFF7B0FE0E2000F0F2
:1066300026FF0F2000F023FF102000F020FF112084
:1066400000F01DFF1B2000F01AFF00240D20032383
:10665000009422462146019400F0E4FE042077DFF6
:10666000FFF7C2F8FDF76AFBFFF70CFDFFF768FDC7
:106670003C48009069463C48FFF712F820B1384A80
:1066800040F24D11FDF75EFFFDF788FE1C216846C4
:10669000FCF76FFF4FF42030CDE900404FF470203D
:1066A000029032480590032531488DF80C50069031
:1066B000ADF80E408DF810406846FEF74BFC20B157
:1066C000274A40F28511FDF73DFF2AA0FDF7DCFBCC
:1066D0002D482EA1008805EB004001F015F9224855
:1066E00003213030FEF750FB20B115A240F21C41CF
:1066F000FDF728FF2848FDF77FF9112000F0FDFE87
:10670000122000F0FAFE132000F0F7FE142000F033
:10671000F4FE0E2000F0F1FE4FF0A0414FF40040D7
:10672000C1F8080500BF40F21B3400BF00F0F4FFC1
:106730003EDF0028FAD00A4A2146FDF703FFF5E7BD
:106740002E2E5C2E2E5C2E2E5C6D61696E2E6300EB
:10675000B4950200E4290020E42D00206D90020091
:10676000608D02006D820200E42E0020F1820200A2
:106770000D5E02000D0A554152542053746172742B
:10678000313233210D0A0000A02800205541525417
:1067900020537461727421006536020070B514468E
:1067A00082880E4605462088111D0144921C99429C
:1067B00001D8FE2A01D90C2070BD521C3254208809
:1067C000FF21401C80B2208031542088401C80B2C0
:1067D00020808119288802F0D8FD2188084480B2E1
:1067E0002080AA8842B1A96841B13044FCF7A8FED4
:1067F0002088A98808442080002070BD072070BD33
:106800002DE9F047C7880446181D16468946B0FB97
:10681000F7F1B0FBF7F207FB12009A193A44D21CC9
:10682000B2FBF7F2DDF820A001E02468491E002940
:10683000FBD13D1A8846B54216D818E0BAF1000FD0
:1068400005D0211809EB08002A46091D04E0204460
:1068500009EB08012A46001DFCF772FE002024689F
:10686000761BA844B74201D9354600E03D46002ECC
:10687000E4D1BDE8F087000030B5024669B101F00F
:10688000E5F80021084C0BE001EB410304EB830326
:1068900015685B88AB4202D11160002030BD491CF5
:1068A0008142F1D3052030BD58280020F8B50E46AE
:1068B000017814460546012901D1687830B1208855
:1068C000821C9A422DD8012902D006E00720F8BD8B
:1068D00069780144891C994223D8181A801E87B20E
:1068E000ADF800702188B01C084469467DDF00289F
:1068F000EDD12878022805D1BDF80010B94201D8A1
:1069000009210AE00821012805D16878B84202D897
:10691000ADF8000001E0ADF80070BDF80000FE2801
:1069200001D90C20F8BD2288401CB0542088401C9E
:1069300080B2208031542088401C2080BDF8001097
:10694000084420800020F8BD10B50A8849888A4292
:1069500003D1FCF7A1FC012010BD002010BD70B5D3
:106960000C460546FCF77BFC002802D061882868AD
:10697000084470BD08B501216A46FCF757FD009830
:1069800008BD38B5044600258DF800506846FDF76F
:1069900081FF21686268086890420ED9401E086035
:1069A0000178238AE26801FB0325227A2168101A04
:1069B000C0B20A79824200D208719DF80000FDF74A
:1069C0008DFF284638BD38B5054600208DF80000FB
:1069D0000C466846FDF75EFFE868298A201AB0FB7E
:1069E000F1F12A681068431C136001709DF80000E3
:1069F000FDF774FF38BD10B530B1017A4268036805
:106A0000891AC9B21A6006E00E2010BD03681A6820
:106A1000541C1C601170491EC9B2F7D200680021D5
:106A20000171084610BDC20800F007030120895C0F
:106A300098400840704728B1A1F11702E12A03D31A
:106A4000072070470E20704701800020704710B566
:106A500060B10161F72120F8021B20F8021BFB2125
:106A600000F8021BFFF7DAFC002010BD0E2010BD5D
:106A70002DE9F043858895B00C46002D3DD1018865
:106A8000DFF824810026DFF82491012724293CD057
:106A900006DC102909D011290CD023296DD150E032
:106AA0003A290BD0552968D12AE00146204601F049
:106AB00039FC62E0A01DFFF7B1FC5EE02246408990
:106AC00034F8061F814200D808466080172800D29B
:106AD00017206080106970B1607960B1D8E900104A
:106AE000CDE90310ADF80E506088ADF810001369C1
:106AF00003A9104698476671267115B0BDE8F0836A
:106B00000146204601F05CFC37E0011D342206A856
:106B1000FCF716FDBDF81800BDF81C2004EBC00101
:106B20004A7322694AB3D8E90432CDE90432ADF898
:106B30001200487B8DF814002269204604A9904772
:106B40001BE00496059630F8041F04EBC10201799E
:106B5000127B8A4200D21146ADF81010ADF8121027
:106B60000088002204A990DF020006D0B9F80000D6
:106B70000F4907EB004000F0CBFEA07A0028BCD004
:106B8000E18828469EDF02000BD0112AB5D0B9F863
:106B9000000015B007EB0040BDE8F043054900F0E8
:106BA000B7BEA672E772A8E7009602005828002038
:106BB00054990200CC98020000F18040006800283F
:106BC00000D00120704708B500F18040002101602D
:106BD0000068009008BD000000283ED01F49204AF0
:106BE000096800BF00BF00BF00BF00BF00BF00BFFB
:106BF00000BF91422FD000BF00BF00BF00BF00BF49
:106C000000BF00BF00BF00BF00BF00BF00BF00BF8C
:106C100000BF00BF00BF00BF00BF00BF00BF00BF7C
:106C200000BF00BF00BF00BF00BF00BF00BF00BF6C
:106C300000BF00BF00BF00BF00BF00BF00BF00BF5C
:106C400000BF00BF00BF00BF00BF00BF00BF00BF4C
:106C500000BF00BF00BF0138C3D1704754280020D7
:106C60000024F40070B50F4C0025207808B185256C
:106C700016E00021A16061602161E1604FF0E02039
:106C8000D0F80001012610F0010F03D107210020E8
:106C900000F022F801F0BAF908B90348066026703E
:106CA000284670BD7C3200201805004008B5002041
:106CB0008DF800006846FDF7EDFD0648C168491EE5
:106CC000C160C06808B9FFF795FB9DF80000FDF7AB
:106CD00005FE08BD7C3200204907090E002806DAAF
:106CE00000F00F0202F1E02282F8141D03E000F12F
:106CF000E02282F8001400F01F02012191404009B7
:106D0000800000F1E020C0F88012C0F80011704748
:106D1000000B40B270470121B1EB507F01D101203F
:106D200070470020704700002DE9F04105460079CA
:106D3000164F904607EB40140E46E07E10B1082037
:106D4000BDE8F081707F20772846FDF7E1FD5FEA1E
:106D5000080060603169216003D0317F2846FFF769
:106D6000B7FA287907EB4010007F0028286801D087
:106D7000082100E00421C0F800150020E07520760D
:106D8000A0750121E176A076DAE70000E832002064
:106D90002DE9F04105460079284E904606EB401457
:106DA0000F46207F18B10846FFF7B5FF80B1626833
:106DB00000234FF404704FF4017172B12A7906EB8D
:106DC0004212127F002A2A6805D0C2F8080304E0A4
:106DD0001020BDE8F081C2F80813E27DB2B1227E36
:106DE0007AB162685AB12A7906EB4212127F1AB15F
:106DF0002968C1F8040302E02868C0F804131120D0
:106E0000E7E72761012384F8188005E084F81780FC
:106E10000020E760607620762879424606EB401035
:106E20003946007F0028284603D0BDE8F04100F035
:106E300073B8BDE8F04100F01BB80000E832002054
:106E400070B504460079094D05EB4010017F00291B
:106E50000AD1807E002807D1204601F057FC217915
:106E6000012005EB4111887670BD0000E83200205A
:106E70002DE9F05F04460079264901EB4015A87E14
:106E8000184302D1204601F041FC686800282068C0
:106E900006D04FF40171C0F804130020BDE8F09F44
:106EA0004FF4A276314601F058F9B1464FF4927A88
:106EB0004FF4847B5146206801F04AF90646594652
:106EC000206801F045F980464946206801F040F904
:106ED000074648EA07003043ECD056EA070007D1DE
:106EE0002946206801F09CFBE87D697E8842E1D854
:106EF0000020E8750EB10320D0E70FB10F20CDE7D9
:106F0000A97E01200029216801D00860C5E74860FA
:106F1000C3E70000E83200202DE9F05F894604460F
:106F20004FF488759A46904600260068294601F07D
:106F300025F94FF4A2773946206801F01FF920683F
:106F4000C0F83495C0F838852068BAF1000F14D025
:106F5000D0F8001241F02001C0F800122179DFF8CA
:106F6000648008EB4110406850B120684FF4047110
:106F7000C0F804133046BDE8F09F01210160EDE741
:106F8000AA46B9464FF4927B5146206801F0F1F8C9
:106F900007464946206801F0ECF805465946206846
:106FA00001F0E7F8014647EA05000843ECD02379F1
:106FB000002208EB4310C27501B10326002DD9D081
:106FC0000F26D7E7E83200202DE9F0470546007983
:106FD0003F4E904606EB40140F46207F18B10846FE
:106FE000FFF799FE30B1284600F074F820B1112067
:106FF000BDE8F0871020FBE784F81680A760002723
:10700000A78228794FF0010806EB40143E46207F06
:107010000028286825D04FF49079494601F0AEF851
:107020004FF4AC7A5146286801F0A8F82868A17D91
:10703000A268C0F84425C0F848152868C0F8088040
:107040006068F0B94946286801F093F880465146D7
:10705000286801F08EF858EA0001F3D058BBA775F4
:107060000FE04FF48E7A514601F077F82868C0F8A7
:1070700008802146286801F06DFF61684FF4807038
:1070800089B13046B4E75146286801F061F810B97B
:10709000A08A4845F7D1A08A484505D021462868EE
:1070A00001F058FF00E08146A08AA17D8842EAD322
:1070B000A08A484501D10F26D1E75146286801F042
:1070C00047F80028F9D02868C0F80C80C7E700000E
:1070D000E83200200079044901EB4010807D00284F
:1070E00000D0012070470000E83200200FB408B53E
:1070F0000399002904D004AA00926A4600F00FF810
:1071000001B05DF814FB10B582680446002A05D072
:10711000D4E90403216898470020A06010BD2DE940
:10712000FC4791460C00804676D014F8011B39B11B
:1071300025290ED04046FEF797FD20780028F4D18F
:1071400098F80C00002867D04046BDE8FC47FFF7E0
:10715000DABF0020012221782B291BD02D2902D053
:10716000302908D102E040F0010001E040F00200C7
:10717000641C002AEFD100252A290ED02178A1F124
:1071800030020A2A11D205EB850201EB4205641C8C
:10719000303DF1E740F00400EAE7D9F800100B1D9C
:1071A000C9F800300968641C0D44217800232E2999
:1071B0000BD114F8011FA1F130020A2A05D203EB0A
:1071C000830201EB4203303BF3E76C290DD06829C1
:1071D0000BD0692921D00BDC252918D0582931D0B2
:1071E00063290ED0642915D117E014F8011FECE7CC
:1071F000702969D0732932D075291BD0782909D11B
:1072000020E0D9F80000011DC9F8001001784046BF
:10721000FEF72AFD641C90E76CE0D9F800100A1D07
:10722000C9F800200968CDE900500A224046FEF75F
:10723000FBFFEFE7D9F800100A1DC9F80020096824
:107240000A2206E0D9F800100A1DC9F800200968D2
:107250001022CDE90050404602F09CF8DAE7D9F858
:10726000001000270A1DC9F800200E68C00705D1CC
:1072700012E04046761C7F1CFEF7F6FC31780029B0
:10728000F7D104E0202140466D1EFEF7EDFCBD4223
:10729000C0D9002DF6D1BDE74EB13046FCF774F9E8
:1072A000074604E0202140466D1EFEF7DDFCBD428E
:1072B00006D9002DF6D103E04046761CFEF7D4FC3B
:1072C00031780029F8D1A5E7D9F80000011DC9F8E7
:1072D0000010056830214046FEF7C6FC7821404684
:1072E000FEF7C2FC08200021CDE900010346102270
:1072F0002946B0E7BDE8FC872DE9F04128B10168D7
:1073000019B1C969BDE8F04108470D4D0D48002489
:10731000461B14270DE000BF04EB840005EB800042
:10732000016829B1C969884710B10120BDE8F08121
:10733000641CB6FBF7F0A042EED80020F6E7000090
:107340000000000000000000044801214174007AA0
:1073500008B100207047012070470000EC34002085
:10736000012801D0032808D10449002201284A74C9
:1073700000D00020087401F0E1B87047EC34002020
:1073800070B5254C0246207A012837D0022841D119
:1073900022480023022A006802D0032A2ED11BE0D3
:1073A000E360017911B1012928D10DE0D0E905652B
:1073B000711B4FF48056B14200D33146294481619C
:1073C0004569A9420ED019E00169491C0161426971
:1073D000914213D1237217E0E168491CE16008294A
:1073E0000CD9E3602372022A0ED00D21FEF708FEAD
:1073F0000B480A49091D0068FFF7A6FA607C28B10E
:10740000BDE8704000F008BE0021EFE7BDE8704025
:1074100001F094B870BD0000EC340020E02700209B
:107420006C96020070B541EA4201DDE904564FF066
:10743000A04441EA830141EA052104EB800041EACE
:107440000641C0F8001770BD70B541EA4201DDE9A0
:1074500004564FF0A04441EA830141EA052104EBC0
:10746000800041EA0641C0F8001770BD1CB500223B
:107470000B46009211460192FFF7E6FF1CBD1CB5BA
:10748000002100910B46012201911146FFF7CAFF2E
:107490001CBD4FF0A04202EB80000321C0F8001792
:1074A00070471CB5002100910B4601220191114645
:1074B000FFF7CAFF1CBD4FF0A04202EB8000D0F8DE
:1074C000002722F44032C0F80027D0F8002742EA13
:1074D0000141C0F8001770474FF0A04202EB800056
:1074E000D0F8002722F44032C0F80027D0F8002757
:1074F00042EA0141C0F8001770474FF0A042012155
:107500008140C2F80C1570474FF0A0420121814024
:10751000C2F80C1570474FF0A04201218140C2F81B
:107520000815704701224FF0A043824011B1C3F803
:1075300008257047C3F80C257047000018B5084BA4
:107540006C4601441B68009306E000BF54F82030ED
:10755000D3F81035401C08C28142F7D818BD00008E
:1075600038960200034908B508440021016000680C
:10757000009008BD0060004002494058012800D03A
:10758000002070470060004030B5124B01460020DB
:10759000D3F81044224609E0157A854205D1401CF3
:1075A0000A28F7DB4FF0FF3030BD5268002AF3D1D4
:1075B000421CF9D00872D3F810242AB152684A60EC
:1075C000D3F81024516030BD0022C3F810144A6073
:1075D00030BD00001C3600207047FCF7D9B9704759
:1075E00008B5034A00924023024A00F005F808BD9E
:1075F000218902001C350020F0B595B01C461546C7
:107600000F4608461A9E00F0F1FA182109A8FBF768
:10761000B0FF0E96CDE909540023082203A938468D
:1076200000F0FEFA059806900498ADF81C000020C2
:107630008DF820000398082600F00300012802D0EE
:1076400002281DD03CE003983346850AC0F3C200EF
:107650008DF81E0003980FA9C0F380008DF81F005D
:107660000398C0F38314A200384600F0D9FA09A8A1
:10767000009006AB22460FA9284600F013FA1FE03F
:107680000398840DC0F3C2008DF81E000398C0F368
:1076900080008DF81F00082C01D2254600E0082547
:1076A00033462A460FA9384600F0BAFA2E44641B26
:1076B00009AB06AA29460FA800F044F9002CEAD12C
:1076C000384600F09CFA15B0F0BD00000A4A0129C6
:1076D00002EBC00007D0022907D0032907D00429F4
:1076E00007D00020704702207047042070470079BF
:1076F0007047407970470000B89F020010B5FFF74F
:107700006CFF04210348FFF73FFF02490120487244
:1077100010BD0000F42700202DE9F04F8DB0FEF7DA
:10772000B3FA18B100200DB0BDE8F08F7448002105
:10773000C0F81814BFF34F8FD0E9014604EA0601E0
:1077400000EB81014FF000090AE000BFC1F389128C
:1077500002EB9151641C0C4404EA060100EB810128
:10776000C9688A07F2D0002103AA804604EA06000D
:1077700008EB8000641CC06842F82100491C4346A5
:107780000229F3D3039800F00300022806D0012851
:1077900003984FD0C04380077ED0ACE003985022BE
:1077A000810D8A46B2EB905F00D850210D4665F3FB
:1077B0009F5003900831534800F0CFF907006CD078
:1077C00000F014FA4B46082203A9384600F02EFABE
:1077D00004EA0601701A8000001D09F1080B8542B9
:1077E00021D9474E0C3630B1C2B208EB8101281ABC
:1077F00091460C3104E03146EAB20026914630460B
:10780000C5B25B46384600F011FA0BEB09032EB106
:107810002A4631464FEA070000F008FA0AF1030051
:1078200004EB90043BE008EB81015B462A463846B6
:107830000C31F1E7C0F38310062800D3062003992A
:1078400060F38911C1F38310801C039181002D48DE
:1078500000F083F907004ED000F0C8F94B4608222B
:1078600003A9384600F0E2F909F1080900250DE006
:1078700004EA060008EB80014B46042238460C312E
:10788000641C00F0D3F909F104096D1C0398C0F3DE
:107890008310A842ECD801E00BE02CE05FB3D8F8ED
:1078A0001054D8F81804464690B1384600F0A7F9AD
:1078B00021E0D3F8180400283FF435AF1BE0687AC4
:1078C000012804D1296828460A68394690476D681E
:1078D000002DF4D1384600F092F900208DF8000018
:1078E0006846FCF7D7FFD6F8180400B974609DF815
:1078F0000000FCF7F3FFFEF7C7F980F0010012E784
:107900001C3600208C97020000231A4601F050B963
:1079100008B5012300926A4601F04AF908BD1CB57A
:10792000CDE9002302236A4601F042F91CBD7FB570
:10793000DDE908458DE83C0004236A4601F038F98A
:107940007FBD00002DE9F0470E4680461C4692465A
:1079500008293ED894F80C90002020731946104650
:1079600000F0BEFD0025B54206D218F805201AA188
:107970002046FFF7BBFB03E019A12046FFF7B6FB4B
:107980006D1C082DEFD317A12046FFF7AFFB002594
:10799000B54210D218F80570FBF7CEFD0068C05D47
:1079A00010F03E0F01D03A4600E02E220EA12046F4
:1079B000FFF79CFB03E00DA12046FFF797FB6D1C32
:1079C000082DE5D301222146504600F06BFD84F8D6
:1079D0000C90BDE8F08700002025303278000000D0
:1079E000202020007C000000256300002000000013
:1079F000114810B5FF218160002101604160C0F88D
:107A00001814C0F8141480F81C140C4800F0F5F891
:107A100000280FD10A480B490B4B401AC10800201F
:107A200005E000BF00EB400223F82200401C884222
:107A3000F8D3002010BD00001C3600208C970200F7
:107A400008A00200B89F02005828002002480349FD
:107A5000401AC0087047000008A00200B89F02004A
:107A600013B56846FEF708FF08B100201CBD0248A8
:107A7000009950F831001CBDB89F020070B508484D
:107A80000125D0F8104480F81C5405E06572216887
:107A90002046496888476468002CF7D170BD000013
:107AA0001C3600202DE9FF4781460C9D00200C4626
:107AB0002F7B2873984616462946184600F010FD7D
:107AC000072E42D2DFE806F004090F161F2A3600FF
:107AD00049462846FFF70AFB37E049462846226810
:107AE000FFF704FB31E0D4E9002349462846FFF7BD
:107AF000FDFA2AE0A0680090D4E900234946284610
:107B0000FFF7F4FA21E0D4E90201CDE90001D4E95C
:107B1000002349462846FFF7E9FA16E004F1080079
:107B200007C88DE80700D4E9002349462846FFF737
:107B3000DDFA0AE004F108000FC88DE80F00D4E96F
:107B4000002349462846FFF7D1FA0022294640463D
:107B500000F0A8FC2F73BDE8FF872DE9F041058AEE
:107B600080462D1F4819C01CB0FBF5F0C6B2404638
:107B7000FEF707FF040019D000202071012060717A
:107B8000E58000272546761EC4F800800BE04046BD
:107B9000FEF7F7FE60B16179491C61712860054606
:107BA0007F1CC0F80080B742F1D32046BDE8F081C9
:107BB000204600F002F80020F8E72DE9F041457971
:107BC00001466B1E002201E00968521C9A42FBD359
:107BD0000F680146002605E038460C68FEF7F3FE04
:107BE0002146761CAE42F7D3BDE8F08108B50121ED
:107BF0006A46001DFBF7A5FB08BDFEF7FCBE38B5C5
:107C00000446001D01216A46FBF7A8FB009810F00E
:107C1000FF0F04D12046BDE83840FFF7CEBF38BD86
:107C200038B501240094FEF7EBFD38BD38B50024CB
:107C30000094FEF7E5FD38BDF8B504460D48012176
:107C40006A46FBF799FBBFF35F8F002500280AD136
:107C50000121084E042C09D0301F427822B100BF08
:107C6000BFF35F8F3560F8BD0470417000F0B2FE65
:107C7000F6E70000EC27002020B103490968016005
:107C8000002070470E207047189802002DE9FE432F
:107C900006460D460846FFF7EFFF00287ED18046D6
:107CA000CDF80080CDF80480012403208DF8006019
:107CB000ADF80400CDF808808DF802406946202018
:107CC0002A6869DF404F40B100F038FA0246388830
:107CD0003E4904EB0040FFF71BFECDF800808DF815
:107CE00000408DF80180CDF80480CDF808808DF833
:107CF0000280694640202A6869DF40B100F01EFA20
:107D000002463888324904EB0040FFF701FECDF807
:107D100000808DF80060F720ADF80200CDF80480F7
:107D2000CDF80880694623202A6869DF40B100F059
:107D300005FA02463888274904EB0040FFF7E8FDC2
:107D4000CDF8008002208DF80000CDF80480CDF839
:107D500008804646694601202A6869DF40B100F084
:107D6000EDF9024638881C4904EB0040FFF7D0FDCE
:107D70004FF4B0600090019602966946A1202A68EF
:107D800069DF40B100F0DAF902463888134904EBA4
:107D90000040FFF7BDFD0096019600E011E002965D
:107DA0008DF800606946A0202A6869DF40B100F0C4
:107DB000C5F9024638880A4904EB0040FFF7A8FDE0
:107DC0000020BDE8FE830000B8280020609E02006D
:107DD000A89E0200F49E0200C09D02000C9E0200BC
:107DE0006C9D020070B506680446314612A0FCF78F
:107DF0004BF8204660DF22680546B24212D0314679
:107E000012A0FCF741F81D4E2068306000F0E2FB44
:107E10002168411A1AA0FCF737F800F0DBFB216853
:107E2000401A306035B1284600F088F901461DA09F
:107E3000FCF72AF8284670BD52414D2073746172D8
:107E400074732061742030782578000052414D20F1
:107E500073746172747320617420307825782C20DB
:107E600063616E2062652061646A75737465642065
:107E7000746F20307825782E000000004C280020F8
:107E800052414D2073697A652063616E20626520DE
:107E900061646A757374656420746F203078257826
:107EA0002E00000073645F626C655F656E61626CDA
:107EB0006528292072657475726E65642025732E9D
:107EC0000000000030B5EBB04FF4CE74ADF8A8411F
:107ED0006AA9684661DF48B1052818D06BB00DA2C9
:107EE000BDE8304040F22711FCF72CBB6D46194924
:107EF00067A800F0DFF806E0D0E9002128469047A7
:107F000067A800F0EEF869980028DFD0F4E76BB0BE
:107F100030BD00002E2E5C2E2E5C2E2E5C2E2E5C94
:107F20002E2E5C2E2E5C636F6D706F6E656E74739B
:107F30005C736F66746465766963655C636F6D6DB1
:107F40006F6E5C6E72665F7364685F626C652E63F1
:107F5000000000001C98020010B50D4C2078A0B164
:107F60000120A07000F02EFC11280CD0022000F09F
:107F700041FC11DF002807D12070A07000F094FDB3
:107F8000032000F037FC002010BD082010BD0000C9
:107F90004828002038B5114C207808B1082038BD99
:107FA0000125A570002000F00DFC112814D0002040
:107FB00000F020FC0A480B4900680090684610DF7A
:107FC0000028ECD12570A070607000F039FE00F040
:107FD000A7FD012000F00EFC002038BD482800203D
:107FE000B0970200054402000EB50749684600F04C
:107FF00061F805E0D0E900108847684600F071F8A4
:1080000002980028F6D10EBDCC97020001480078F6
:1080100070470000482800200548817819B1007891
:1080200018B1FFF799BF08207047FFF7B3BF0000F2
:10803000482800201FB5684648DF40B1052816D003
:1080400004B00BA2BDE810406B21FCF77BBA1849C5
:1080500001A800F02FF806E0D0E900210098904731
:1080600001A800F03EF803980028E4D0F4E71FBD13
:108070002E2E5C2E2E5C2E2E5C2E2E5C2E2E5C2E3A
:108080002E5C636F6D706F6E656E74735C736F667C
:10809000746465766963655C636F6D6D6F6E5C6E4D
:1080A00072665F7364685F736F632E630000000025
:1080B00038980200016009684160AFF3008010B594
:1080C000D0E900215368994201D1002104E0D1E9AF
:1080D0000034A34202D01946816010BD08314160CE
:1080E000F0E7816800290BD0026892680A44826038
:1080F00041684B689A4203D108314160FFF7DFBF06
:10810000704700000C4A10B502F1F0030EE0991A16
:10811000C91001EBD171491002EBC1010C68844216
:1081200001D90B4602E005D201F108029A42EED3D2
:10813000002010BD486810BD9096020000B5FFF702
:10814000E1FF002800D1014800BD00007C9602003C
:108150004058002800D00120704708B50022425046
:108160004058009008BDD0F80403084000D001201A
:1081700070474058002800D00120704708B5002201
:1081800042504058009008BD70B50E460A469AB05D
:1081900001466846FBF7D4F9314C9DF80010201DCC
:1081A00000253A2901D1217819B121793A2912D033
:1081B00014E06178324608446946FBF7C1F96078FB
:1081C00030446070A179607900F0BEFEC01C608010
:1081D0000120207009E02178012933D065702570D5
:1081E0006580B421201DFBF7C4F96078618888425E
:1081F00026D3801EC1B2601DFBF778FA1849627859
:10820000C91C515C884214D11649A2794FF6FF73FC
:108210000A70E07B03EA0020237C18434880237A1D
:108220000B7111490B6823B10B3A0D4992B2113110
:108230009847B421201DFBF79CF925706580657077
:108240001AB070BD617862889142CED2084432463D
:108250006946FBF775F9607830446070C5E7000047
:1082600050300020902700208827002010B50446B9
:108270000078002814D1A1890AA0FBF705FE00218F
:108280000B4804E0A268525C4254491CC9B2A2895E
:108290008A42F7D8217BBDE810400548FFF774BF3C
:1082A00010BD00000D0A206C656E203A25640000A8
:1082B000EC2F002010B568B103280FD10220FDF784
:1082C000B1FB00280AD0BDE8104005A24FF4D571DB
:1082D000FCF738B9BDE8104000F0BABB10BD000093
:1082E0002E2E5C2E2E5C2E2E5C6D61696E2E630030
:1082F000007800280AD106483B21408976DF002813
:1083000004D004A240F26311FCF71CB970470000CE
:10831000702700202E2E5C2E2E5C2E2E5C6D616947
:108320006E2E63002DE9FC418E88027900EBC605B4
:10833000AC1D2A73C97B012902D0022904D101E0B6
:10834000008800E040882080218860880127DFF8CD
:10835000648081420CD930469EDF020025D0112A6C
:1083600025D0B8F80000144907EB0040FFF7D0FA19
:10837000A079E179884216D9002000900190287BED
:10838000ADF80000287BADF80200002269463046B7
:1083900090DF030007D0B8F80000324607EB00403A
:1083A0000649FFF7BCFABDE8FC816771E0E7277179
:1083B000DEE7000058280020CC9802009C990200BB
:1083C0007CB506468D88C88806EBC504A41D172811
:1083D00000D217202188814200D808466080002002
:1083E000207121882846ADDF020007D00E48012108
:1083F000008801EB00400D49FFF78AFA60790028F8
:1084000010D1306900280DD00948D0E90210CDE91B
:108410000010ADF802506088ADF80400326969467A
:10842000304690477CBD000058280020109902007B
:10843000009602007FB51A4D8188AA8891422DD1FD
:1084400010F8061F022929D14188EA88914225D1D6
:10845000017A042922D0062920D005291ED0841CA7
:108460000020009002210190029003908DF80010EE
:10847000297E19B101218DF8061001E040F2FD10AE
:10848000ADF80400A8886946A8DF1128FAD0BDF825
:108490000400002802D12046FCF73CFE7FBD00000E
:1084A000C43C002010B50C46C17949B11AB109A1EC
:1084B0002046FEF71BFE2046BDE81040FEF723BE17
:1084C000007A0028F3D0044804A102682046FEF791
:1084D0000DFEECE70D0A00002428002025730000A3
:1084E00070B50446C0790D4600281CD1207A50B1E1
:1084F000A179A088FFF7EAF80B4951F820200BA1D9
:108500002846FEF7F3FDA0880021FFF7A9FA0346ED
:108510000549A079143951F820202846BDE870405B
:1085200003A1FEF7E3BD70BD2428002025730000E1
:108530003C25733E2025733A200000002DE9F041D0
:10854000214C0025214E207A012730B92048311DC9
:108550000068FEF704FA306038B1022020723168FA
:10856000087928B101281ED116E06560BDE8F081C8
:10857000D1E90503C01A4FF48052904200D310464F
:10858000B7EB900F01D2820800E001220869C968A8
:108590001844194429DF03E0D1E90301084428DF26
:1085A00038B111280ED003213068FDF729FD25725E
:1085B000DBE7207C0028D9D1BDE8F0410021022072
:1085C000FEF7DEBE2772D1E7EC340020E027002062
:1085D0006C9602004FF08050D0F80C01800200F140
:1085E0000050704770B5012670044FF0E02100255F
:1085F000C1F88001084C4010C4F84803C4F80803CF
:1086000066602F20FEF7E8FAA660044C2F20A560D4
:10861000FEF7E2FAA57070BD00100140BC270020F3
:1086200070B50546C87D0C4600284FF48471284675
:108630000AD0FFF792FDD5F81805627EE1688854EC
:10864000607E401C607670BDFFF787FDD5F8180589
:1086500070BD30B58FB005461C216846FAF789FF1A
:1086600000249DF80000019440F00C008DF80000FB
:10867000039404940594069428788DF8360002201B
:10868000ADF834000C949DF83000142120F00F0058
:10869000401C20F0F00010308DF830009DF83100C3
:1086A00020F00F00401C20F0F00010308DF8310059
:1086B0009DF8320020F00600801C20F0180040F0E9
:1086C00001008DF8320007A8FAF753FF0DA80790B4
:1086D0000CA808900120ADF82400F420ADF8264045
:1086E000ADF82800688805F10C0307AA6946A2DFE7
:1086F0000FB030BD1FB501238DF800308DF8081084
:108700000192D0E90012684690471FBD10B504469B
:1087100000684FF49271FFF720FD4FF484712068D8
:10872000FFF71BFD20680121016010BD70B50D46EB
:108730000446FBF7C9FB70B12846FBF7D7FB68B1CD
:108740006807000E002C0CDA04F00F0101F1E021A3
:1087500081F8140D09E042F2010070BD42F20200FE
:1087600070BD04F1E02484F80004002070BD000016
:1087700038B50021012558B101280ED003280BD1AE
:1087800007210020FEF7A8FABDE83840FEF78EBAB0
:108790004FF0E020C0F8805138BD8DF800106846D9
:1087A000FCF778F8064C207808B9FEF75BFAE06829
:1087B000401CE060A5709DF80000FCF78FF838BD04
:1087C0007C3200203EB5044609496846FFF772FC3A
:1087D00008E000BFD0E900212046904730B168464C
:1087E000FFF77FFC02980028F4D13EBD11203EBD6A
:1087F000B49702003EB5044608496846FFF75AFCA4
:1088000007E000BFD0E90021204690476846FFF707
:1088100068FC02980028F5D13EBD0000C097020018
:1088200070B50028049D18D0002916D0002A14D055
:108830005FF0000430F814609E420FD10020012345
:10884000A34008E001EB800426680DB11E4300E060
:108850009E43401C26609042F4D370BD641C202CC3
:10886000E8D370BD70B5054600242146284600F0C7
:108870000AF808B1204670BD641CA4B2202CF4D3C1
:108880004FF6FF7070BD01228A40024201D00120E4
:108890007047002070472DE9F04192B080464FF0BC
:1088A000000017460D00009012D000246E46A1B2C1
:1088B0003846FFF7E8FF40B1009935F8140006EBA1
:1088C000410188800098401C0090641C202CEED34D
:1088D000442269464046FAF733FE12B0BDE8F08103
:1088E00008B5009313460122FFF79AFF08BD000068
:1088F0000EB500220092ADF80010019202920146DE
:108900006A460248FCF744FF0EBD0000E42E00203A
:1089100002498969002900D008477047A831002022
:108920002DE9F04114000F460DD000250A267919D3
:1089300022460020FBF72EF80544241A08B9761EBB
:1089400001D0002CF3D1BDE8F08100002DE9F04109
:108950000746806A14468846C8B3002531E000BF48
:10896000B96A05EB450001EB8006B088801CFE2843
:1089700002D90C20BDE8F0812288401C08F80200D2
:1089800020881622401C80B2208008F80020208811
:10899000401C80B2208000EB0801308800F0F5FC1C
:1089A0002188084480B22080B28842B1B16871B198
:1089B0004044FAF7C5FD2088B188084420806D1C2A
:1089C000EDB297F82C00A842CAD80020D2E7FFE702
:1089D0000720CFE770B5194D194C07E001682078E2
:1089E0008847002829D01548FFF77BFBA868002896
:1089F000F4D1FFF743F800BFFEF78EFE0028FBD14D
:108A0000207803280CD002280AD0FFF7FFFA00B123
:108A100032DF0C4901200860BFF34F8F20BFFDE714
:108A2000BFF34F8F08480168084A01F4E061114321
:108A30000160BFF34F8F00BFFDE770BD1035002010
:108A4000E8270020000500400CED00E00400FA05D6
:108A500010B50020FCF7E6FF20B10CA24FF4C8715E
:108A6000FBF770FDFCF764FF20B108A24FF4CA7158
:108A7000FBF768FD32DF002806D0BDE8104003A2F6
:108A80004FF4CC71FBF75EBD10BD00002E2E5C2EA6
:108A90002E5C2E2E5C6D61696E2E6300002801D164
:108AA000FDF706B97047000010B51620FBF70CFA69
:108AB00048B10B4882684FF4800162B1016821F42B
:108AC0008001016010BDBDE8104042F2010005A226
:108AD000A521FBF737BD4FF0E020C0F8801110BD95
