:020000040002F8
:1030000018510020E9350200F1350200F3350200C5
:10301000F5350200F7350200F93502000000000026
:10302000000000000000000000000000FB3502006E
:10303000FD35020000000000FF35020001360200ED
:103040007D390200033602001D3D020003360200F6
:103050000336020003360200A537020003360200E1
:103060000336020003360200033602000336020074
:103070000336020003360200033602000336020064
:1030800003360200D539020003360200033602007F
:10309000F939020003360200FD390200033602004E
:1030A0000336020003360200033602000336020034
:1030B000033602000336020000000000000000009A
:1030C0000336020003360200033602000336020014
:1030D000033602000336020003360200000000003F
:1030E00000000000000000000000000000000000E0
:1030F00000000000000000000000000000000000D0
:1031000000000000000000000000000000000000BF
:1031100000000000000000000000000000000000AF
:10312000000000000000000000000000000000009F
:10313000000000000000000000000000000000008F
:10314000000000000000000000000000000000007F
:10315000000000000000000000000000000000006F
:10316000000000000000000000000000000000005F
:10317000000000000000000000000000000000004F
:10318000000000000000000000000000000000003F
:10319000000000000000000000000000000000002F
:1031A000000000000000000000000000000000001F
:1031B000000000000000000000000000000000000F
:1031C00000000000000000000000000000000000FF
:1031D00000000000000000000000000000000000EF
:1031E00000000000000000000000000000000000DF
:1031F00000000000000000000000000000000000CF
:10320000DFF80CD000F090FA00480047A9730200E4
:103210001851002030B4044654E8000F0D4644E82D
:103220000053002BF8D1156030BC704730B4044611
:1032300054E8000F40EA010544E80053002BF7D1A1
:10324000156030BC704730B4044654E8000F00EA03
:10325000010544E80053002BF7D1156030BC7047DE
:1032600030B4044654E8000F80EA010544E80053F6
:10327000002BF7D1156030BC704730B4044654E8D9
:10328000000F00EB010544E80053002BF7D1156057
:1032900030BC704730B4044654E8000FA0EB010581
:1032A00044E80053002BF7D1156030BC7047000094
:1032B00030B450E8012F93B2C48923448489A342D7
:1032C00028BF1B1B0489A34202BFBFF32F8F00201E
:1032D00007E0C3EA020340E80134002CE9D14FF0D3
:1032E00001000A6030BC704750E8012FC2EA024278
:1032F00040E801210029F7D1704730B450E8022F8F
:103300001FFAA2F3C488A34202BFBFF32F8F00208D
:103310000DE0C48923448489A34228BF1B1BC2EA51
:10332000034340E80234002CE8D14FF001000A606A
:1033300030BC704750E8022FC2EA224240E8022126
:103340000029F7D17047034653E8022FD988B2EB22
:10335000324F4FF0000017BF92B241EA014142EAFA
:10336000014104E05A68B2EB324F08BF012043E844
:103370000212002AE8D1704730B4044654E8000F26
:103380000D4644E80053002BF8D1156030BC70475F
:1033900030B4044654E8000F40EA010544E8005305
:1033A000002BF7D1156030BC704730B4044654E8A8
:1033B000000F00EA010544E80053002BF7D1156027
:1033C00030BC704730B4044654E8000F80EA010571
:1033D00044E80053002BF7D1156030BC704730B47F
:1033E000044654E8000F00EB010544E80053002BAD
:1033F000F7D1156030BC704730B4044654E8000F74
:10340000A0EB010544E80053002BF7D1156030BC58
:103410007047000030B4044654E8000F0D4644E8FD
:103420000053002BF8D1156030BC704730B404460F
:1034300054E8000F40EA010544E80053002BF7D19F
:10344000156030BC704730B4044654E8000F00EA01
:10345000010544E80053002BF7D1156030BC7047DC
:1034600030B4044654E8000F80EA010544E80053F4
:10347000002BF7D1156030BC704730B4044654E8D7
:10348000000F00EB010544E80053002BF7D1156055
:1034900030BC704730B4044654E8000FA0EB01057F
:1034A00044E80053002BF7D1156030BC7047000092
:1034B00030B4044654E8000F0D4644E80053002B96
:1034C000F8D1156030BC704730B4044654E8000FA2
:1034D00040EA010544E80053002BF7D1156030BCE9
:1034E000704730B4044654E8000F00EA010544E890
:1034F0000053002BF7D1156030BC704730B4044640
:1035000054E8000F80EA010544E80053002BF7D18E
:10351000156030BC704730B4044654E8000F00EB2F
:10352000010544E80053002BF7D1156030BC70470B
:1035300030B4044654E8000FA0EB010544E8005302
:10354000002BF7D1156030BC7047000030B4044642
:1035500054E8000F0D4644E80053002BF8D11560E5
:1035600030BC704730B4044654E8000F40EA01050F
:1035700044E80053002BF7D1156030BC704730B4DD
:10358000044654E8000F00EA010544E80053002B0C
:10359000F7D1156030BC704730B4044654E8000FD2
:1035A00080EA010544E80053002BF7D1156030BCD8
:1035B000704730B4044654E8000F00EB010544E8BE
:1035C0000053002BF7D1156030BC704730B404466F
:1035D00054E8000FA0EB010544E80053002BF7D19D
:1035E000156030BC70470000064880470648004719
:1035F000FEE7FEE7FEE7FEE7FEE7FEE7FEE7FEE7A3
:10360000FEE7FEE7013A0200013202002DE9F05F19
:103610000546002092469B46884606468146402441
:103620001BE0284641464746224600F06CF85346C8
:103630005A46C01A914110D311461846224600F04E
:1036400053F82D1A67EB01084F462246012000214E
:1036500000F04AF817EB00094E41201EA4F10104C6
:10366000DFDC484631462A464346BDE8F09F00006D
:103670000048704744C6020040EA01039B0703D09C
:1036800009E008C9121F08C0042AFAD203E011F8A1
:10369000013B00F8013B521EF9D27047D2B201E063
:1036A00000F8012B491EFBD270470022F6E710B547
:1036B00013460A4604461946FFF7F0FF204610BDA0
:1036C000421C10F8011B0029FBD1801A704730B54D
:1036D00004460020034600E05B1C934203D2E05CFA
:1036E000CD5C401BF8D030BD202A04DB203A00FA24
:1036F00002F1002070479140C2F1200320FA03F349
:10370000194390407047202A04DB203A21FA02F046
:103710000021704721FA02F3D040C2F1200291400B
:103720000843194670470000064C074D06E0E06864
:1037300040F0010394E8070098471034AC42F6D3F8
:10374000FFF762FDCCCC0200ECCC020070B58C1807
:1037500010F8015B15F0070301D110F8013B2A11A5
:1037600006D110F8012B03E010F8016B01F8016B92
:103770005B1EF9D12B0705D40023521E0DD401F88E
:10378000013BFAE710F8013BCB1A921C03E013F857
:10379000015B01F8015B521EF9D5A142D8D300208C
:1037A00070BD00002DE9F04700268CB0DFF8609175
:1037B000B0464FF48075012437460696284604F03B
:1037C0005FFF38B1D9F80403204203D0284604F043
:1037D0004DFF26432D1D64007F1CADB2082FEDD395
:1037E0004FF4BE74204604F04BFF48B1204604F06D
:1037F0003DFF46F0004606AA0121002004F022FF0A
:10380000444D16F0FF0F15D00127002437420DD08C
:1038100009EB8401D1F81005D1F81015C0F304208C
:1038200055F82420C1F3014102B190477F00641C88
:10383000082CEBD3002E67DA4FF0FF30CDE908807B
:1038400000263446281910F8507F90F9000027F020
:10385000C008401C44D009A9404604F063F858B39E
:103860004FEA9719404602F07BF855F820701FB1D7
:10387000B9F1030F03D00FE0B9F1030F30D108A85D
:103880004FEAD80208F00703815C4FF0010C0CFAF4
:1038900003FC41EA0C0181544FF0A04101EB880088
:1038A000D0F8000706A9C0F3014A404604F03AF8F0
:1038B00018B1BAF1020F03D012E0BAF1030F0FD121
:1038C000B9F1030F08D1BAF1020F1BD00221404613
:1038D00004F09CFE761CF6B217B149464046B84744
:1038E000641C042CAED3002E0ED06A4601210020A9
:1038F00004F0A8FE06990098884205D00690089822
:1039000009909DE70321E2E70CB0BDE8F0870000D5
:10391000006000407828002000F01F020121914043
:103920004009800000F1E020C0F88012704700F0EC
:103930001F02012191404009800000F1E020C0F801
:103940000011704700F01F020121914040098000E2
:1039500000F1E020C0F8001270474907090E002866
:1039600006DA00F00F0000F1E02080F8141D704727
:1039700000F1E02080F80014704700002DE9F041CC
:103980004FF48077384604F08BF80124104EA507D9
:1039900048B1384604F08BF80120C5F8080374706C
:1039A000002002F001F84FF48277384604F078F8EE
:1039B00000280BD0384604F07AF80220C5F8080336
:1039C000B470BDE8F041012001F0EEBFBDE8F08128
:1039D0006428002007480021C0F84011C0F84411B5
:1039E000C0F84811C0F84C11C0F80011C0F804111B
:1039F00007F03ABF0010014007F084BE05F094BB09
:103A0000F0B5B5480023021D0178101D01254FF0C7
:103A1000805406290BD11678360708D10678C6F3EC
:103A20000316032E06D0042E04D0052E02D006293C
:103A300007D00EE0B4F82463A84FC6F304263E6016
:103A400002E01678360704D10678C6F30316032E73
:103A500002D0062904D00FE0A24FA14E7E670EE0EF
:103A60001678360708D10678C6F30316032E06D05B
:103A7000042E04D0052E02D0062907D00EE0D4F87B
:103A80004462994FC6F342363E6002E0167836072C
:103A900004D10678C6F30316032E02D0062906D0F9
:103AA00011E0924E376827F0807737600EE0167885
:103AB000360708D10678C6F30316032E06D0042E67
:103AC00004D0052E02D006290AD011E04FF080461E
:103AD000C6F80C31C6F81031834E361F336002E051
:103AE0001678360704D10678C6F30316032E02D0E3
:103AF000062905D00CE07C4F032664373E600AE0BF
:103B00001678360704D10678C6F30316032E02D0C2
:103B100006290DD014E0764F05263E60744E7836A7
:103B20003560734E083633603F263F1D3E6002E02D
:103B30001678360704D10678C6F30316052E02D090
:103B4000062957D062E06B4E36686B4F3E60694E77
:103B5000361D36683F1D3E60664E083636683F1D8E
:103B60003E60644E0C3636683F1D3E60614E103636
:103B700036683F1D3E605F4E143636683F1D3E601E
:103B80005C4E183636685C4F20373E60594E1C3606
:103B900036683F1D3E60574E203636683F1D3E60FA
:103BA000544E243636683F1D3E60524E28363668E5
:103BB0003F1D3E604F4E2C3636683F1D3E604D4ED9
:103BC000303636684C4F40373E604A4E34363668A1
:103BD0003F1D3E60474E383636683F1D3E60454EBD
:103BE0003C3636683F1D3E60424E403636683F1DCB
:103BF0003E6002E01678360708D10678C6F3031651
:103C0000032E06D0042E04D0052E02D0062907D09C
:103C100019E0D4F85812394A01F04F01116002E05E
:103C2000117809070FD10078C0F30310032803D0DF
:103C3000042801D0052806D131480168C90702D0FF
:103C40006FF001010160D4F83001062808D1D4F8E2
:103C50003401062804D12B48016841F480610160D9
:103C600022487438016841F470010160BFF34F8F3E
:103C7000BFF36F8F4FF01021D1F80002002803DB53
:103C8000D1F80402002822DA1F4A15601F48046890
:103C9000002CFCD01524C1F800420568002DFCD092
:103CA000C1F8044201680029FCD0136001680029B2
:103CB000FCD0BFF34F8F0D48F0380168144A01F46F
:103CC000E06111430160BFF34F8F00BFFDE7124970
:103CD00010480860F0BD0000E00F00F040350140E2
:103CE0000DF0ADBA00C007403C050040FCED00E01F
:103CF000105600400404001020C50040E40E0040AF
:103D0000000400403C17004004E5014000E401408D
:103D10000400FA050090D003D42200200448017F5B
:103D200004480029024901D007F0B3BE07F022BEC3
:103D3000D02800200020004002E008C8121F08C15F
:103D4000002AFAD170477047002001E001C1121F1C
:103D5000002AFBD1704700000121202803DA8140AE
:103D60000548014003E0402802DA2038814009B1CB
:103D70000120704700207047FC06FFBD082806D2CE
:103D800028B1012803D0042801D001207047002069
:103D9000704710B560B159B102780B785208B2EB98
:103DA000530F05D10622401C491CFFF790FC08B1B7
:103DB000002010BD012010BD800701D000207047F9
:103DC00001207047C3688B4206D811440069491E20
:103DD000814201D8012070470020704710B50122B0
:103DE0000221002001F0DEFB08B1072810D10722D4
:103DF0000221012001F0D6FB08B1072808D10021DB
:103E00000A22084601F0CEFB08B1072800D10020A5
:103E100010BD000010B550B10A480321008801EB25
:103E2000004009A104F000FE06F074FB03E003214A
:103E3000094800F0B3FC002803D0BDE8104000F0B2
:103E4000C5B810BD34230020457261736520626FD0
:103E50006E647321000000007823002070B58CB0E0
:103E600015460E4600236C46C3F10F01415CE15438
:103E70005B1C102BF8D30D2104F11000FFF715FC8B
:103E80000020C0F10F02315C2244401C1174032851
:103E9000F7D3684643DF0020C0F10F01214491F8B9
:103EA00020102954401C0328F6D30CB070BD02200A
:103EB00001F070BA0149097900F0D6BDE421002073
:103EC00070B50024064D06E06868012110F8340042
:103ED00003F052FF641C28788442F5D3002070BDA3
:103EE00008220020F8B515460C460646052A01D2E0
:103EF0000720F8BD04F026F818B903F0F5FF0028F4
:103F0000F7D1104900204E600C70C1E902500E4DEF
:103F100008610DE006EBC4006968009181788DF8B6
:103F200001100078094A694603F078FF0028E0D1C3
:103F3000641EE4B2EED2BDE8F840054A0021024812
:103F400000F096B80822002050C302005567020016
:103F5000155C020004F020FE04F06EFC0028FBD18A
:103F6000104C0121208801EB00400FA104F05CFD02
:103F700010480068C00700D000BE2088022101EB75
:103F800000400DA104F050FDBFF34F8F0948E43805
:103F900001680D4A01F4E06111430160BFF34F8FE6
:103FA00000BFFDE734230020466174616C20657218
:103FB000726F7200F0ED00E053797374656D2072DA
:103FC00065736574000000000400FA050EB5002159
:103FD0000091CDE901106A4644F20100FFF7BAFFF3
:103FE0000EBD000070B502280DD1084C032508A1B4
:103FF000208805EB004004F017FD208810A105EB98
:10400000004004F011FD012070BD000034230020A9
:10401000506F776572206D616E6167656D656E7456
:104020002077616E747320746F20726573657420DD
:10403000746F20444655206D6F64652E00000000AB
:10404000506F776572206D616E6167656D656E7426
:1040500020616C6C6F77656420746F207265736586
:104060007420746F20444655206D6F64652E0000E7
:10407000074B9B7823B12AB120B10068037C1BB1A8
:104080000820704707207047417442610020704744
:104090001029002070B506F009FD104800240B21FE
:1040A000047044700E4D817014206C602C706C7024
:1040B000FFF732FC07211420FFF74FFC1420FFF715
:1040C00036FC0848046007211120FFF746FC05482C
:1040D000001F0068A860002070BD000010290020AB
:1040E0001C220020081501402DE9FC47DFF87890DC
:1040F00099F8023073B368B3052902D20720BDE8EE
:10410000FC87436933B3437C012B25D00027044649
:104110000025884616468DF80050684600F038F8AD
:1041200001A807F0DDFDC8B1012101700F4944600D
:104130000968C0E90218C0E904769DF8040089F80E
:1041400001009DF8000000F047F81420FFF7FAFB8B
:104150002846D4E70820D2E70F46D8E704259DF883
:10416000000000F039F8F3E71029002004150140A1
:104170000649897839B130B1416921B10021017412
:10418000022107F04DBB08207047000010290020D5
:1041900030B5EFF3108172B60D4A9468012324B153
:1041A0000370002900D162B630BD93604FF0E02368
:1041B000D3F88051074C25401560C3F88041D3F8EF
:1041C000844154605A17C3F8842100220270E8E742
:1041D0001C2A0020FC06FFBD0B498A68002A11D06A
:1041E00000280FD1EFF3108072B60B684FF0E02279
:1041F000C2F800314B68C2F8043100228A600028FE
:1042000000D162B6704700001C2A00202DE9F04161
:10421000064608680C46411C4FF0A0474FF00105C8
:1042200006D005FA00F1C7F80815206804F0D3F9A4
:104230006068411C02D0002104F0C4F930792049A3
:1042400001EB4010A169007F00283068C0F82415F8
:1042500025D0607D227D31681043C1F86C05D4E91A
:1042600000123068C0F80C15C0F8142524E0A068CE
:10427000411C02D0002104F0A5F9E068411C05D0E2
:104280008540C7F80855E06804F0A5F9D4E90212A2
:104290003068C0F80825C0F81015BDE8F081607DD1
:1042A000217D32680843C2F86C05D4E900123068F9
:1042B000C0F81425C0F80C15207D0128D7D0ECE7F4
:1042C000D02800202DE9F047074600888EB08046B0
:1042D00000F08EFB0646404602F0BAFC82460446D9
:1042E0002E4800252A460178404600F0D3FB002ED8
:1042F00050D07879400734D501254FF6FF7603ABCF
:104300002A460721504605F07DFA010004D04046B8
:1043100006F044FE00252BE0B1463146049802F039
:10432000EBFB064648450FD004460146404602F0E6
:1043300079FC4046FFF7BEFD30B9404606F000FE6E
:104340004046FFF7B7FD48B122460721504605F029
:10435000EFFA010003D0404606F020FE00254E454E
:1043600006D0404605F052FC10B1504602F05CFC0D
:1043700002208DF81800ADF81A807879400701D531
:10438000012000E002208DF820008DF8215006A8C1
:1043900001F08CFD0EB0BDE8F0870000E4210020A4
:1043A0002DE9FC47002517880646158090F82D005A
:1043B0001446894630B13A462146484600F082FB11
:1043C000050009D1B0784FF00C0A18B32088C84610
:1043D000001DB84202D95046BDE8FC87684679DF27
:1043E0000028F9D12088032108F80010208819211D
:1043F000401C80B2208008F800102088401C80B249
:10440000208000EB0801BDF8000007F0BAFB21880E
:1044100008442080F0780222C8B1218896F9033040
:1044200001F1030C4846BC45D5D8425421884FF0D1
:10443000010C491C89B2218000F801C02188491C67
:1044400089B2218009F801302088401C20807068E2
:10445000B8B1218890F9003001F1030C4846BC4501
:10446000B9D8425421880A22491C89B22180425479
:104470002188491C89B2218009F801302088401C1C
:104480002080308950B1CDE900474B4606220221F9
:1044900006F1080007F03CFC05009DD1308A50B1C0
:1044A000CDE900474B460722032106F1100007F033
:1044B0002FFC050090D1308B50B1CDE900474B4621
:1044C0001522142106F1180007F022FC050083D103
:1044D000306A30B13B462246494601F0CFFA05002A
:1044E000DBD1706A30B13B462246494603F050F8B2
:1044F0000500D2D196F82C0038B13B4622464946F9
:10450000304606F0DBFD0500C7D1307838B13B46B8
:1045100022464946304603F0C3F80500BDD128467F
:104520005AE7F0B50C4693B01F210726ADF80010EE
:10453000ADF80410002750B1C17849070DD56A467F
:1045400002A9FFF72DFF002808D102AD02E00025E7
:10455000ADF800706CB1E07810B1304613B0F0BD2A
:1045600001AA0AA92046FFF71BFF0028F6D10AAAD4
:1045700002E00022ADF80470BDF80400C3B2BDF83B
:104580000000C1B2284672DFE8E780F824107047C7
:1045900070B50D00044653D0F4B3012020700026FE
:1045A000E670202205F17801201DFFF765F884F8F8
:1045B0002460D5F89800C4F8CC00D5F89C00C4F865
:1045C000D0004FF6FF70A4F8C800C4F82560A4F826
:1045D000296084F82B6004F130003C210646FFF787
:1045E00064F8287884F83000A87884F83200E878F5
:1045F00084F83300687884F83100D5E90401C4E90F
:104600001001D5E90201C4E90E01D5E90601C4E9AA
:10461000120195F82D0000E012E084F85D00686A50
:10462000D8B104F1780104F16C0061676065696AD2
:1046300009880180686A616D80888880002008E0B0
:104640000E2070BD696A22188968095C82F87810AA
:10465000401C616D89888142F4D8A86AE8B104F1F0
:10466000A400C4F8A0000C38A065A96A89888180DC
:10467000A86AA16D00880880002006E0A96A2218B7
:104680008968095C82F8A410401CA16D8988814268
:10469000F4D895F82C0084F85C00286A48B104F13D
:1046A000C4002065296A49884180286A216D0088F4
:1046B0000880686800B1606305F13C013046BDE8E0
:1046C0007040FFF72EBF10B50288102A1AD0112AA9
:1046D0001FD01B2A1CD1007A0C46002818D1E07884
:1046E0000521401CB0FBF1F201FB1201204600F055
:1046F00055F800280CD0D4F8D010002908D0BDE817
:1047000010400847C27B012A02D18088A1F8C80066
:1047100010BD0C46002184F8D4108088B4F8C8106D
:104720008842F5D120790028F2D10121DEE710B5C9
:104730000C46022801D0032811D1607800280ED041
:1047400000206070E178204600F028F8002806D0AC
:10475000D4F8D010002902D0BDE81040084710BDA1
:1047600010B5044674DF012084F8D400002084F8DA
:10477000D600062084F83300002104F13000FFF752
:10478000D0FE002809D1E178204600F007F818B1E2
:10479000D4F8D01001B18847002010BD2DE9FF47A3
:1047A000044600780F4638B1E770002003F002FE9F
:1047B000012628B16670D2E0082004B0BDE8F08779
:1047C0000025C4F82550A4F8295084F82B50A0796E
:1047D00010B1E078012806D0E07970B1E0780128C6
:1047E00001D0022809D1D4F8CC1021B184F82C6072
:1047F0000820884701E084F82C5004F126010020AD
:104800000A5C0AB1304603E0401C0628F8D30020B9
:104810004FF002084FF0030A4FF00409012F06D0B1
:10482000022F09D0032F0CD0042F12D10DE0A17953
:1048300011B108B130460DE0E17911B108B140463F
:1048400008E0207A08B1504604E0607A08B1484692
:1048500000E02846E070D4F8CC1041B1032801D024
:10486000042804D1607910B194F8D400A8B184F878
:10487000D55000950295019503958DF800508DF85F
:104880000850E17804F1250004F13002052958D2DE
:10489000DFE801F0670A131F3B0084F8D65084F864
:1048A000D56007208847E4E7A67001908DF8006086
:1048B000ADF80C50ADF80A5043E084F80280019046
:1048C0008DF80060208AADF80C00A089ADF80A00D0
:1048D00037E0A08AADF80A00208BADF80C006079B3
:1048E00080B194F8D40068B994F8D60050B18DF82E
:1048F000088084F8339000211046FFF712FE00BBB9
:1049000005211AE084F802A01BE0A08BADF80A0094
:10491000208CADF80C00607988B194F8D40070B99F
:1049200094F8D60058B18DF8088084F833900021AF
:104930001046FFF7F6FD20B90621A17001E084F8CA
:104940000290E07830B194F82410684673DF0028B4
:104950007FF433AFD4F8CC1009B1A0788847002099
:104960002BE7A570F6E7000070B5040012D00146F1
:104970001C221448FEF780FE1248134D0560206883
:1049800050B17ADF002806D12068016829604068AC
:10499000686005E00E2070BD0B487BDF0028FAD16F
:1049A00008484FF6FF711438084A20F8041B0549DF
:1049B000343901600021FFF75BFB0028EBD00320B6
:1049C00070BD0000F0240020A021002061BC020086
:1049D00002494A6C091D06F073B900000C2500203D
:1049E00002460248016D001D06F057B90C25002053
:1049F00070B50A4E054600242A46301D716C06F03B
:104A00004CF940B12A46301DF16C06F046F908B168
:104A1000022400E00124204670BD00000C25002087
:104A200010B50024204607F04FF928B1641CE4B209
:104A3000182CF7D3182010BD03480122A2400168AA
:104A400011430160204610BD0C25002010B504461E
:104A500007F03AF9002803D0024800EB8400806D8B
:104A600010BD00000C25002070B505460C46084618
:104A700007F02AF9002809D005482A4600EB8401EE
:104A8000001D896DBDE8704006F007B970BD0000DB
:104A90000C25002070B5064615460C46084607F062
:104AA00013F900280AD006482B4600EB8401324651
:104AB000BDE87040001D583106F027B970BD0000F8
:104AC0000C2500207CB5054608880C46093090422C
:104AD00001D90C207CBD68466DDF0028FAD1218801
:104AE0000820685420881B21401C80B22080295453
:104AF0002088401C80B220802844DDF8011001602D
:104B0000BDF8051081802088801D80B220809DF82E
:104B10000010490800D0012129542088401C208021
:104B200000207CBD10B503F011F8002809D105481C
:104B30004FF0030C00DF002803D1BDE8104003F064
:104B400069B810BD3C28002018B103490860002056
:104B500070470E20704700000422002010B54FF06F
:104B6000FF3100203BDF00280BD1B1213ADF0028C4
:104B700007D10448416901208847022004F034F934
:104B8000002010BD20280020044810B500684169AD
:104B900000208847BDE81040FFF7E0BF0422002056
:104BA00030B58FB005461C2101A8FEF77EFD00241C
:104BB000142109A80894FEF778FD9DF820000094C0
:104BC00020F00F00401C20F0F00010308DF8200085
:104BD0009DF82100029420F00F00401C20F0F0000E
:104BE00010308DF821009DF82200049420F006007A
:104BF000801C8DF822009DF8040009AA40F02800CE
:104C00008DF8040008A8CDE90540079428788DF8B0
:104C10003A000320ADF838009DF80000ADF82C40B4
:104C200020F00F00401C20F0F00010308DF8000044
:104C30009DF80100ADF82E4020F00F00401C20F040
:104C4000F00010308DF801009DF802000D9420F066
:104C50000600801C20F0080040F011008DF80200D2
:104C60000EA809901720CDF828D0ADF8300068883C
:104C7000AB1D01A9A2DF0FB030BD000010B5164C6E
:104C800086B01ECC8DE81E0020B3144C4FF6FF7189
:104C9000A180006860610020607620762046FFF7E2
:104CA00053FF002814D101208DF812004FF65960EF
:104CB000ADF81000A21C04A90120A0DF002807D134
:104CC0002146684662DF002802D12046FFF768FFD0
:104CD00006B010BD0E20FBE73CC3020020280020D8
:104CE00010B500280FD00188204C502926D00BDCAD
:104CF00010291DD0112906D1A1888088814202D1B6
:104D00004FF6FF70A08010BD512913D05329FAD15E
:104D1000C088E1888842F6D1607E0028F3D0FFF792
:104D200033FF0028EFD06169BDE81040022008473A
:104D30008088E7E7BDE8104004F04CBB30F8061F60
:104D400062899142DFD141890229DCD10C3000F027
:104D500003FB0749207603220988BDE8104002EBD7
:104D60000143024603A1184603F062BE202800203A
:104D700034230020526563656976656420696E643A
:104D800069636174696F6E20737461746520256452
:104D9000000000002DE9F0410546007B0426234C6D
:104DA0004FF0010801280FD002281FD00226287BCF
:104DB0004FEA060100F064F8002832D0206841690B
:104DC000BDE8F0410320084720680027817E11B12B
:104DD00006210120EEE780F819800121084600F045
:104DE0004FF800281DD020684776E0E76A7B142A38
:104DF00019D8C2B10E4F05F10E01381DFEF73CFC6B
:104E0000687BB86121683846897E0029CFD1A0F13E
:104E10000C010A68011F90470028C8D1216881F859
:104E20001A80BDE8F0810526C1E7000004220020B9
:104E30004828002070B5104900250A68002A19D0BA
:104E40004A68002A16D008319047112812D00B4C1E
:104E50000028206885760BD00421022000F010F88D
:104E6000002807D020684169BDE87040032008474A
:104E70000121F2E770BD00003C2800200422002040
:104E800086B00323ADF8003020238DF814308DF860
:104E9000150000220E48019202928DF81610C1886A
:104EA000ADF8041002218DF8061005A90491ADF8A3
:104EB0000820CDF80CD0808801A9A6DF002804D1F5
:104EC000BDF80010032900D00C2006B07047000088
:104ED000202800200F4A0321128801EB024268B10A
:104EE00001280ED00B4A01210228128801EB024250
:104EF0000AD0032810460AD007A109E0104610A1E5
:104F000006E010461AA103E0104622A100E030A1FD
:104F100003F08ABD34230020556E6B6E6F776E20D0
:104F20006576656E742066726F6D20626C655F6475
:104F300066755F627574746F6E6C6573732E0000B6
:104F4000446576696365206973207072657061726B
:104F5000696E6720746F20656E74657220626F6F72
:104F6000746C6F61646572206D6F64652E00000063
:104F70004465766963652077696C6C20656E74653D
:104F80007220626F6F746C6F61646572206D6F6404
:104F9000652E00005265717565737420746F20650D
:104FA0006E74657220626F6F746C6F6164657220DD
:104FB0006D6F6465206661696C6564206173796EEC
:104FC0006368726F6E656F75736C792E00000000F8
:104FD0005265717565737420746F2073656E6420FB
:104FE0006120726573706F6E736520746F20636CDF
:104FF00069656E74206661696C65642E000000004E
:1050000010B50446008888B021281FD00EDC012886
:1050100029D0102808D1072000F0E6FA08B1FEF7E1
:10502000D5FF2449A088088008B010BD3B2816D0C1
:1050300051281CD05628F7D1A088132176DF0028EC
:10504000F2D008B0BDE81040FEF7C0BF00200090CD
:10505000A08869468FDF28E0FEF7B8FFE4E7A08864
:10506000132176DFEBE7A088002166DFE7E7102257
:10507000A11D04A8FEF700FB9DF810100029D3D055
:105080009DF81800042803D0062801D00528CBD1AC
:1050900002290DD05FF001008DF800004FF4C170BF
:1050A000ADF80400A0886946A8DF0028D4D1BBE78A
:1050B0000220F1E78021002010B51A4C01886068B9
:1050C00010290ED011292BD1401E606028D1FEF787
:1050D00085FE002824D02168002921D0BDE8104099
:1050E0000847D0B900210122084600F05BFA08B158
:1050F00007280FD107220221012000F053FA08B13E
:10510000072807D104220221002000F04BFA20B129
:10511000072802D0216801B188476068401C6060A0
:1051200010BD0000982100202DE9F04701883B4E7A
:1051300040F2F3194FF6FF7510291BD011293ED00C
:10514000122954D0502946D1C188F289841D914238
:1051500041D1618902293ED18688304601F026FE80
:10516000050038D004F10C0000F0FAF8A8B3294685
:1051700030464EE0C17B8788044601292BD1A846E2
:10518000284601F013FE050017D02F80002028725A
:10519000234843464A460168C5F80A104068C5F8E6
:1051A0000E0004F1100105F10A0001F0A1FE687281
:1051B000F08900280FD129462AE0042013E08088D6
:1051C00001F0F4FD040006D06068FEF7D1FF08B1DD
:1051D00005F0C8FE2580BDE8F087FFE76868FEF7A8
:1051E000C7FF0028F7D0BDE8F04705F0BBBE8788B1
:1051F0000646384601F0DAFD0400ECD02B464A465C
:1052000006F1080104F10A0001F072FE6072214605
:105210003846BDE8F04700F077BC0000F0240020DD
:10522000A02100202DE9F047044603883F480122D1
:10523000A4B000F1480A102B09D0112B54D01A2B1E
:1052400070D1217AB2EB111F53D2012352E0D0E981
:1052500011218A430546011D12A805F031FD4422A3
:1052600012A901A8FEF708FADFF8C0900026374619
:1052700009F144090DF104080AE000BF08EB4600FB
:105280001D2283884946281D009705F0CBFC761C1B
:105290000198B042F2D8686CA688C04305F0E4FCDF
:1052A000A0F57F41FF3917D005EB40000123868030
:1052B00032465146281D05F028FD01233246494655
:1052C000281D05F022FDE07B02280BD000231749A2
:1052D000A2884C31281D20E024B00420BDE8F0470E
:1052E000FEF774BE0123F2E70023A2885146001D99
:1052F00013E000230D490546A2885031001D05F03A
:1053000004FD207A0221B1EB101F01D2012300E03D
:1053100000230649A2885431281D24B0BDE8F04777
:1053200005F0F3BC24B0BDE8F08700000C25002098
:1053300010B504460748007800280AD0204601F03E
:1053400061FB204605F050FF2046BDE8104001F00B
:10535000DBB810BDD42100200078C0F340007047B6
:10536000007800F0010070470149085C70470000B8
:10537000F4C102000649095C4FF0A040D0F81005C6
:10538000C84010F0010000D0012080F001007047FB
:10539000F4C1020007490B5C4FF0A041D1F804258D
:1053A0000120984020EA0203C1F808351040C1F8F6
:1053B0000C057047F0C102000249085C012103F0AE
:1053C00036B90000F0C102000249085C002103F078
:1053D0002EB90000F0C102000649095C4FF0A04060
:1053E000D0F80405C84010F0010000D0012080F082
:1053F00001007047F0C102007CB50024084E25462C
:105400000122305D009500231146019503F09BF8C1
:10541000641C042CF4D3BDE87C4000F003B8000009
:10542000F0C1020010B500242046FFF7C5FF641C40
:10543000042CF9D310BD10B500242046FFF7C4FF9B
:10544000641C042CF9D310BD10B50246064B4FF076
:10545000FF3000215C5C944201D1084610BD491C1C
:105460000429F7D310BD0000F4C1020070B50C4E42
:105470000C004FF0000530600BD0012000F06AF8FE
:1054800008B1022004E0002000F064F800B10B2015
:105490002070706810B9FEF7A1FC0546284670BD63
:1054A0009821002010B5002000F0D0F908B106289E
:1054B00006D1012000F0CAF908B1062800D1002069
:1054C00010BD00002DE9F0470D468146FFF7BCFFF7
:1054D0000446042836D2DFF874801B481C4EA8F11D
:1054E0000C0725B3012D0ED0022D2BD104EB440067
:1054F00030444578002D25D0B968002922D02846AF
:10550000BDE8F047084704EB4401755C0E44717830
:1055100049B10E4A4FF40041093A8068FEF7E4FDB4
:1055200008B987F80390B17808F80410E2E78068BA
:10553000FEF71EFE04EB4401314418F804008D7898
:10554000A842D7D0BDE8F087F8C10200942100201E
:1055500090240020FFF70EBF0146104810B50088C8
:10556000042907D007290ED00A2915D1BDE810401B
:1055700005F026BE132176DF0CE000280CD0BDE834
:105580001040FEF723BDA0F57F41FF3904D1044848
:10559000FFF7E6F80828F0D110BD000080210020B8
:1055A0007823002070B50023042810D20D4D00EBA5
:1055B0004004012A02D101290CD00022094E00EB3F
:1055C0004000304461B1012906D0022906D00723EA
:1055D000184670BD0E30C2B22A55F9E74270F7E79F
:1055E0008270F5E790240020044A014600201279D9
:1055F000D20702D0084600F04DB87047882100203D
:1056000070B506461E480024C0E90161B00720D5E8
:105610000025012211462846FFF7C4FF6D1C0446F1
:10562000042D02D2002CF4D013E094B940F266624B
:1056300004211448FEF756FC04000AD1FEF740FC92
:10564000040006D10F48104A0021001FFEF710FD8C
:105650000446F00701D0FFF7CFFE74B909480B4AA2
:1056600000210C38FEF704FD040006D10548084A65
:1056700001210838FEF7FCFC0446204670BD0000FE
:105680008821002004C20200F5580200856F020044
:10569000AF3E02002DE9F05F6A4C054600266078B7
:1056A000B34618B184F801B001F054FC664F4FF4D2
:1056B0007A694FF4C87A4FF00108182D62D2DFE8FA
:1056C00005F0AC0C0C31404D62676B746B74BE7DA1
:1056D0007D7D7D7DACAFB2B5BEBE0020FFF77CFE08
:1056E00000284FF0000008D0FFF766FE022D02D11F
:1056F0004FF4E16008E0484606E0FFF765FE022D42
:1057000001D1C82000E05046410CC0034FF4FA72AA
:10571000801841F10001257052000023FDF776FF4B
:1057200001462AE00020FFF757FE00284FF0000056
:1057300004D0FFF741FE4FF44870E5E7FFF744FE61
:10574000DFE70020FFF748FE00284FF0000002D0FE
:10575000FFF732FECFE7FFF737FED4E70020FFF771
:105760003BFE00284FF0000002D0FFF725FE01E0CD
:10577000FFF72AFE257041F69A1100223868FEF7DD
:10578000B3FC064646E00020FFF704FE257008E063
:10579000002051E025703DE084F801800120FFF7F2
:1057A000F9FD002240F6CD41E8E784F801800120B0
:1057B000FFF7F0FD00224FF48041DFE77868FEF745
:1057C000D7FC0646D5F1110000D02EB10220FFF71C
:1057D000F3FD84F802B01DE0012816D980B2C8217B
:1057E0004843C117C90341EA5041C0034FF4FA725C
:1057F000801841F1000152000023FDF707FF014628
:1058000000227868FEF770FC06460220FFF7DCFDF8
:1058100084F802803046BDE8F09F01F09BFBB9E7B9
:1058200001F098FBB4E701F095FB04E001F092FB76
:105830000020FFF7C9FD0120FFF7C6FDAAE7FFF72B
:10584000FAFDA7E788210020F8C1020010B5FFF794
:105850008BFD032102F0C9FE002010BDF8B5871CA6
:1058600000208DF800000E4601256846FEF790FCEA
:10587000124C20683060D4E90001401AA168091A6E
:10588000BE1C06E001F046FDD4E90001401AA16803
:10589000091A491C8E42F5D8A1682068084004EB1B
:1058A0008000C16841F00301C16020683844206075
:1058B0009DF80000FEF790FC2846F8BDF42C00206F
:1058C00030B482680468531C8360A154D0E901128B
:1058D0008A4202D330BC02F044BC30BC70470000A6
:1058E000034803C8814201D101207047002070475E
:1058F000F42C002000780221FFF7E4BD05494FF0A9
:10590000FF32082841F8202002D3084480F84820BC
:105910007047000078280020F0B54FF0FF3512B135
:105920000023082601E008230C260C4C05E000BFEC
:1059300054F823707F1C04D05B1CB342F8D3284674
:10594000F0BD26185DB286F8305044F82310002AC6
:10595000F5D1E11881F84800F1E70000782800202F
:105960000249084490F93000704700007828002070
:1059700070B504464FF6FF750A462846AC4208D17A
:105980004FF480742146104604F08EFCA04209D0EA
:1059900070BDFF2CFCD82146104604F078FC08B1FD
:1059A000204670BD284670BD70B5084C050009D072
:1059B00010342168002907D008682060496828460B
:1059C0008847F6E70834F4E770BD0000642800203B
:1059D0002DE9F05F26484168F1B3DFF898B00E6812
:1059E0008146DBF8004087688078E11B21F07F4525
:1059F000ED1CB0B9DFF880804FF48030C8F8440364
:105A0000C8F804031120FDF787FF1120FDF78FFF71
:105A10004FF0010AC8F800A02F2002F051F889F8D1
:105A200002A0B54200D23546124BE8193C3320F0B3
:105A30007F401860DBF800105A46091B21F07F41B7
:105A4000001B20F07F40C91C81420FD910681860EC
:105A50002F2002F035F800E004E0BDE8F05F1120EF
:105A6000FDF770BFBDE8F05F05F020B8BDE8F09F1E
:105A70001C22002004150140001001402DE9F041D6
:105A800017880646B81D14460D46984202D90C20C8
:105A9000BDE8F0813188072206290AD34FF4486C0B
:105AA0004FF6FF73614501D9994202D170880628EB
:105AB00001D21046ECE7604501D99842F9D19942EC
:105AC00003D0984201D08142F3D80520E8552088C0
:105AD0001221401C80B2208029542088401C80B2B2
:105AE00020804119308806F04CF82188084480B2A3
:105AF00020804119708806F044F8218808442080ED
:105B00000020C5E7FEF762BA38B54A7A0F4B62B19A
:105B100000220A725969002906D001228DF800205E
:105B2000ADF802006846884738BD0A7A62B19B68C2
:105B30004C68024619462046FEF7D6FA0028F3D0F4
:105B4000BDE8384005F00EBA5B68F1E7F0240020AC
:105B5000F0B585B016460F4604461D4614220B4983
:105B60006846FDF789FD0A488DF80870ADF80240D7
:105B7000ADF80A608DF80C50017800222046FEF73F
:105B800089FF684600F092F905B0F0BD10C302002D
:105B9000E42100207FB50C4610B1012004B070BD97
:105BA0002079002638B141F61D5501281BD0022866
:105BB00026D00F20F2E70220207102960396E068BB
:105BC0000190694601A804F0CDFE50B10298818889
:105BD000E18000882081BDF80010029804F040FFA9
:105BE000DCE70A20DAE70A4B6A460021A01D04F030
:105BF00075FE38B1064918398E61CE610A28CDD1BB
:105C00002846CBE702488188019804F029FFF5E790
:105C1000482200202DE9F04100260125144C22E005
:105C20006068226900EBC607387805FA00F1114276
:105C300017D08A43226102F04DF902463878E368B2
:105C400005FA00F1194002FA00F3994209D1797876
:105C5000012901D0012100E0002151407A6802B100
:105C60009047761CF6B220788642D9D3BDE8F08101
:105C7000082200200E4910B50A784C780023A24271
:105C800012D0521CD2B20A70022A00D10B70084AFC
:105C90000B780C3252F8232002608868104420F000
:105CA0007F408860012010BD0360002010BD00000F
:105CB0001C22002013460A460021FFF749BF0000BE
:105CC0002DE9F843104D0F4680461E469146694621
:105CD000286801F09CFD040014D01C21FDF7E5FCB0
:105CE00001202071C4F81490380BC4F80080C4E976
:105CF00002606946286801F0ABFD04F08BFD0020CE
:105D0000BDE8F8830420FBE780C3020010B50378E8
:105D10000022072B06D2DFE803F005040610202935
:105D200030000A7010BD01230B7003898B818388BA
:105D3000CB81C06888600A7410BD02220A70028993
:105D40008A818288CA81C2688A60807D062802D0E2
:105D50000020087410BD0120FBE703220A70C288EE
:105D60008A810289CA81C068886010BD04230B70D3
:105D7000C0888881CA818A6010BD0520087010BD66
:105D800070B5064D0646002455F8241009B130467A
:105D90008847641C042CF7D370BD0000342A00200F
:105DA00030B50446006885B00D46806800281CD0D8
:105DB00014216846FDF779FC0195A06804902079CC
:105DC00010B101280DD104E001208DF800002069F8
:105DD00004E002208DF80000E06800030290606992
:105DE0000390206881686846884705B030BD70B56B
:105DF00086B015460C00064619D0112C17D0082C79
:105E000015D014216846FDF750FCADF8026030460D
:105E100000F01EFFADF804000D2C0AD0862C1CD01B
:105E200007208DF800000294684600F04DF806B097
:105E300070BD03208DF8000025B12878C00701D07F
:105E4000012000E002208DF8080000208DF80C00F1
:105E500041F20110ADF80A00E6E706208DF80000D7
:105E6000E2E7000010B50446408800F0F1FEA08093
:105E7000024801682046BDE810400847B0210020D4
:105E80002DE9F04107460024064E074D05E000BF0E
:105E900056F8241038468847641CE8788442F7DBBB
:105EA000BDE8F081D4270020D421002010B504469D
:105EB000408800F0CDFEA080024801682046BDE881
:105EC00010400847E4C20200014909680847000081
:105ED00038C3020070B586B0044614216846FDF749
:105EE000E4FBA0890026A0F54040ADF8040020782E
:105EF0002D4D062835D2DFE800F0340303032E4E83
:105F0000A08900F0C7F9012130B9E08943F6FE729B
:105F1000A0F54040904224D8A07B8DF8080020785E
:105F2000032810D05FF000008DF80900A0680390EE
:105F3000606850B109208DF80000606804906846E0
:105F400003F03EFD0DE00120EEE708208DF8000093
:105F50008DF81010F3E7A08900F09CF908B1E089F2
:105F600038B16878002802D06E7003F059FE06B090
:105F700070BD606838B10B208DF800006E70AE7097
:105F800003F04EFEDBE70A208DF80000BDF80400A8
:105F900003F0D6FEF2E713208DF800004FF6FF70F5
:105FA000ADF80400CBE70000C021002038B504465E
:105FB0000E480078A8B1A4F57F40FF380FD068469E
:105FC00004F062FB78B10521017001210171C480E8
:105FD000684604F067FB04F00DFC002038BD042087
:105FE00038BD022038BD082038BD000050220020F6
:105FF0000C4808B5007888B1684604F045FB78B1D4
:1060000006210170684604F04DFB0748017809B18C
:106010000121017304F0EEFB002008BD022008BD41
:10602000082008BD50220020F82A0020F0B589B0D1
:1060300014216846FDF739FB2C4C207818B16846CE
:10604000FFF79EFE50E0201D012105AAFDF7EEF8A6
:10605000B8BB4FF0102041690004026940694B1C35
:1060600001D100FB02F1224800220161A1F540515B
:10607000C160204902F095F9002820D11F481C2357
:106080008C221D49006801F0AFFB03F04DFA0500BA
:1060900014D0022D12D000270126062D12D006A8FA
:1060A00004F0F2FA88B106700C2D18D2DFE805F082
:1060B000170F170F17161716171113110B2009B00A
:1060C000F0BD11E026706760B9E70820F7E70771B7
:1060D00005E0032100E00221017100E0067106A83D
:1060E00004F0E0FA04F086FB0020E8E750220020EC
:1060F000D822002090C30200442A002058C3020086
:1061000038B5040014D0694604F02CFCA0B1BDF8E9
:10611000000000EB8001094800EB8100C16849B133
:10612000A17A39B1C168491EC1600020A07238BD92
:10613000052038BD062038BD0A2038BDD02A0020F1
:106140001FB501A9684604F0C9FB04B010BD07B52E
:1061500013460A466946002004F0C0FB0EBD07B591
:1061600013460A460021684604F0B8FB0EBD20B174
:1061700019B10068086000207047052070470000D2
:106180007CB50D46040019D0C5B1694604F0EAFBA0
:10619000B0B1BDF800000B4900EB800001EB8000BE
:1061A000012101AA0C306668FDF767F82E6060686F
:1061B0000C3068600120A07200207CBD05207CBDF1
:1061C0000A207CBDD02A002018B10323002205F04C
:1061D000E5BE052070470223002205F0DFBE12B1A4
:1061E000022305F0DBBE052070470000094908B511
:1061F0000A69042A0BD0084A096942F821000548B7
:10620000012110306A46FDF738F8002008BD0C2047
:1062100008BD000030220020342A002038B5044692
:1062200009480D46007858B164B16946284605F022
:10623000AFFF002803D1BDF800102180658038BD74
:10624000022038BD052038BD5022002010B504467C
:106250000E48007898B1A4B12188022913D80C4ABD
:1062600001EB810002EB800260885289C31C9342DB
:1062700009D805F081FF00202080608010BD022039
:1062800010BD052010BD042010BD000050220020CC
:10629000D02A002043F6FE71A0F54040884201D884
:1062A000012070470020704710B504460078182878
:1062B00002D1FEF7B5FB207010BD10B50446007882
:1062C000182802D1FEF7ACFB207010BD70B5134644
:1062D000002206461546862902D0112902D002E086
:1062E000012200E001250D4C73B1A179FEF7D2FB2C
:1062F0002A4661793046FEF7CDFB0022A178304670
:10630000FEF7C8FB002203E0A178FEF7C3FB2A4694
:1063100061783046BDE87040FEF7BCBBEC21002040
:10632000406804F0C7B9000070B508B1012070BD25
:10633000194C0025207B08B1257301E000F0A0F87E
:106340002078082826D2DFE800F02504080C102564
:106350001420BDE8704000F021B8BDE8704000F0A6
:106360007DB8BDE8704000F05FB8BDE8704000F057
:106370003BB86088084900EB8000283901EB8000B9
:106380004068BDE8704003F0AFB86560BDE870409C
:1063900003F0B8B80F2070BDF82A00201149F0B4FE
:1063A0008A1C00200346A1F128050C18A67A4EB1DC
:1063B000A37200EB800405EB8404E66816B9247C24
:1063C000012C0AD0401C80B20228EED30B704B8007
:1063D0004B60F0BC41F61D5070471080F0BC00F0DF
:1063E0003DB80000F82A00200C48418801EB8102EA
:1063F000A0F1280101EB8201CA6852B105210170A8
:10640000074802218180016800230122054801F02C
:10641000A1BF042202704968F6E70000F82A0020B4
:1064200058220020D822002038B50A490848032401
:106430000B684268898803EB810153880470DB1C78
:1064400000201B0400909B0B034802F049F838BD64
:10645000F82A002058220020D8220020074910B531
:106460004888091D04F0CEFA18B1BDE81040FFF7C6
:10647000DBBFBDE81040FFF7B7BF0000F82A0020DF
:10648000F0B51F481F490125067802248B88A0F12A
:106490002802082E19D2DFE806F00418181B222F54
:1064A0002F170189491C01810021418080F80C10BF
:1064B00001EB810312F8233043B100234418491C37
:1064C00089B2A3720229F3D30570F0BD0123F5E769
:1064D00042685288D21C1A448A800470F0BD4688F3
:1064E0000D6806EB860602EB860256680E60556064
:1064F00013818C80062100E007210170F0BD0000AF
:10650000F82A00205822002030B501888588224CC6
:1065100085B0502924D0522902D0542932D103E029
:10652000284600F0A1FE2DE014221C496846FDF724
:10653000A3F8ADF80250284600F08AFBADF804003D
:1065400000F034F9002261792846FEF7A3FA002210
:1065500021792846FEF79EFA6846FFF783FC11E092
:10656000017B01290ED1817A01290BD10089A0F587
:106570002451023906D10121284600F0A9FEA07855
:1065800003F076FCE07803F073FC207905B0BDE8F9
:10659000304003F06DBC0000A821002060C2020062
:1065A00010B50446007800280FD1608800F05CFE2A
:1065B000608800F0A3F9002807D004496088012210
:1065C0000979BDE81040FEF765BA10BDA82100208A
:1065D00010B5124C00202070FEF722FAA070FEF7D2
:1065E0001FFAE070FEF71CFA2071FEF719FA6071CD
:1065F000A17818290FD0E17818290CD02179182911
:1066000009D0182807D00121601C03F039FE0120B1
:106610002070002010BD032010BD0000A821002024
:106620002DE9F04192B000F0D9F86846FEF7D0F9B4
:1066300000246E460D4D4FF6FF780DE006EB440743
:10664000B88800F005FB404504D1B88801222979BB
:10665000FEF720FA641CA4B20098A042EED8287974
:1066600003F006FC12B0BDE8F0810000A821002074
:106670007CB5044600781C4D08282FD1607A38BBC1
:10668000207A4FF6FF7601280DD0072802D008287F
:1066900024D11EE0A08800F019FAB0421ED00121DA
:1066A00000F016FE1AE0A0886A46012103F080F887
:1066B00070B90198007858B1A08800F007FAB0428C
:1066C0000CD001222979FEF7E5F9287903F0D0FBF7
:1066D00004E005480021401C03F00DFEA878BDE849
:1066E0007C4003F0C5BB0000A821002010B5044683
:1066F0000A4841782046FEF7B7F968B108480021FA
:1067000001EB410200EB82025288A24201D1C8B2E1
:1067100010BD491C1429F3D3FF2010BDBA2100205D
:10672000C425002070B5094D094E002404EB440037
:1067300005EB800071784088FEF796F920B1641C63
:10674000142CF3D3FF2070BDE0B270BDC42500202F
:10675000BA2100202DE9F041124E07460125BD4027
:106760003068FDF705FD00280DD10F4C2069284247
:1067700007D1384601F0AEFB0028E06805D0284379
:1067800004E0A8432061BDE8F081A843E0602069EF
:1067900028432061A1683068BDE8F0410022FDF780
:1067A000A3BC000050C30200082200201CB5054A0B
:1067B000D2E90212CDE900120022694603F01DF869
:1067C0001CBD000078C2020003484FF6FF718180B3
:1067D0000121017000207047B421002010B54FF650
:1067E000FF7002F09DFF03498880BDE8104004F06F
:1067F000FDBB0000B42100202DE9FC41804600F0E3
:1068000027FA002403250127A0F57F412646FF39FA
:1068100008D06A46082102F0CBFF18B90198841D00
:106820008688056832462B4621464046A9DF042863
:1068300004D0082804D00B2808D002E0112000E082
:106840000020002F00D10B20BDE8FC810027A80705
:1068500001D50125E6E73443F5D00024264603257B
:10686000E0E72DE9FC41804600F0F2F90646A0F58C
:106870007F40FF380ED001252A466D1C0027ADB29F
:106880006B460821304602F0BDFF040006D0072CFD
:1068900025D025E043F20200BDE8FC8101990323E5
:1068A0000A1D0B604046891DAADF040004D00C2C91
:1068B00009D0052C09D009E032460821104603F022
:1068C00037F804460CE0012700E000240821304698
:1068D00003F01AF800B10324002FCDD100E00C24FE
:1068E0002046D9E704488088A0F57F41FF3901D0D0
:1068F00004F07CBB70470000B42100200EB502A953
:10690000019100F0A5F96A46012102F051FF08B19A
:1069100000200EBD019800780EBD00002DE9F04169
:1069200007464FF6FF760A48ABDF10B10320BDE8FB
:10693000F081074C43F20305A41E324661883846B5
:10694000A7DFA842F3D16088401C6080F5E7000013
:10695000B6210020428800EB82020C328A4201D923
:10696000022070478188A1F57F42FF3A03D000885A
:1069700008B10020704701207047884204D20068A7
:10698000401C01D001207047002070473EB50278BE
:1069900002230C46B3EB520F17D1B0F80110ADF83B
:1069A0000010C1788DF802108188ADF8041080794C
:1069B0008DF8060002AA01A92046FDF74FFA03222E
:1069C00002A96846FCF783FE08B100203EBD012005
:1069D0003EBD000010B50C46FFF788FEFF280CD026
:1069E000074900EB400001EB80004168216001890C
:1069F000A180807AA071002010BD052010BD00008C
:106A0000C425002070B5018892B0102959D1011D0C
:106A100034226846FCF730FE9DF804004FF6FF76FE
:106A2000032134466D46B1EB500F2AD003F036F8FF
:106A30009DF8040040080ED001280CD0022820D177
:106A400018E00F99281D1131FDF7A3F918B100BF07
:106A5000BDF8344015E00EAA0DA9072002F0F2FFA0
:106A60000028EED10DE00F99281D491CFFF78EFF7D
:106A70000028EDD10EAA0DA9072002F0E3FF00289F
:106A8000F1D1BDF80000291D00F058FEB44218D025
:106A9000BDF80000214600F0C5F8BDF80000ADF8D3
:106AA00036000020ADF83840074E8DF834000DADAB
:106AB000044600BF56F8241028468847641C022C60
:106AC000F8D312B070BD00008CC20200094A002148
:106AD00001EB410332F82330834205D101EB410041
:106AE00002EB800040887047491C1429F0D34FF610
:106AF000FF707047C42500203EB50C46054602F0E5
:106B0000CDFF0BE0BDF80000A04207D02846029957
:106B100000F02EF810B1BDF800003EBD01AA694694
:106B2000072002F08FFF0028ECD14FF6FF703EBD2A
:106B300010B50D4C18200D4A607000204FF6FF7103
:106B400000EB400302EB8303401C59801428F7D369
:106B5000FDF766FF6070182803D001202070002028
:106B600010BD032010BD0000BA210020C425002064
:106B70002DE9F0410C46054600F1110701F111061F
:106B80001022491C401CFCF7A2FD48B9681C00F00B
:106B9000D1F928B1601C00F0CDF908B1012400E062
:106BA000002431463846FDF7F4F83B780222B2EB78
:106BB000530F0CD00321B1EB530F08D03378B2EB55
:106BC000530F04D0B1EB530F01D0012100E000219D
:106BD000084201D18C4302D00120BDE8F0810020A1
:106BE000FBE7018811B9421892780AB10120704779
:106BF000491C0829F7D30020704710B50C460346FE
:106C0000FFF7EFFF00280AD018882188884205D1B5
:106C10000822A11C981CFCF75AFD08B1002010BDE9
:106C2000012010BD03F0E0B870B50446FFF74EFF39
:106C30000546204602F0BFFD4FF6FF7104468D4227
:106C400003D014B9284603F0CFF8204670BD0000E9
:106C500010B5FFF74BFDFF2805D0044900EB4000BD
:106C600031F8200010BD4FF6FF7010BDC425002084
:106C70003EB5044602F012FF0EE00199204646316F
:106C8000FFF7BBFF28B9019920462A31FFF7B5FF6E
:106C900010B1BDF808003EBD6A4602A9072002F007
:106CA000D1FE0028E9D14FF6FF703EBD38B504464D
:106CB0000A4801216A46FCF76BFB68B90848606026
:106CC00002F044FA05491C238C22087404488C39CC
:106CD000001F006800F088FD002038BDA42B0020B4
:106CE00084C302002DE9F0412D4F002518B17D60CD
:106CF0000120BDE8F0810879012258B1294E012810
:106D00000CD0274C4FF002080834022821D0032869
:106D100042D128E00A7102F0F5FB3BE05FF0000091
:106D200000EB800116F82110022908D0401C80B227
:106D30000228F5D33A707D6041F61D50D9E700EB8B
:106D4000800006F8205006EB8000406802F0CCFB83
:106D500020E00D71A4F8048000230122124821686C
:106D600001F0F8FA16E00D71206802F0BDFB0D4944
:106D700023682831498801EB810206EB8201D1F8B2
:106D800004C0C4F800C04B60A3880B81A4F8048041
:106D900006F822500028ACD07D600E20A9E7000044
:106DA00050220020D02A0020D8220020014603488B
:106DB00002888A4200D0002070470000DC240020B6
:106DC0002DE9FC5F0E008346DDE90C47C6F10000AB
:106DD00098469246814600D40846012503E000BF4C
:106DE00090FBFAF06D1C5045FADAA84500D94546EB
:106DF00024B1002E01DB780700D5641EB80702D548
:106E0000B8F1000F0AD0F80708D13CB1A54205D26D
:106E100020215846641EFEF753FDF6E7002E02DAE5
:106E20004E462D2102E0780703D52B215846FEF768
:106E300047FD07F0030002280BD1B8F1000F08D17D
:106E40003CB1A54205D230215846641EFEF738FDFC
:106E5000F6E7CDE90047434652463146584604F02E
:106E6000A5FEBDE8FC9F000070B50E460446007903
:106E700018494FF4A27501EB4010017F2068A1B1C1
:106E80004FF4887102F0F8F94FF49071206802F025
:106E9000F3F94FF49271206802F0EEF92946206868
:106EA00002F0EAF90C49206809E04FF48E7102F013
:106EB000D2F92946206802F0CEF908492068C0F8C6
:106EC0000413206800F055FF3146BDE8704000F023
:106ED00034BF0000D0280020100302008000020010
:106EE0000248007A002800D001207047A42B00201F
:106EF000F0B58488A518944200D82246A41AC28806
:106F0000D6189A4200D81346D21A4B880788BB423B
:106F10000CD34088834209D88888A04206D3A8426F
:106F200004D8C888904201D3B04201D90020F0BDF6
:106F30000120F0BD0021425C0AB101207047491CCC
:106F40001029F8D300207047800701D00020704737
:106F5000012070470A4810B5807860B1002401E034
:106F6000022C06D02046FEF727FA641C042CF7D327
:106F700010BD0324F6E7BDE81040FEF753BA000049
:106F80008821002003480179C90702D00078FEF764
:106F900081BB70478821002006490120086006480F
:106FA0000168C1F300410029FAD10449002088702A
:106FB000704700000C0000401804004064280020C6
:106FC0001721018041800021017141711B218171D4
:106FD000C17170472DE9FE4F2A4D984691460F002A
:106FE000824601D000260DE0684600F0D3FB6A46D9
:106FF0000021504602F04BFB2878009E10B99DF806
:10700000090098B14A463146504604F039FA044620
:10701000014600225046FFF759F9112C1AD008DC1E
:1070200074B3082C2CD00D2C09D129E00520BDE823
:10703000FE8F862C1AD0A4F54050023820D00325AC
:10704000B8F1000F04D0324621465046FEF7CFFE7D
:107050002846ECE73A4629795046FDF71BFD4A469B
:10706000E9785046FDF716FD0025E9E73A4629790B
:107070005046FDF70FFD4A46E9785046FDF70AFDF8
:107080002546DDE7EC2100202DE9F041204F0E469A
:10709000154604463978FDF7E7FC002835D0204630
:1070A00002F0D0FA50B32046FFF7D2FD80462046CA
:1070B000B978FDF7D9FC08B1012700E00227204686
:1070C00002F0A4FD0028404602D0FFF7ADFD0DE020
:1070D000A8F57F41FF3909D0072102F015FC010016
:1070E00004D0052902D0204603F058FF2B46324633
:1070F00039462046BDE8F041FEF72ABD2A46314612
:107100002046BDE8F041FEF7D5BDBDE8F0810000A6
:10711000E42100202DE9F04391B08146FDF796FC73
:10712000002820D06846FDF753FC00246E4617E087
:1071300006EB44054946A888FDF796FC78B10B4F4D
:10714000A888F978FDF790FC8046A8883979FDF782
:107150008BFC0146A88801234246FFF73BFF641CD5
:107160000098A042E4D811B0BDE8F083EC210020E3
:107170002DE9F047394E002780463D46DFF8E09084
:10718000D6F804A057E003D00446D0F81C8035E0C0
:1071900099F8002002EB4201521CD2B289F800207B
:1071A00009EBC10199F80230091D9A4201D189F811
:1071B000005048680A780446012A12D0022A02D0F8
:1071C000032A3BD108E004F0FBFA00B10127257443
:1071D00034E00574C06900E070680028F9D170607F
:1071E0002CE0207C50BB88686060C868A06008699B
:1071F000E0604869A061F07800B165606268B168DC
:10720000184B501A20F07F40984202D2A1680844DF
:1072100006E0881AA16820F07F40814202D9081A4E
:10722000206000E0256065600120A5602074204694
:10723000E56104F0A7FAB8F10000A4D199F80010B4
:1072400099F801008142A3D117B97168514502D064
:107250000120BDE8F0870020FBE700001C22002091
:1072600010290020FFFF7F0030B585B005460024BF
:1072700014216846FCF719FAA5F57F40ADF80250D5
:10728000FF3815D02846FFF7B7FA98B10B2815D06C
:10729000112811D0A0F54051023903D001462846EB
:1072A00003F068FE09482246C1782846FDF7F2FB44
:1072B00005B030BD0E2002E00124F3E70F208DF869
:1072C00000006846FEF7CEFDECE70000A821002094
:1072D0000A4602498978FDF7DDBB0000A82100209D
:1072E000F8B5054600780C46002620420FD1002054
:1072F0008DF800006846FCF74BFF2878204202D149
:107300002043287001269DF80000FCF765FF3046F9
:10731000F8BD000070B588B0214800F0A4FA2048FC
:10732000001F064600F09FFA1E4DD5E9014105E019
:10733000C0F3891202EB9050641C044404EA01007B
:1073400005EB8000C0688207F2D000200DF1080232
:1073500004EA010305EB8303641CDB6842F8203078
:10736000401C0228F4D3029800F00300012808D042
:1073700002280AD10298032101EB905004EB9004FB
:1073800003E00298C0F3831004443046002101AAB0
:10739000FCF7F5F8002800D06C6008B070BD000064
:1073A0000C310020F42C0020A8B0002001F0AEFB2E
:1073B00008B1FCF70BFE01F031FAFCF76BFE08B1E7
:1073C000FCF704FE01F0C6FC08B1FCF7FFFD5D49C7
:1073D0000320FEF715F908B1FCF7F8FD6946002017
:1073E000FEF744F808B1FCF7F1FD9DF80000022813
:1073F0007DD0002501F062FE08B1FCF7E7FD002416
:1074000069460120009401F023FD08B1FCF7DEFD80
:10741000684601F0A1FD08B1FCF7D8FD02F0F2FCCE
:107420009DF8080048A120F00F00401C20F0F0005B
:1074300010308DF80800112202A87CDF08B1FCF79B
:10744000C5FD00945020ADF80000A0200194ADF8D7
:107450000200ADF804404FF4C870ADF8060068466D
:107460007ADF08B1FCF7B2FD00213C4800F062FA77
:1074700008B1FCF7ABFDA0216846FCF716F9022025
:107480008DF8000001208DF802000621ADF81000F3
:107490008DF87C008DF803104FF4967030492290DF
:1074A0000591B42023902F4826902C48694614302B
:1074B000FDF76EF808B1FCF789FD2848012114306A
:1074C000FDF763F8284800680090FDF72BFB08B132
:1074D000FCF77CFD6846FDF7D1FB08B1FCF776FDB3
:1074E0001C216846FCF7E1F84FF4203000E026E06C
:1074F000CDE900404FF4702002901C48059003260F
:107500001B488DF80C600690ADF80E408DF81040C9
:107510006846FDF729FA08B1FCF758FD154816A191
:10752000008806EB004001F07FFA2846FCF772FC69
:1075300001F082F90028FBD101F034FCF8E70125C5
:1075400058E70000595502004E6F726469635F424C
:107550007574746F6E6C6573730000006423002093
:107560008221002085920200ECC10200A992020053
:10757000055B0200342300204170706C6963617404
:10758000696F6E20737461727465640A0000000094
:1075900070B5144682880E4605462088111D0144A8
:1075A000921C994201D8FE2A01D90C2070BD521CB0
:1075B00032542088FF21401C80B220803154208822
:1075C000401C80B220808119288804F0DAFA2188D2
:1075D000084480B22080AA8842B1A96841B13044F1
:1075E000FCF74AF82088A98808442080002070BD54
:1075F000072070BD2DE9F047C7880446181D1646C0
:107600008946B0FBF7F1B0FBF7F207FB12009A19BD
:107610003A44D21CB2FBF7F2DDF820A001E0246866
:10762000491E0029FBD13D1A8846B54216D818E0FC
:10763000BAF1000F05D0211809EB08002A46091DF0
:1076400004E0204409EB08012A46001DFCF714F869
:1076500000202468761BA844B74201D9354600E0D3
:107660003D46002EE4D1BDE8F087000030B502466B
:1076700069B101F079FA0021084C0BE001EB4103FC
:1076800004EB830315685B88AB4202D111600020D4
:1076900030BD491C8142F1D3052030BDEC220020D1
:1076A000F8B50E46017814460546012901D16878DF
:1076B00030B12088821C9A422DD8012902D006E0E0
:1076C0000720F8BD69780144891C994223D8181A0B
:1076D000801E87B2ADF800702188B01C084469464E
:1076E0007DDF0028EDD12878022805D1BDF80010F3
:1076F000B94201D809210AE00821012805D168789A
:10770000B84202D8ADF8000001E0ADF80070BDF855
:107710000000FE2801D90C20F8BD2288401CB0547E
:107720002088401C80B2208031542088401C20805A
:10773000BDF80010084420800020F8BD70B5054653
:107740000C004FF0FF0020D04FF6FF76B5421CD062
:107750000E48012241782846FDF79CF92846FEF79D
:10776000C5FFFF2803D1FEF7DDFFFF280DD0084B32
:1077700000EB400203EB82014D8023F82260226877
:107780004A60A2880A81A2798A7270BDBA2100205B
:10779000C4250020034A00219268C0E900218160CD
:1077A00070470000EC21002070B54FF6FF750E46C3
:1077B000A84201D1002000E0401C84B208E021462C
:1077C000304602F08CFD08B1204670BD641CA4B2A6
:1077D000FF2CF4D9284670BD10B5FBF7B4FD08B1F5
:1077E000002010BD112010BD10B531B1B2FBF3F473
:1077F00003FB14241CB1092010BD0E2010BD016034
:107800000021416081608281C381084610BD70B54E
:107810000C460546FBF74CFD002802D0218828685D
:10782000084470BD10B50A8849888A4203D1FBF725
:1078300081FD012010BD002010BD70B50C4605462D
:10784000FBF75BFD002802D061882868084470BD02
:1078500010B50A8849888A4203D1FBF745FD01200B
:1078600010BD002010BD08B501216A46FBF77AFE65
:10787000009808BD08B56A46FBF7FFFC009808BDF4
:1078800038B5044600258DF800506846FCF780FCAA
:1078900021686268086890420ED9401E086001782D
:1078A000238AE26801FB0325227A2168101AC0B2FC
:1078B0000A79824200D208719DF80000FCF78CFC26
:1078C000284638BD38B5054600208DF800000C4626
:1078D0006846FCF75DFCE868298A201AB0FBF1F1E4
:1078E0002A681068431C136001709DF80000FCF7C3
:1078F00073FC38BD10B530B1017A42680368891A4B
:10790000C9B21A6006E00E2010BD03681A68541C44
:107910001C601170491EC9B2F7D2006800210171C4
:10792000084610BDC20800F007030120895C98409A
:107930000840704710B560B10161172120F8021BA3
:1079400020F8021B1B2100F8021BFFF739FB002067
:1079500010BD0E2010BD00002DE9F043858895B0C4
:107960000C46002D3DD10188DFF824810026DFF888
:107970002491012724293CD006DC102909D01129A3
:107980000CD023296DD150E03A290BD0552968D16C
:107990002AE00146204601F095FC62E0A01DFFF7B9
:1079A0000FFB5EE02246408934F8061F814200D872
:1079B00008466080172800D217206080106970B1D7
:1079C000607960B1D8E90010CDE90310ADF80E5030
:1079D0006088ADF81000136903A9104698476671D6
:1079E000267115B0BDE8F0830146204601F0B8FCD1
:1079F00037E0011D342206A8FBF73EFEBDF8180053
:107A0000BDF81C2004EBC0014A7322694AB3D8E9CF
:107A10000432CDE90432ADF81200487B8DF8140031
:107A20002269204604A990471BE00496059630F889
:107A3000041F04EBC1020179127B8A4200D2114675
:107A4000ADF81010ADF812100088002204A990DFE4
:107A5000020006D0B9F800000F4907EB004000F023
:107A6000E7FFA07A0028BCD0E18828469EDF02000C
:107A70000BD0112AB5D0B9F8000015B007EB0040C3
:107A8000BDE8F043054900F0D3BFA672E772A8E74E
:107A900094C20200EC220020D0C6020048C60200B8
:107AA00000F180400068002800D00120704708B530
:107AB00000F18040002101600068009008BD0000D6
:107AC00000283ED01F49204A096800BF00BF00BF00
:107AD00000BF00BF00BF00BF00BF91422FD000BF5A
:107AE00000BF00BF00BF00BF00BF00BF00BF00BF9E
:107AF00000BF00BF00BF00BF00BF00BF00BF00BF8E
:107B000000BF00BF00BF00BF00BF00BF00BF00BF7D
:107B100000BF00BF00BF00BF00BF00BF00BF00BF6D
:107B200000BF00BF00BF00BF00BF00BF00BF00BF5D
:107B300000BF00BF00BF00BF00BF00BF00BF0138D3
:107B4000C3D17047D42200200024F40070B54FF058
:107B500010246169104D0126491C288814D06269DF
:107B6000032101EB00400DA100F062FF606913DF0B
:107B7000040007D0288814A106EB004000F054FF51
:107B8000204670BD002070BD06EB00401BA100F038
:107B90004BFF042070BD0000342300205365747433
:107BA000696E6720766563746F72207461626C65BC
:107BB00020746F20626F6F746C6F616465723A201D
:107BC00030782530387800004661696C6564207231
:107BD000756E6E696E672073645F736F667464653B
:107BE000766963655F766563746F725F7461626CFA
:107BF000655F626173655F73657400004E6F20623C
:107C00006F6F746C6F616465722077617320666F4B
:107C1000756E640070B50C4D03210C4A288801EB89
:107C200000400BA100F004FF084813DF040008D057
:107C30002888012101EB004010A100F0F5FE20464C
:107C400070BD002070BD0000342300200030020011
:107C500053657474696E6720766563746F722074FF
:107C600061626C6520746F206D61696E2061707057
:107C70003A20307825303878000000004661696C81
:107C800065642072756E6E696E672073645F736FD2
:107C900066746465766963655F766563746F725F49
:107CA0007461626C655F626173655F736574000027
:107CB00070B50F4C0025207808B1852516E000210D
:107CC000A16061602161E1604FF0E020D0F8000127
:107CD000012610F0010F03D10721002000F02DF83C
:107CE00001F034FA08B9034806602670284670BDD2
:107CF000642800201805004008B500208DF8000019
:107D00006846FCF745FA0648C168491EC160C0686C
:107D100008B9FFF741F99DF80000FCF75DFA08BDCE
:107D20006428002000F01F020121914040098000DA
:107D300000F1E020C0F8801170474907090E0028C3
:107D400006DA00F00F0202F1E02282F8141D03E0CF
:107D500000F1E02282F8001400F01F02012191409E
:107D60004009800000F1E020C0F88012C0F8001146
:107D70007047000B40B270472DE9F0418846054638
:107D800002F0E2F8234E002828461AD0FDF7E8FD5D
:107D9000304490F848008009032802D001280ED012
:107DA00007E04FF0A040D0F81005E84010F0010FB8
:107DB00005D003212846BDE8F04100F027BC022190
:107DC000F8E702F0CDF8002822D02846FDF7C8FDDC
:107DD00004464FF4807000EB84000F4F81B207EB34
:107DE0008400D0F8102542F00102C0F810250846A2
:107DF00000F03CFCB8F1000F0AD02846FDF7B0FDBA
:107E000056F82000002803D00120A040C7F8040342
:107E1000BDE8F08178280020006000402DE9FC4199
:107E2000DFF8A480044608EB0400002790F9300036
:107E30001346C0170E46401C01D0082741E0F278D7
:107E400019462046FDF768FD0546401C38D0B0783D
:107E500050B14FF0A04000EB8400D0F8001721F0A3
:107E60000201C0F8001707E0002173782046009156
:107E70000A46019100F079FBF078C0B113483178DF
:107E800000EB8500D0F81025114B1A40C0F81025E2
:107E90004FF4F8524FF4403302EA042203EA01415E
:107EA0000A43D0F810150A43C0F8102509E008EB82
:107EB0000500327810F8481F41EA8211017000E095
:107EC00004273846BDE8FC81782800200060004087
:107ED000FFE0FCFF4FF0A041D1F81015C14011F0B8
:107EE000010000D00120704770B5144D95F8540082
:107EF00008B1082070BD0020411E2A18401CC0B2E5
:107F000082F830102028F8D300242046FDF7F6FC34
:107F1000641CE4B20C2CF8D307210620FFF70DFFF8
:107F20004FF4BE7000F0A2FB05494FF00040C1F8CD
:107F30000403012085F85400002070BD782800203B
:107F400000600040034890F85400002800D0012051
:107F500070470000782800200121B1EB507F01D14B
:107F600001207047002070472DE9F0410546007957
:107F7000164F904607EB40140E46E07E10B10820E5
:107F8000BDE8F081707F20772846FCF73FF95FEA73
:107F9000080060603169216003D0317F2846FEF718
:107FA00063FF287907EB4010007F0028286801D084
:107FB000082100E00421C0F800150020E0752076BB
:107FC000A0750121E176A076DAE70000D028002034
:107FD0002DE9F047054600793F4E904606EB4014E8
:107FE0000F46207F18B10846FFF7B6FF30B128468C
:107FF00000F074F820B11120BDE8F0871020FBE7F5
:1080000084F81680A7600027A78228794FF001081E
:1080100006EB40143E46207F0028286825D04FF408
:108020009079494601F028F94FF4AC7A5146286816
:1080300001F022F92868A17DA268C0F84425C0F8A3
:1080400048152868C0F808806068F0B94946286873
:1080500001F00DF980465146286801F008F958EA08
:108060000001F3D058BBA7750FE04FF48E7A51464C
:1080700001F0F1F82868C0F808802146286803F06C
:108080002DFC61684FF4807089B13046B4E75146E9
:10809000286801F0DBF810B9A08A4845F7D1A08A1A
:1080A000484505D02146286803F018FC00E08146C9
:1080B000A08AA17D8842EAD3A08A484501D10F2633
:1080C000D1E75146286801F0C1F80028F9D02868A6
:1080D000C0F80C80C7E70000D028002000790449D0
:1080E00001EB4010807D002800D001207047000087
:1080F000D028002070B5044600791149002601EB14
:10810000401520682A7FC0F80065686888B120792A
:1081100001EB4010007F0028206801D0094901E0F0
:1081200008498C39C0F808132068FFF722FEFFF7D2
:10813000F9FD204601F020FFEE766E6070BD000074
:10814000D0280020100302000FB408B503990029BD
:1081500004D004AA00926A4600F00FF801B05DF85E
:1081600014FB10B582680446002A05D0D4E9040344
:10817000216898470020A06010BD2DE9FC4791467A
:108180000C00804676D014F8011B39B125290ED099
:108190004046FDF795FB20780028F4D198F80C00B4
:1081A000002867D04046BDE8FC47FFF7DABF002053
:1081B000012221782B291BD02D2902D0302908D16A
:1081C00002E040F0010001E040F00200641C002ADF
:1081D000EFD100252A290ED02178A1F130020A2AF8
:1081E00011D205EB850201EB4205641C303DF1E73D
:1081F00040F00400EAE7D9F800100B1DC9F8003080
:108200000968641C0D44217800232E290BD114F831
:10821000011FA1F130020A2A05D203EB830201EB10
:108220004203303BF3E76C290DD068290BD0692954
:1082300021D00BDC252918D0582931D063290ED044
:10824000642915D117E014F8011FECE7702969D0F3
:10825000732932D075291BD0782909D120E0D9F8AB
:108260000000011DC9F8001001784046FDF728FB09
:10827000641C90E76CE0D9F800100A1DC9F80020D2
:108280000968CDE900500A224046FEF799FDEFE764
:10829000D9F800100A1DC9F8002009680A2206E072
:1082A000D9F800100A1DC9F8002009681022CDE98C
:1082B0000050404603F07AFCDAE7D9F800100027B6
:1082C0000A1DC9F800200E68C00705D112E040461B
:1082D000761C7F1CFDF7F4FA31780029F7D104E011
:1082E000202140466D1EFDF7EBFABD42C0D9002D9E
:1082F000F6D1BDE74EB13046FBF7E2F9074604E0A0
:10830000202140466D1EFDF7DBFABD4206D9002D47
:10831000F6D103E04046761CFDF7D2FA3178002909
:10832000F8D1A5E7D9F80000011DC9F800100568CB
:1083300030214046FDF7C4FA78214046FDF7C0FAE7
:1083400008200021CDE90001034610222946B0E7AC
:10835000BDE8FC872DE9F0411F46154604000E4696
:1083600016D02068B8B1C5B160680268501E3042AE
:1083700015D16A432046FBF725FD80B120683B46B6
:108380002A46D0F810C031462046BDE8F04160478B
:108390000E20BDE8F0810820FBE70920F9E7102056
:1083A000F7E720B119B101600B68114618470E209C
:1083B000704700002DE9F04128B1016819B1C96981
:1083C000BDE8F04108470D4D0D480024461B142719
:1083D0000DE000BF04EB840005EB8000016829B1CB
:1083E000C969884710B10120BDE8F081641CB6FB63
:1083F000F7F0A042EED80020F6E70000D8220020D7
:10840000EC220020044801214174007A08B10020C8
:108410007047012070470000A42B0020012801D0E4
:10842000032808D10449002201284A7400D0002002
:10843000087402F093B97047A42B002070B5254C46
:108440000246207A012837D0022841D12248002351
:10845000022A006802D0032A2ED11BE0E3600179D2
:1084600011B1012928D10DE0D0E90565711B4FF448
:108470008056B14200D33146294481614569A94201
:108480000ED019E00169491C01614269914213D182
:10849000237217E0E168491CE16008290CD9E36008
:1084A0002372022A0ED00D21FDF77AFC0B480A49EF
:1084B000091D0068FFF7B6F9607C28B1BDE870407F
:1084C00000F04ABE0021EFE7BDE8704002F046B977
:1084D00070BD0000A42B00206022002080C3020099
:1084E0002DE9F8431D46089F1646884604000DD026
:1084F00066B1206860B135B160684068B5FBF0F1E5
:1085000000FB115030B10920BDE8F8830E20FBE7D5
:108510000820F9E74046FBF74FFC90B13046FBF7E7
:108520004BFC70B12A4641462046FBF74BFC40B15C
:10853000009720682B463246C76841462046B84718
:10854000E2E71020E0E770B541EA4201DDE90456B8
:108550004FF0A04441EA830141EA052104EB800089
:1085600041EA0641C0F8001770BD70B541EA42010A
:10857000DDE904564FF0A04441EA830141EA0521B8
:1085800004EB800041EA0641C0F8001770BD70B5E9
:1085900041EA4201DDE904564FF0A04441EA83017B
:1085A00041EA052104EB800041EA0641C0F80017CA
:1085B00070BD1CB5002100910B4601220191FFF70F
:1085C000E6FF1CBD1CB500220B460092114601922D
:1085D000FFF7DDFF1CBD1CB5002100910B460122F9
:1085E00001911146FFF7D3FF1CBD4FF0A04202EBF3
:1085F0008000D0F8002722F44032C0F80027D0F8DD
:10860000002742EA0141C0F8001770474FF0A0422E
:1086100002EB8000D0F8002722F44032C0F8002797
:10862000D0F8002742EA0141C0F800177047012244
:108630004FF0A043824011B1C3F808257047C3F83A
:108640000C25704718B5084B6C4601441B68009315
:1086500006E000BF54F82030D3F81035401C08C2A3
:108660008142F7D818BD00004CC30200034908B589
:108670000844002101600068009008BD00600040CF
:1086800002494058012800D0002070470060004097
:1086900030B5124B01460020D3F81044224609E0C1
:1086A000157A854205D1401C0A28F7DB4FF0FF30D0
:1086B00030BD5268002AF3D1421CF9D00872D3F8B9
:1086C00010242AB152684A60D3F81024516030BD9A
:1086D0000022C3F810144A6030BD0000F42C0020C2
:1086E000F0B595B01C4615460F4608461A9E00F098
:1086F0000BFB182109A8FAF7D8FF0E96CDE909540B
:108700000023082203A9384600F018FB05980690BC
:108710000498ADF81C0000208DF82000039808266E
:1087200000F00300012802D002281DD03CE003988D
:108730003346850AC0F3C2008DF81E0003980FA9C6
:10874000C0F380008DF81F000398C0F38314A200CB
:10875000384600F0F3FA09A8009006AB22460FA9AC
:10876000284600F02DFA1FE00398840DC0F3C200E4
:108770008DF81E000398C0F380008DF81F00082CB0
:1087800001D2254600E0082533462A460FA938467F
:1087900000F0D4FA2E44641B09AB06AA29460FA8A0
:1087A00000F05EF9002CEAD1384600F0B6FA15B0B8
:1087B000F0BD7047012003F0B5B8000010B50448C3
:1087C000FFF798FCBDE81040002003F0ABB80000B4
:1087D0007422002008B5034A00924023024AFFF7A2
:1087E0007FFF08BDC5AF0200F42B00200A4A012913
:1087F00002EBC00007D0022907D0032907D00429C3
:1088000007D000207047022070470420704700798D
:108810007047407970470000ECCC020010B5FFF7BC
:10882000C9FF04210348FFF733FF024901204872C2
:1088300010BD00007C2200202DE9F04F8DB0FDF727
:108840004FF818B100200DB0BDE8F08F744800213A
:10885000C0F81814BFF34F8FD0E9014604EA0601AF
:1088600000EB81014FF000090AE000BFC1F389125B
:1088700002EB9151641C0C4404EA060100EB8101F7
:10888000C9688A07F2D0002103AA804604EA0600DC
:1088900008EB8000641CC06842F82100491C434674
:1088A0000229F3D3039800F00300022806D0012820
:1088B00003984FD0C04380077ED0ACE0039850228D
:1088C000810D8A46B2EB905F00D850210D4665F3CA
:1088D0009F5003900831534800F0CDF907006CD049
:1088E00000F012FA4B46082203A9384600F02CFA91
:1088F00004EA0601701A8000001D09F1080B854288
:1089000021D9474E0C3630B1C2B208EB8101281A8A
:1089100091460C3104E03146EAB2002691463046D9
:10892000C5B25B46384600F00FFA0BEB09032EB1D7
:108930002A4631464FEA070000F006FA0AF1030022
:1089400004EB90043BE008EB81015B462A46384685
:108950000C31F1E7C0F38310062800D306200399F9
:1089600060F38911C1F38310801C039181002D48AD
:1089700000F081F907004ED000F0C6F94B460822FE
:1089800003A9384600F0E0F909F1080900250DE0D7
:1089900004EA060008EB80014B46042238460C31FD
:1089A000641C00F0D1F909F104096D1C0398C0F3AF
:1089B0008310A842ECD801E00BE02CE05FB3D8F8BC
:1089C0001054D8F81804464690B1384600F0A5F97E
:1089D00021E0D3F8180400283FF435AF1BE0687A93
:1089E000012804D1296828460A68394690476D68ED
:1089F000002DF4D1384600F090F900208DF80000E9
:108A00006846FBF7C5FBD6F8180400B974609DF8FA
:108A10000000FBF7E1FBFCF763FF80F0010012E7C9
:108A2000F42C002008C5020000231A4602F022BEE2
:108A300008B5012300926A4602F01CFE08BD1CB571
:108A4000CDE9002302236A4602F014FE1CBD3EB5A8
:108A5000069C8DE81C0003236A4602F00BFE3EBD17
:108A60002DE9F0470E4680461C46924608293ED81E
:108A700094F80C90002020731946104601F0D6FDA2
:108A80000025B54206D218F805201AA12046FFF7A6
:108A90005BFB03E019A12046FFF756FB6D1C082D78
:108AA000EFD317A12046FFF74FFB0025B54210D2A8
:108AB00018F80570FAF7DCFD0068C05D10F03E0F95
:108AC00001D03A4600E02E220EA12046FFF73CFBE3
:108AD00003E00DA12046FFF737FB6D1C082DE5D301
